{
  "_format": "hh-sol-artifact-1",
  "contractName": "CreditScoringOracle",
  "sourceName": "contracts/CreditScoringOracle.sol",
  "abi": [
    {
      "inputs": [
        {
          "internalType": "address",
          "name": "_owner",
          "type": "address"
        }
      ],
      "stateMutability": "nonpayable",
      "type": "constructor"
    },
    {
      "inputs": [],
      "name": "EnforcedPause",
      "type": "error"
    },
    {
      "inputs": [],
      "name": "ExpectedPause",
      "type": "error"
    },
    {
      "inputs": [
        {
          "internalType": "address",
          "name": "owner",
          "type": "address"
        }
      ],
      "name": "OwnableInvalidOwner",
      "type": "error"
    },
    {
      "inputs": [
        {
          "internalType": "address",
          "name": "account",
          "type": "address"
        }
      ],
      "name": "OwnableUnauthorizedAccount",
      "type": "error"
    },
    {
      "anonymous": false,
      "inputs": [
        {
          "indexed": true,
          "internalType": "address",
          "name": "updater",
          "type": "address"
        }
      ],
      "name": "AuthorizedUpdaterAdded",
      "type": "event"
    },
    {
      "anonymous": false,
      "inputs": [
        {
          "indexed": true,
          "internalType": "address",
          "name": "updater",
          "type": "address"
        }
      ],
      "name": "AuthorizedUpdaterRemoved",
      "type": "event"
    },
    {
      "anonymous": false,
      "inputs": [
        {
          "indexed": true,
          "internalType": "address",
          "name": "user",
          "type": "address"
        },
        {
          "indexed": false,
          "internalType": "enum ICreditScoringOracle.CreditUpdateType",
          "name": "updateType",
          "type": "uint8"
        },
        {
          "indexed": false,
          "internalType": "uint256",
          "name": "value",
          "type": "uint256"
        }
      ],
      "name": "CreditMetricsUpdated",
      "type": "event"
    },
    {
      "anonymous": false,
      "inputs": [
        {
          "indexed": true,
          "internalType": "address",
          "name": "user",
          "type": "address"
        },
        {
          "indexed": false,
          "internalType": "uint256",
          "name": "oldScore",
          "type": "uint256"
        },
        {
          "indexed": false,
          "internalType": "uint256",
          "name": "newScore",
          "type": "uint256"
        }
      ],
      "name": "CreditScoreUpdated",
      "type": "event"
    },
    {
      "anonymous": false,
      "inputs": [
        {
          "indexed": true,
          "internalType": "address",
          "name": "previousOwner",
          "type": "address"
        },
        {
          "indexed": true,
          "internalType": "address",
          "name": "newOwner",
          "type": "address"
        }
      ],
      "name": "OwnershipTransferred",
      "type": "event"
    },
    {
      "anonymous": false,
      "inputs": [
        {
          "indexed": false,
          "internalType": "address",
          "name": "account",
          "type": "address"
        }
      ],
      "name": "Paused",
      "type": "event"
    },
    {
      "anonymous": false,
      "inputs": [
        {
          "indexed": false,
          "internalType": "address",
          "name": "account",
          "type": "address"
        }
      ],
      "name": "Unpaused",
      "type": "event"
    },
    {
      "inputs": [],
      "name": "CREDIT_MIX_WEIGHT",
      "outputs": [
        {
          "internalType": "uint256",
          "name": "",
          "type": "uint256"
        }
      ],
      "stateMutability": "view",
      "type": "function"
    },
    {
      "inputs": [],
      "name": "DEFAULT_PENALTY_WEIGHT",
      "outputs": [
        {
          "internalType": "uint256",
          "name": "",
          "type": "uint256"
        }
      ],
      "stateMutability": "view",
      "type": "function"
    },
    {
      "inputs": [],
      "name": "HISTORY_LENGTH_WEIGHT",
      "outputs": [
        {
          "internalType": "uint256",
          "name": "",
          "type": "uint256"
        }
      ],
      "stateMutability": "view",
      "type": "function"
    },
    {
      "inputs": [],
      "name": "INITIAL_SCORE",
      "outputs": [
        {
          "internalType": "uint256",
          "name": "",
          "type": "uint256"
        }
      ],
      "stateMutability": "view",
      "type": "function"
    },
    {
      "inputs": [],
      "name": "MAX_SCORE",
      "outputs": [
        {
          "internalType": "uint256",
          "name": "",
          "type": "uint256"
        }
      ],
      "stateMutability": "view",
      "type": "function"
    },
    {
      "inputs": [],
      "name": "MIN_SCORE",
      "outputs": [
        {
          "internalType": "uint256",
          "name": "",
          "type": "uint256"
        }
      ],
      "stateMutability": "view",
      "type": "function"
    },
    {
      "inputs": [],
      "name": "PAYMENT_HISTORY_WEIGHT",
      "outputs": [
        {
          "internalType": "uint256",
          "name": "",
          "type": "uint256"
        }
      ],
      "stateMutability": "view",
      "type": "function"
    },
    {
      "inputs": [],
      "name": "UTILIZATION_WEIGHT",
      "outputs": [
        {
          "internalType": "uint256",
          "name": "",
          "type": "uint256"
        }
      ],
      "stateMutability": "view",
      "type": "function"
    },
    {
      "inputs": [
        {
          "internalType": "address",
          "name": "updater",
          "type": "address"
        }
      ],
      "name": "addAuthorizedUpdater",
      "outputs": [],
      "stateMutability": "nonpayable",
      "type": "function"
    },
    {
      "inputs": [
        {
          "internalType": "address",
          "name": "",
          "type": "address"
        }
      ],
      "name": "authorizedUpdaters",
      "outputs": [
        {
          "internalType": "bool",
          "name": "",
          "type": "bool"
        }
      ],
      "stateMutability": "view",
      "type": "function"
    },
    {
      "inputs": [
        {
          "internalType": "address[]",
          "name": "users",
          "type": "address[]"
        }
      ],
      "name": "batchUpdateScores",
      "outputs": [],
      "stateMutability": "nonpayable",
      "type": "function"
    },
    {
      "inputs": [
        {
          "internalType": "address",
          "name": "user",
          "type": "address"
        }
      ],
      "name": "calculateCreditScore",
      "outputs": [
        {
          "internalType": "uint256",
          "name": "",
          "type": "uint256"
        }
      ],
      "stateMutability": "view",
      "type": "function"
    },
    {
      "inputs": [
        {
          "internalType": "address",
          "name": "",
          "type": "address"
        }
      ],
      "name": "creditHistory",
      "outputs": [
        {
          "internalType": "uint256",
          "name": "score",
          "type": "uint256"
        },
        {
          "internalType": "uint256",
          "name": "totalBorrowed",
          "type": "uint256"
        },
        {
          "internalType": "uint256",
          "name": "totalRepaid",
          "type": "uint256"
        },
        {
          "internalType": "uint256",
          "name": "defaultCount",
          "type": "uint256"
        },
        {
          "internalType": "uint256",
          "name": "onTimePayments",
          "type": "uint256"
        },
        {
          "internalType": "uint256",
          "name": "utilizationRate",
          "type": "uint256"
        },
        {
          "internalType": "uint256",
          "name": "lastUpdateBlock",
          "type": "uint256"
        }
      ],
      "stateMutability": "view",
      "type": "function"
    },
    {
      "inputs": [
        {
          "internalType": "address",
          "name": "user",
          "type": "address"
        },
        {
          "internalType": "uint256",
          "name": "newScore",
          "type": "uint256"
        }
      ],
      "name": "emergencyResetScore",
      "outputs": [],
      "stateMutability": "nonpayable",
      "type": "function"
    },
    {
      "inputs": [
        {
          "internalType": "address",
          "name": "user",
          "type": "address"
        }
      ],
      "name": "getCreditData",
      "outputs": [
        {
          "components": [
            {
              "internalType": "uint256",
              "name": "score",
              "type": "uint256"
            },
            {
              "internalType": "uint256",
              "name": "totalBorrowed",
              "type": "uint256"
            },
            {
              "internalType": "uint256",
              "name": "totalRepaid",
              "type": "uint256"
            },
            {
              "internalType": "uint256",
              "name": "defaultCount",
              "type": "uint256"
            },
            {
              "internalType": "uint256",
              "name": "onTimePayments",
              "type": "uint256"
            },
            {
              "internalType": "uint256",
              "name": "utilizationRate",
              "type": "uint256"
            },
            {
              "internalType": "uint256",
              "name": "lastUpdateBlock",
              "type": "uint256"
            }
          ],
          "internalType": "struct ICreditScoringOracle.CreditData",
          "name": "",
          "type": "tuple"
        }
      ],
      "stateMutability": "view",
      "type": "function"
    },
    {
      "inputs": [
        {
          "internalType": "address",
          "name": "user",
          "type": "address"
        }
      ],
      "name": "getScoreBreakdown",
      "outputs": [
        {
          "internalType": "uint256",
          "name": "paymentHistoryScore",
          "type": "uint256"
        },
        {
          "internalType": "uint256",
          "name": "utilizationScore",
          "type": "uint256"
        },
        {
          "internalType": "uint256",
          "name": "historyLengthScore",
          "type": "uint256"
        },
        {
          "internalType": "uint256",
          "name": "creditMixScore",
          "type": "uint256"
        },
        {
          "internalType": "uint256",
          "name": "totalScore",
          "type": "uint256"
        }
      ],
      "stateMutability": "view",
      "type": "function"
    },
    {
      "inputs": [
        {
          "internalType": "address",
          "name": "user",
          "type": "address"
        }
      ],
      "name": "getUserCreditSummary",
      "outputs": [
        {
          "internalType": "uint256",
          "name": "score",
          "type": "uint256"
        },
        {
          "internalType": "uint256",
          "name": "totalBorrowed",
          "type": "uint256"
        },
        {
          "internalType": "uint256",
          "name": "totalRepaid",
          "type": "uint256"
        },
        {
          "internalType": "uint256",
          "name": "onTimePayments",
          "type": "uint256"
        },
        {
          "internalType": "uint256",
          "name": "defaultCount",
          "type": "uint256"
        },
        {
          "internalType": "uint256",
          "name": "utilizationRate",
          "type": "uint256"
        },
        {
          "internalType": "uint256",
          "name": "accountAge",
          "type": "uint256"
        }
      ],
      "stateMutability": "view",
      "type": "function"
    },
    {
      "inputs": [
        {
          "internalType": "address",
          "name": "user",
          "type": "address"
        },
        {
          "internalType": "uint256",
          "name": "initialScore",
          "type": "uint256"
        },
        {
          "internalType": "uint256",
          "name": "totalBorrowed",
          "type": "uint256"
        },
        {
          "internalType": "uint256",
          "name": "totalRepaid",
          "type": "uint256"
        },
        {
          "internalType": "uint256",
          "name": "onTimePayments",
          "type": "uint256"
        },
        {
          "internalType": "uint256",
          "name": "defaultCount",
          "type": "uint256"
        }
      ],
      "name": "initializeUser",
      "outputs": [],
      "stateMutability": "nonpayable",
      "type": "function"
    },
    {
      "inputs": [
        {
          "internalType": "address",
          "name": "user",
          "type": "address"
        },
        {
          "internalType": "uint256",
          "name": "minimumScore",
          "type": "uint256"
        }
      ],
      "name": "isEligibleForCredit",
      "outputs": [
        {
          "internalType": "bool",
          "name": "",
          "type": "bool"
        }
      ],
      "stateMutability": "view",
      "type": "function"
    },
    {
      "inputs": [],
      "name": "owner",
      "outputs": [
        {
          "internalType": "address",
          "name": "",
          "type": "address"
        }
      ],
      "stateMutability": "view",
      "type": "function"
    },
    {
      "inputs": [],
      "name": "pause",
      "outputs": [],
      "stateMutability": "nonpayable",
      "type": "function"
    },
    {
      "inputs": [],
      "name": "paused",
      "outputs": [
        {
          "internalType": "bool",
          "name": "",
          "type": "bool"
        }
      ],
      "stateMutability": "view",
      "type": "function"
    },
    {
      "inputs": [
        {
          "internalType": "address",
          "name": "updater",
          "type": "address"
        }
      ],
      "name": "removeAuthorizedUpdater",
      "outputs": [],
      "stateMutability": "nonpayable",
      "type": "function"
    },
    {
      "inputs": [],
      "name": "renounceOwnership",
      "outputs": [],
      "stateMutability": "nonpayable",
      "type": "function"
    },
    {
      "inputs": [
        {
          "internalType": "address",
          "name": "user",
          "type": "address"
        },
        {
          "internalType": "uint256",
          "name": "limit",
          "type": "uint256"
        }
      ],
      "name": "setCreditLimit",
      "outputs": [],
      "stateMutability": "nonpayable",
      "type": "function"
    },
    {
      "inputs": [
        {
          "internalType": "address",
          "name": "newOwner",
          "type": "address"
        }
      ],
      "name": "transferOwnership",
      "outputs": [],
      "stateMutability": "nonpayable",
      "type": "function"
    },
    {
      "inputs": [],
      "name": "unpause",
      "outputs": [],
      "stateMutability": "nonpayable",
      "type": "function"
    },
    {
      "inputs": [
        {
          "internalType": "address",
          "name": "user",
          "type": "address"
        },
        {
          "internalType": "enum ICreditScoringOracle.CreditUpdateType",
          "name": "updateType",
          "type": "uint8"
        },
        {
          "internalType": "uint256",
          "name": "value",
          "type": "uint256"
        }
      ],
      "name": "updateCreditMetrics",
      "outputs": [],
      "stateMutability": "nonpayable",
      "type": "function"
    },
    {
      "inputs": [
        {
          "internalType": "address",
          "name": "",
          "type": "address"
        }
      ],
      "name": "userFirstBorrowTime",
      "outputs": [
        {
          "internalType": "uint256",
          "name": "",
          "type": "uint256"
        }
      ],
      "stateMutability": "view",
      "type": "function"
    },
    {
      "inputs": [
        {
          "internalType": "address",
          "name": "",
          "type": "address"
        }
      ],
      "name": "userTotalCreditLimit",
      "outputs": [
        {
          "internalType": "uint256",
          "name": "",
          "type": "uint256"
        }
      ],
      "stateMutability": "view",
      "type": "function"
    }
  ],
  "bytecode": "0x608060405234801561001057600080fd5b5060405161179838038061179883398101604081905261002f916100d8565b806001600160a01b03811661005e57604051631e4fbdf760e01b81526000600482015260240160405180910390fd5b61006781610088565b5050336000908152600260205260409020805460ff19166001179055610108565b600080546001600160a01b038381166001600160a01b0319831681178455604051919092169283917f8be0079c531659141344cd1fd0a4f28419497f9722a3daafe3b4186f6b6457e09190a35050565b6000602082840312156100ea57600080fd5b81516001600160a01b038116811461010157600080fd5b9392505050565b611681806101176000396000f3fe608060405234801561001057600080fd5b50600436106101da5760003560e01c80638456cb5911610104578063b0b6d77b116100a2578063de33037311610071578063de33037314610358578063e4a1512a146104a2578063f1c3753a146104ab578063f2fde38b146104be57600080fd5b8063b0b6d77b1461040f578063c060d0f714610418578063c178fbbc14610438578063d93c40ef1461048257600080fd5b80638f7d02af116100de5780638f7d02af146103b35780638ff29cfe146103c65780639cc13ad5146103e95780639d864dd3146103fc57600080fd5b80638456cb591461037d5780638c9b9fdc146103855780638da5cb5b1461039857600080fd5b80635c975abb1161017c578063715018a61161014b578063715018a61461035057806372ef287f146103585780637899460c14610361578063808af0051461036a57600080fd5b80635c975abb1461030c578063603cda091461032a57806369fdc4481461033d5780636d124c1b1461022c57600080fd5b80633f4ba83a116101b85780633f4ba83a1461027e57806340b892701461028857806349d5034d1461029057806359157a27146102a357600080fd5b806308a54db1146101df57806327ff62231461022c5780632c27750a14610243575b600080fd5b6101f26101ed36600461141e565b6104d1565b604080519788526020880196909652948601939093526060850191909152608084015260a083015260c082015260e0015b60405180910390f35b6102356103e881565b604051908152602001610223565b61025661025136600461141e565b6105bf565b604080519586526020860194909452928401919091526060830152608082015260a001610223565b61028661066a565b005b610235606481565b61028661029e366004611439565b61067c565b6102b66102b136600461141e565b6106ed565b6040516102239190600060e082019050825182526020830151602083015260408301516040830152606083015160608301526080830151608083015260a083015160a083015260c083015160c083015292915050565b600054600160a01b900460ff165b6040519015158152602001610223565b61028661033836600461141e565b610798565b61028661034b366004611439565b6107e9565b61028661089f565b6102356101f481565b610235610fa081565b610286610378366004611463565b6108b1565b610286610b46565b61028661039336600461141e565b610b56565b6000546040516001600160a01b039091168152602001610223565b61031a6103c1366004611439565b610bf2565b61031a6103d436600461141e565b60026020526000908152604090205460ff1681565b6102866103f73660046114a6565b610c09565b61028661040a36600461151b565b610d65565b6102356105dc81565b61023561042636600461141e565b60036020526000908152604090205481565b6101f261044636600461141e565b60016020819052600091825260409091208054918101546002820154600383015460048401546005850154600690950154939492939192909187565b61023561049036600461141e565b60046020526000908152604090205481565b610235610bb881565b6102356104b936600461141e565b610e67565b6102866104cc36600461141e565b610f60565b6001600160a01b0381166000818152600160208181526040808420815160e081018352815481529381015484840152600281015484830152600380820154606086015260048201546080860152600582015460a086015260069091015460c085015294845293905291812054909182918291829182918291829190829061055957600061058b565b6001600160a01b038a166000908152600360205260409020546201518090610581904261157b565b61058b919061158e565b8251602084015160408501516080860151606087015160a090970151939f929e50909c509a50939850965094509092505050565b6001600160a01b0381166000908152600160208181526040808420815160e0810183528154815293810154928401929092526002820154908301526003810154606083015260048101546080830152600581015460a08301526006015460c0820152819081908190819061063281610f9e565b955061063d8161102e565b945061064887611093565b935061065381611131565b925061065e87610e67565b91505091939590929450565b610672611194565b61067a6111c1565b565b3360009081526002602052604090205460ff166106d15760405162461bcd60e51b815260206004820152600e60248201526d139bdd08185d5d1a1bdc9a5e995960921b60448201526064015b60405180910390fd5b6001600160a01b03909116600090815260046020526040902055565b61072d6040518060e00160405280600081526020016000815260200160008152602001600081526020016000815260200160008152602001600081525090565b506001600160a01b0316600090815260016020818152604092839020835160e0810185528154815292810154918301919091526002810154928201929092526003820154606082015260048201546080820152600582015460a082015260069091015460c082015290565b6107a0611194565b6001600160a01b038116600081815260026020526040808220805460ff19169055517f50ae3647b181b6195683f16a0c98a3cd7ddc63732465548bc2e4cc18d44c629a9190a250565b6107f1611194565b6064811015801561080457506103e88111155b6108405760405162461bcd60e51b815260206004820152600d60248201526c496e76616c69642073636f726560981b60448201526064016106c8565b6001600160a01b038216600081815260016020908152604091829020805490859055825181815291820185905292917f4f43648f37bc26ee5bc39c60c1c1e2481a9fb9feb9f86419c91b4645585ff3bc910160405180910390a2505050565b6108a7611194565b61067a6000611216565b3360009081526002602052604090205460ff166109015760405162461bcd60e51b815260206004820152600e60248201526d139bdd08185d5d1a1bdc9a5e995960921b60448201526064016106c8565b610909611266565b6001600160a01b0383166000908152600160205260408120600681015490910361094e576101f481556001600160a01b03841660009081526003602052604090204290555b80546000846004811115610964576109646115b0565b036109aa5760048201805490600061097b836115c6565b91905055508282600201600082825461099491906115df565b909155506109a5905082600a611291565b610a9d565b60018460048111156109be576109be6115b0565b036109e857828260020160008282546109d791906115df565b909155506109a590508260146112c3565b60028460048111156109fc576109fc6115b0565b03610a2357600382018054906000610a13836115c6565b91905055506109a58260646112c3565b6003846004811115610a3757610a376115b0565b03610a605782826001016000828254610a5091906115df565b909155506109a5905085836112df565b6004846004811115610a7457610a746115b0565b03610a9d5782826002016000828254610a8d91906115df565b90915550610a9d905085836112df565b436006830155610aac85610e67565b82556040516001600160a01b038616907f6aa5de0462aa970ff64e4cb8e9721f32da9ce24cc8b63da73f915610b085c33390610aeb90879087906115f2565b60405180910390a281546040516001600160a01b038716917f4f43648f37bc26ee5bc39c60c1c1e2481a9fb9feb9f86419c91b4645585ff3bc91610b3791858252602082015260400190565b60405180910390a25050505050565b610b4e611194565b61067a611348565b610b5e611194565b6001600160a01b038116610ba65760405162461bcd60e51b815260206004820152600f60248201526e496e76616c6964206164647265737360881b60448201526064016106c8565b6001600160a01b038116600081815260026020526040808220805460ff19166001179055517f8a27c0070669c9f3e29362f9995acce0b920c672f3239bc925a45b5a92a851ca9190a250565b600081610bfe84610e67565b101590505b92915050565b610c11611194565b60005b81811015610d6057600060016000858585818110610c3457610c3461161e565b9050602002016020810190610c49919061141e565b6001600160a01b0316815260208101919091526040016000908120549150610c91858585818110610c7c57610c7c61161e565b90506020020160208101906104b9919061141e565b90508060016000878787818110610caa57610caa61161e565b9050602002016020810190610cbf919061141e565b6001600160a01b03168152602081019190915260400160002055848484818110610ceb57610ceb61161e565b9050602002016020810190610d00919061141e565b6001600160a01b03167f4f43648f37bc26ee5bc39c60c1c1e2481a9fb9feb9f86419c91b4645585ff3bc8383604051610d43929190918252602082015260400190565b60405180910390a250508080610d58906115c6565b915050610c14565b505050565b610d6d611194565b6001600160a01b03861660009081526001602052604090206006015415610dd65760405162461bcd60e51b815260206004820152601860248201527f5573657220616c726561647920696e697469616c697a6564000000000000000060448201526064016106c8565b6040805160e08101825295865260208087019586528682019485526060870192835260808701938452600060a088018181524360c08a019081526001600160a01b03909a168252600180845284832099518a55975197890197909755945160028801559151600380880191909155925160048701559351600586015594516006909401939093559190925220429055565b6001600160a01b0381166000908152600160208181526040808420815160e0810183528154815293810154928401929092526002820154908301526003810154606083015260048101546080830152600581015460a08301526006015460c082018190528203610edb57506101f492915050565b6000610ee682610f9e565b610ef090826115df565b9050610efb8261102e565b610f0590826115df565b9050610f1084611093565b610f1a90826115df565b9050610f2582611131565b610f2f90826115df565b9050610f3b828261138b565b90506103e8811115610f4c57506103e85b6064811015610f59575060645b9392505050565b610f68611194565b6001600160a01b038116610f9257604051631e4fbdf760e01b8152600060048201526024016106c8565b610f9b81611216565b50565b600081606001518260800151610fb491906115df565b600003610fd657612710610fcc610fa06101f4611634565b610c03919061158e565b600082606001518360800151610fec91906115df565b9050600081846080015160646110029190611634565b61100c919061158e565b9050606461101c610fa083611634565b611026919061158e565b949350505050565b6000601e8260a00151116110455750610bb8919050565b60468260a001511161108b5760006028610bb8601e8560a00151611069919061157b565b6110739190611634565b61107d919061158e565b9050610f5981610bb861157b565b506000919050565b6001600160a01b03811660009081526003602052604081205481036110ba57506000919050565b6001600160a01b03821660009081526003602052604081205462278d00906110e2904261157b565b6110ec919061158e565b9050806000036110ff5750600092915050565b6000601882116111265760186111176105dc84611634565b611121919061158e565b611026565b6105dc949350505050565b6000816020015160000361114757506000919050565b600069152d02c7e14af680000083602001511161118a5769152d02c7e14af68000006103e8846020015161117b9190611634565b611185919061158e565b610f59565b6103e89392505050565b6000546001600160a01b0316331461067a5760405163118cdaa760e01b81523360048201526024016106c8565b6111c96113d8565b6000805460ff60a01b191690557f5db9ee0a495bf2e6ff9c91a7834c1ba4fdd244a5e8aa4e537bd38aeae4b073aa335b6040516001600160a01b03909116815260200160405180910390a1565b600080546001600160a01b038381166001600160a01b0319831681178455604051919092169283917f8be0079c531659141344cd1fd0a4f28419497f9722a3daafe3b4186f6b6457e09190a35050565b600054600160a01b900460ff161561067a5760405163d93c066560e01b815260040160405180910390fd5b81546103e8906112a29083906115df565b116112b95781546112b49082906115df565b6112bd565b6103e85b90915550565b815481106112d25760646112bd565b81546112bd90829061157b565b6001600160a01b0382166000908152600460205260408120549081900361130c5750600060059091015550565b600082600201548360010154611322919061157b565b905081611330826064611634565b61133a919061158e565b836005018190555050505050565b611350611266565b6000805460ff60a01b1916600160a01b1790557f62e78cea01bee320cd4e420270b5ea74000d11b0c9f74754ebdbfc544b05a2586111f93390565b600082606001516000036113a0575080610c03565b60006113af600a6101f461158e565b84606001516113be9190611634565b90508083116113ce576064611026565b611026818461157b565b600054600160a01b900460ff1661067a57604051638dfc202b60e01b815260040160405180910390fd5b80356001600160a01b038116811461141957600080fd5b919050565b60006020828403121561143057600080fd5b610f5982611402565b6000806040838503121561144c57600080fd5b61145583611402565b946020939093013593505050565b60008060006060848603121561147857600080fd5b61148184611402565b925060208401356005811061149557600080fd5b929592945050506040919091013590565b600080602083850312156114b957600080fd5b823567ffffffffffffffff808211156114d157600080fd5b818501915085601f8301126114e557600080fd5b8135818111156114f457600080fd5b8660208260051b850101111561150957600080fd5b60209290920196919550909350505050565b60008060008060008060c0878903121561153457600080fd5b61153d87611402565b9860208801359850604088013597606081013597506080810135965060a00135945092505050565b634e487b7160e01b600052601160045260246000fd5b81810381811115610c0357610c03611565565b6000826115ab57634e487b7160e01b600052601260045260246000fd5b500490565b634e487b7160e01b600052602160045260246000fd5b6000600182016115d8576115d8611565565b5060010190565b80820180821115610c0357610c03611565565b604081016005841061161457634e487b7160e01b600052602160045260246000fd5b9281526020015290565b634e487b7160e01b600052603260045260246000fd5b8082028115828204841417610c0357610c0361156556fea2646970667358221220046e38a0b814a53683db247ca47deefd20b8bb80e6d0acb85fa2bfcc1e4213cf64736f6c63430008140033",
  "linkReferences": {},
  "deployedLinkReferences": {}
}