{"contracts/CreditScoringOracle.sol":{"CreditScoringOracle":{"abi":[{"inputs":[{"internalType":"address","name":"_owner","type":"address"}],"stateMutability":"nonpayable","type":"constructor"},{"inputs":[],"name":"EnforcedPause","type":"error"},{"inputs":[],"name":"ExpectedPause","type":"error"},{"inputs":[{"internalType":"address","name":"owner","type":"address"}],"name":"OwnableInvalidOwner","type":"error"},{"inputs":[{"internalType":"address","name":"account","type":"address"}],"name":"OwnableUnauthorizedAccount","type":"error"},{"anonymous":false,"inputs":[{"indexed":true,"internalType":"address","name":"updater","type":"address"}],"name":"AuthorizedUpdaterAdded","type":"event"},{"anonymous":false,"inputs":[{"indexed":true,"internalType":"address","name":"updater","type":"address"}],"name":"AuthorizedUpdaterRemoved","type":"event"},{"anonymous":false,"inputs":[{"indexed":true,"internalType":"address","name":"user","type":"address"},{"indexed":false,"internalType":"enum ICreditScoringOracle.CreditUpdateType","name":"updateType","type":"uint8"},{"indexed":false,"internalType":"uint256","name":"value","type":"uint256"}],"name":"CreditMetricsUpdated","type":"event"},{"anonymous":false,"inputs":[{"indexed":true,"internalType":"address","name":"user","type":"address"},{"indexed":false,"internalType":"uint256","name":"oldScore","type":"uint256"},{"indexed":false,"internalType":"uint256","name":"newScore","type":"uint256"}],"name":"CreditScoreUpdated","type":"event"},{"anonymous":false,"inputs":[{"indexed":true,"internalType":"address","name":"previousOwner","type":"address"},{"indexed":true,"internalType":"address","name":"newOwner","type":"address"}],"name":"OwnershipTransferred","type":"event"},{"anonymous":false,"inputs":[{"indexed":false,"internalType":"address","name":"account","type":"address"}],"name":"Paused","type":"event"},{"anonymous":false,"inputs":[{"indexed":false,"internalType":"address","name":"account","type":"address"}],"name":"Unpaused","type":"event"},{"inputs":[],"name":"CREDIT_MIX_WEIGHT","outputs":[{"internalType":"uint256","name":"","type":"uint256"}],"stateMutability":"view","type":"function"},{"inputs":[],"name":"DEFAULT_PENALTY_WEIGHT","outputs":[{"internalType":"uint256","name":"","type":"uint256"}],"stateMutability":"view","type":"function"},{"inputs":[],"name":"HISTORY_LENGTH_WEIGHT","outputs":[{"internalType":"uint256","name":"","type":"uint256"}],"stateMutability":"view","type":"function"},{"inputs":[],"name":"INITIAL_SCORE","outputs":[{"internalType":"uint256","name":"","type":"uint256"}],"stateMutability":"view","type":"function"},{"inputs":[],"name":"MAX_SCORE","outputs":[{"internalType":"uint256","name":"","type":"uint256"}],"stateMutability":"view","type":"function"},{"inputs":[],"name":"MIN_SCORE","outputs":[{"internalType":"uint256","name":"","type":"uint256"}],"stateMutability":"view","type":"function"},{"inputs":[],"name":"PAYMENT_HISTORY_WEIGHT","outputs":[{"internalType":"uint256","name":"","type":"uint256"}],"stateMutability":"view","type":"function"},{"inputs":[],"name":"UTILIZATION_WEIGHT","outputs":[{"internalType":"uint256","name":"","type":"uint256"}],"stateMutability":"view","type":"function"},{"inputs":[{"internalType":"address","name":"updater","type":"address"}],"name":"addAuthorizedUpdater","outputs":[],"stateMutability":"nonpayable","type":"function"},{"inputs":[{"internalType":"address","name":"","type":"address"}],"name":"authorizedUpdaters","outputs":[{"internalType":"bool","name":"","type":"bool"}],"stateMutability":"view","type":"function"},{"inputs":[{"internalType":"address[]","name":"users","type":"address[]"}],"name":"batchUpdateScores","outputs":[],"stateMutability":"nonpayable","type":"function"},{"inputs":[{"internalType":"address","name":"user","type":"address"}],"name":"calculateCreditScore","outputs":[{"internalType":"uint256","name":"","type":"uint256"}],"stateMutability":"view","type":"function"},{"inputs":[{"internalType":"address","name":"","type":"address"}],"name":"creditHistory","outputs":[{"internalType":"uint256","name":"score","type":"uint256"},{"internalType":"uint256","name":"totalBorrowed","type":"uint256"},{"internalType":"uint256","name":"totalRepaid","type":"uint256"},{"internalType":"uint256","name":"defaultCount","type":"uint256"},{"internalType":"uint256","name":"onTimePayments","type":"uint256"},{"internalType":"uint256","name":"utilizationRate","type":"uint256"},{"internalType":"uint256","name":"lastUpdateBlock","type":"uint256"}],"stateMutability":"view","type":"function"},{"inputs":[{"internalType":"address","name":"user","type":"address"},{"internalType":"uint256","name":"newScore","type":"uint256"}],"name":"emergencyResetScore","outputs":[],"stateMutability":"nonpayable","type":"function"},{"inputs":[{"internalType":"address","name":"user","type":"address"}],"name":"getCreditData","outputs":[{"components":[{"internalType":"uint256","name":"score","type":"uint256"},{"internalType":"uint256","name":"totalBorrowed","type":"uint256"},{"internalType":"uint256","name":"totalRepaid","type":"uint256"},{"internalType":"uint256","name":"defaultCount","type":"uint256"},{"internalType":"uint256","name":"onTimePayments","type":"uint256"},{"internalType":"uint256","name":"utilizationRate","type":"uint256"},{"internalType":"uint256","name":"lastUpdateBlock","type":"uint256"}],"internalType":"struct ICreditScoringOracle.CreditData","name":"","type":"tuple"}],"stateMutability":"view","type":"function"},{"inputs":[{"internalType":"address","name":"user","type":"address"}],"name":"getScoreBreakdown","outputs":[{"internalType":"uint256","name":"paymentHistoryScore","type":"uint256"},{"internalType":"uint256","name":"utilizationScore","type":"uint256"},{"internalType":"uint256","name":"historyLengthScore","type":"uint256"},{"internalType":"uint256","name":"creditMixScore","type":"uint256"},{"internalType":"uint256","name":"totalScore","type":"uint256"}],"stateMutability":"view","type":"function"},{"inputs":[{"internalType":"address","name":"user","type":"address"}],"name":"getUserCreditSummary","outputs":[{"internalType":"uint256","name":"score","type":"uint256"},{"internalType":"uint256","name":"totalBorrowed","type":"uint256"},{"internalType":"uint256","name":"totalRepaid","type":"uint256"},{"internalType":"uint256","name":"onTimePayments","type":"uint256"},{"internalType":"uint256","name":"defaultCount","type":"uint256"},{"internalType":"uint256","name":"utilizationRate","type":"uint256"},{"internalType":"uint256","name":"accountAge","type":"uint256"}],"stateMutability":"view","type":"function"},{"inputs":[{"internalType":"address","name":"user","type":"address"},{"internalType":"uint256","name":"initialScore","type":"uint256"},{"internalType":"uint256","name":"totalBorrowed","type":"uint256"},{"internalType":"uint256","name":"totalRepaid","type":"uint256"},{"internalType":"uint256","name":"onTimePayments","type":"uint256"},{"internalType":"uint256","name":"defaultCount","type":"uint256"}],"name":"initializeUser","outputs":[],"stateMutability":"nonpayable","type":"function"},{"inputs":[{"internalType":"address","name":"user","type":"address"},{"internalType":"uint256","name":"minimumScore","type":"uint256"}],"name":"isEligibleForCredit","outputs":[{"internalType":"bool","name":"","type":"bool"}],"stateMutability":"view","type":"function"},{"inputs":[],"name":"owner","outputs":[{"internalType":"address","name":"","type":"address"}],"stateMutability":"view","type":"function"},{"inputs":[],"name":"pause","outputs":[],"stateMutability":"nonpayable","type":"function"},{"inputs":[],"name":"paused","outputs":[{"internalType":"bool","name":"","type":"bool"}],"stateMutability":"view","type":"function"},{"inputs":[{"internalType":"address","name":"updater","type":"address"}],"name":"removeAuthorizedUpdater","outputs":[],"stateMutability":"nonpayable","type":"function"},{"inputs":[],"name":"renounceOwnership","outputs":[],"stateMutability":"nonpayable","type":"function"},{"inputs":[{"internalType":"address","name":"user","type":"address"},{"internalType":"uint256","name":"limit","type":"uint256"}],"name":"setCreditLimit","outputs":[],"stateMutability":"nonpayable","type":"function"},{"inputs":[{"internalType":"address","name":"newOwner","type":"address"}],"name":"transferOwnership","outputs":[],"stateMutability":"nonpayable","type":"function"},{"inputs":[],"name":"unpause","outputs":[],"stateMutability":"nonpayable","type":"function"},{"inputs":[{"internalType":"address","name":"user","type":"address"},{"internalType":"enum ICreditScoringOracle.CreditUpdateType","name":"updateType","type":"uint8"},{"internalType":"uint256","name":"value","type":"uint256"}],"name":"updateCreditMetrics","outputs":[],"stateMutability":"nonpayable","type":"function"},{"inputs":[{"internalType":"address","name":"","type":"address"}],"name":"userFirstBorrowTime","outputs":[{"internalType":"uint256","name":"","type":"uint256"}],"stateMutability":"view","type":"function"},{"inputs":[{"internalType":"address","name":"","type":"address"}],"name":"userTotalCreditLimit","outputs":[{"internalType":"uint256","name":"","type":"uint256"}],"stateMutability":"view","type":"function"}],"evm":{"bytecode":{"linkReferences":{},"object":"608060405234801561001057600080fd5b5060405161179838038061179883398101604081905261002f916100d8565b806001600160a01b03811661005e57604051631e4fbdf760e01b81526000600482015260240160405180910390fd5b61006781610088565b5050336000908152600260205260409020805460ff19166001179055610108565b600080546001600160a01b038381166001600160a01b0319831681178455604051919092169283917f8be0079c531659141344cd1fd0a4f28419497f9722a3daafe3b4186f6b6457e09190a35050565b6000602082840312156100ea57600080fd5b81516001600160a01b038116811461010157600080fd5b9392505050565b611681806101176000396000f3fe608060405234801561001057600080fd5b50600436106101da5760003560e01c80638456cb5911610104578063b0b6d77b116100a2578063de33037311610071578063de33037314610358578063e4a1512a146104a2578063f1c3753a146104ab578063f2fde38b146104be57600080fd5b8063b0b6d77b1461040f578063c060d0f714610418578063c178fbbc14610438578063d93c40ef1461048257600080fd5b80638f7d02af116100de5780638f7d02af146103b35780638ff29cfe146103c65780639cc13ad5146103e95780639d864dd3146103fc57600080fd5b80638456cb591461037d5780638c9b9fdc146103855780638da5cb5b1461039857600080fd5b80635c975abb1161017c578063715018a61161014b578063715018a61461035057806372ef287f146103585780637899460c14610361578063808af0051461036a57600080fd5b80635c975abb1461030c578063603cda091461032a57806369fdc4481461033d5780636d124c1b1461022c57600080fd5b80633f4ba83a116101b85780633f4ba83a1461027e57806340b892701461028857806349d5034d1461029057806359157a27146102a357600080fd5b806308a54db1146101df57806327ff62231461022c5780632c27750a14610243575b600080fd5b6101f26101ed36600461141e565b6104d1565b604080519788526020880196909652948601939093526060850191909152608084015260a083015260c082015260e0015b60405180910390f35b6102356103e881565b604051908152602001610223565b61025661025136600461141e565b6105bf565b604080519586526020860194909452928401919091526060830152608082015260a001610223565b61028661066a565b005b610235606481565b61028661029e366004611439565b61067c565b6102b66102b136600461141e565b6106ed565b6040516102239190600060e082019050825182526020830151602083015260408301516040830152606083015160608301526080830151608083015260a083015160a083015260c083015160c083015292915050565b600054600160a01b900460ff165b6040519015158152602001610223565b61028661033836600461141e565b610798565b61028661034b366004611439565b6107e9565b61028661089f565b6102356101f481565b610235610fa081565b610286610378366004611463565b6108b1565b610286610b46565b61028661039336600461141e565b610b56565b6000546040516001600160a01b039091168152602001610223565b61031a6103c1366004611439565b610bf2565b61031a6103d436600461141e565b60026020526000908152604090205460ff1681565b6102866103f73660046114a6565b610c09565b61028661040a36600461151b565b610d65565b6102356105dc81565b61023561042636600461141e565b60036020526000908152604090205481565b6101f261044636600461141e565b60016020819052600091825260409091208054918101546002820154600383015460048401546005850154600690950154939492939192909187565b61023561049036600461141e565b60046020526000908152604090205481565b610235610bb881565b6102356104b936600461141e565b610e67565b6102866104cc36600461141e565b610f60565b6001600160a01b0381166000818152600160208181526040808420815160e081018352815481529381015484840152600281015484830152600380820154606086015260048201546080860152600582015460a086015260069091015460c085015294845293905291812054909182918291829182918291829190829061055957600061058b565b6001600160a01b038a166000908152600360205260409020546201518090610581904261157b565b61058b919061158e565b8251602084015160408501516080860151606087015160a090970151939f929e50909c509a50939850965094509092505050565b6001600160a01b0381166000908152600160208181526040808420815160e0810183528154815293810154928401929092526002820154908301526003810154606083015260048101546080830152600581015460a08301526006015460c0820152819081908190819061063281610f9e565b955061063d8161102e565b945061064887611093565b935061065381611131565b925061065e87610e67565b91505091939590929450565b610672611194565b61067a6111c1565b565b3360009081526002602052604090205460ff166106d15760405162461bcd60e51b815260206004820152600e60248201526d139bdd08185d5d1a1bdc9a5e995960921b60448201526064015b60405180910390fd5b6001600160a01b03909116600090815260046020526040902055565b61072d6040518060e00160405280600081526020016000815260200160008152602001600081526020016000815260200160008152602001600081525090565b506001600160a01b0316600090815260016020818152604092839020835160e0810185528154815292810154918301919091526002810154928201929092526003820154606082015260048201546080820152600582015460a082015260069091015460c082015290565b6107a0611194565b6001600160a01b038116600081815260026020526040808220805460ff19169055517f50ae3647b181b6195683f16a0c98a3cd7ddc63732465548bc2e4cc18d44c629a9190a250565b6107f1611194565b6064811015801561080457506103e88111155b6108405760405162461bcd60e51b815260206004820152600d60248201526c496e76616c69642073636f726560981b60448201526064016106c8565b6001600160a01b038216600081815260016020908152604091829020805490859055825181815291820185905292917f4f43648f37bc26ee5bc39c60c1c1e2481a9fb9feb9f86419c91b4645585ff3bc910160405180910390a2505050565b6108a7611194565b61067a6000611216565b3360009081526002602052604090205460ff166109015760405162461bcd60e51b815260206004820152600e60248201526d139bdd08185d5d1a1bdc9a5e995960921b60448201526064016106c8565b610909611266565b6001600160a01b0383166000908152600160205260408120600681015490910361094e576101f481556001600160a01b03841660009081526003602052604090204290555b80546000846004811115610964576109646115b0565b036109aa5760048201805490600061097b836115c6565b91905055508282600201600082825461099491906115df565b909155506109a5905082600a611291565b610a9d565b60018460048111156109be576109be6115b0565b036109e857828260020160008282546109d791906115df565b909155506109a590508260146112c3565b60028460048111156109fc576109fc6115b0565b03610a2357600382018054906000610a13836115c6565b91905055506109a58260646112c3565b6003846004811115610a3757610a376115b0565b03610a605782826001016000828254610a5091906115df565b909155506109a5905085836112df565b6004846004811115610a7457610a746115b0565b03610a9d5782826002016000828254610a8d91906115df565b90915550610a9d905085836112df565b436006830155610aac85610e67565b82556040516001600160a01b038616907f6aa5de0462aa970ff64e4cb8e9721f32da9ce24cc8b63da73f915610b085c33390610aeb90879087906115f2565b60405180910390a281546040516001600160a01b038716917f4f43648f37bc26ee5bc39c60c1c1e2481a9fb9feb9f86419c91b4645585ff3bc91610b3791858252602082015260400190565b60405180910390a25050505050565b610b4e611194565b61067a611348565b610b5e611194565b6001600160a01b038116610ba65760405162461bcd60e51b815260206004820152600f60248201526e496e76616c6964206164647265737360881b60448201526064016106c8565b6001600160a01b038116600081815260026020526040808220805460ff19166001179055517f8a27c0070669c9f3e29362f9995acce0b920c672f3239bc925a45b5a92a851ca9190a250565b600081610bfe84610e67565b101590505b92915050565b610c11611194565b60005b81811015610d6057600060016000858585818110610c3457610c3461161e565b9050602002016020810190610c49919061141e565b6001600160a01b0316815260208101919091526040016000908120549150610c91858585818110610c7c57610c7c61161e565b90506020020160208101906104b9919061141e565b90508060016000878787818110610caa57610caa61161e565b9050602002016020810190610cbf919061141e565b6001600160a01b03168152602081019190915260400160002055848484818110610ceb57610ceb61161e565b9050602002016020810190610d00919061141e565b6001600160a01b03167f4f43648f37bc26ee5bc39c60c1c1e2481a9fb9feb9f86419c91b4645585ff3bc8383604051610d43929190918252602082015260400190565b60405180910390a250508080610d58906115c6565b915050610c14565b505050565b610d6d611194565b6001600160a01b03861660009081526001602052604090206006015415610dd65760405162461bcd60e51b815260206004820152601860248201527f5573657220616c726561647920696e697469616c697a6564000000000000000060448201526064016106c8565b6040805160e08101825295865260208087019586528682019485526060870192835260808701938452600060a088018181524360c08a019081526001600160a01b03909a168252600180845284832099518a55975197890197909755945160028801559151600380880191909155925160048701559351600586015594516006909401939093559190925220429055565b6001600160a01b0381166000908152600160208181526040808420815160e0810183528154815293810154928401929092526002820154908301526003810154606083015260048101546080830152600581015460a08301526006015460c082018190528203610edb57506101f492915050565b6000610ee682610f9e565b610ef090826115df565b9050610efb8261102e565b610f0590826115df565b9050610f1084611093565b610f1a90826115df565b9050610f2582611131565b610f2f90826115df565b9050610f3b828261138b565b90506103e8811115610f4c57506103e85b6064811015610f59575060645b9392505050565b610f68611194565b6001600160a01b038116610f9257604051631e4fbdf760e01b8152600060048201526024016106c8565b610f9b81611216565b50565b600081606001518260800151610fb491906115df565b600003610fd657612710610fcc610fa06101f4611634565b610c03919061158e565b600082606001518360800151610fec91906115df565b9050600081846080015160646110029190611634565b61100c919061158e565b9050606461101c610fa083611634565b611026919061158e565b949350505050565b6000601e8260a00151116110455750610bb8919050565b60468260a001511161108b5760006028610bb8601e8560a00151611069919061157b565b6110739190611634565b61107d919061158e565b9050610f5981610bb861157b565b506000919050565b6001600160a01b03811660009081526003602052604081205481036110ba57506000919050565b6001600160a01b03821660009081526003602052604081205462278d00906110e2904261157b565b6110ec919061158e565b9050806000036110ff5750600092915050565b6000601882116111265760186111176105dc84611634565b611121919061158e565b611026565b6105dc949350505050565b6000816020015160000361114757506000919050565b600069152d02c7e14af680000083602001511161118a5769152d02c7e14af68000006103e8846020015161117b9190611634565b611185919061158e565b610f59565b6103e89392505050565b6000546001600160a01b0316331461067a5760405163118cdaa760e01b81523360048201526024016106c8565b6111c96113d8565b6000805460ff60a01b191690557f5db9ee0a495bf2e6ff9c91a7834c1ba4fdd244a5e8aa4e537bd38aeae4b073aa335b6040516001600160a01b03909116815260200160405180910390a1565b600080546001600160a01b038381166001600160a01b0319831681178455604051919092169283917f8be0079c531659141344cd1fd0a4f28419497f9722a3daafe3b4186f6b6457e09190a35050565b600054600160a01b900460ff161561067a5760405163d93c066560e01b815260040160405180910390fd5b81546103e8906112a29083906115df565b116112b95781546112b49082906115df565b6112bd565b6103e85b90915550565b815481106112d25760646112bd565b81546112bd90829061157b565b6001600160a01b0382166000908152600460205260408120549081900361130c5750600060059091015550565b600082600201548360010154611322919061157b565b905081611330826064611634565b61133a919061158e565b836005018190555050505050565b611350611266565b6000805460ff60a01b1916600160a01b1790557f62e78cea01bee320cd4e420270b5ea74000d11b0c9f74754ebdbfc544b05a2586111f93390565b600082606001516000036113a0575080610c03565b60006113af600a6101f461158e565b84606001516113be9190611634565b90508083116113ce576064611026565b611026818461157b565b600054600160a01b900460ff1661067a57604051638dfc202b60e01b815260040160405180910390fd5b80356001600160a01b038116811461141957600080fd5b919050565b60006020828403121561143057600080fd5b610f5982611402565b6000806040838503121561144c57600080fd5b61145583611402565b946020939093013593505050565b60008060006060848603121561147857600080fd5b61148184611402565b925060208401356005811061149557600080fd5b929592945050506040919091013590565b600080602083850312156114b957600080fd5b823567ffffffffffffffff808211156114d157600080fd5b818501915085601f8301126114e557600080fd5b8135818111156114f457600080fd5b8660208260051b850101111561150957600080fd5b60209290920196919550909350505050565b60008060008060008060c0878903121561153457600080fd5b61153d87611402565b9860208801359850604088013597606081013597506080810135965060a00135945092505050565b634e487b7160e01b600052601160045260246000fd5b81810381811115610c0357610c03611565565b6000826115ab57634e487b7160e01b600052601260045260246000fd5b500490565b634e487b7160e01b600052602160045260246000fd5b6000600182016115d8576115d8611565565b5060010190565b80820180821115610c0357610c03611565565b604081016005841061161457634e487b7160e01b600052602160045260246000fd5b9281526020015290565b634e487b7160e01b600052603260045260246000fd5b8082028115828204841417610c0357610c0361156556fea2646970667358221220046e38a0b814a53683db247ca47deefd20b8bb80e6d0acb85fa2bfcc1e4213cf64736f6c63430008140033","opcodes":"PUSH1 0x80 PUSH1 0x40 MSTORE CALLVALUE DUP1 ISZERO PUSH2 0x10 JUMPI PUSH1 0x0 DUP1 REVERT JUMPDEST POP PUSH1 0x40 MLOAD PUSH2 0x1798 CODESIZE SUB DUP1 PUSH2 0x1798 DUP4 CODECOPY DUP2 ADD PUSH1 0x40 DUP2 SWAP1 MSTORE PUSH2 0x2F SWAP2 PUSH2 0xD8 JUMP JUMPDEST DUP1 PUSH1 0x1 PUSH1 0x1 PUSH1 0xA0 SHL SUB DUP2 AND PUSH2 0x5E JUMPI PUSH1 0x40 MLOAD PUSH4 0x1E4FBDF7 PUSH1 0xE0 SHL DUP2 MSTORE PUSH1 0x0 PUSH1 0x4 DUP3 ADD MSTORE PUSH1 0x24 ADD PUSH1 0x40 MLOAD DUP1 SWAP2 SUB SWAP1 REVERT JUMPDEST PUSH2 0x67 DUP2 PUSH2 0x88 JUMP JUMPDEST POP POP CALLER PUSH1 0x0 SWAP1 DUP2 MSTORE PUSH1 0x2 PUSH1 0x20 MSTORE PUSH1 0x40 SWAP1 KECCAK256 DUP1 SLOAD PUSH1 0xFF NOT AND PUSH1 0x1 OR SWAP1 SSTORE PUSH2 0x108 JUMP JUMPDEST PUSH1 0x0 DUP1 SLOAD PUSH1 0x1 PUSH1 0x1 PUSH1 0xA0 SHL SUB DUP4 DUP2 AND PUSH1 0x1 PUSH1 0x1 PUSH1 0xA0 SHL SUB NOT DUP4 AND DUP2 OR DUP5 SSTORE PUSH1 0x40 MLOAD SWAP2 SWAP1 SWAP3 AND SWAP3 DUP4 SWAP2 PUSH32 0x8BE0079C531659141344CD1FD0A4F28419497F9722A3DAAFE3B4186F6B6457E0 SWAP2 SWAP1 LOG3 POP POP JUMP JUMPDEST PUSH1 0x0 PUSH1 0x20 DUP3 DUP5 SUB SLT ISZERO PUSH2 0xEA JUMPI PUSH1 0x0 DUP1 REVERT JUMPDEST DUP2 MLOAD PUSH1 0x1 PUSH1 0x1 PUSH1 0xA0 SHL SUB DUP2 AND DUP2 EQ PUSH2 0x101 JUMPI PUSH1 0x0 DUP1 REVERT JUMPDEST SWAP4 SWAP3 POP POP POP JUMP JUMPDEST PUSH2 0x1681 DUP1 PUSH2 0x117 PUSH1 0x0 CODECOPY PUSH1 0x0 RETURN INVALID PUSH1 0x80 PUSH1 0x40 MSTORE CALLVALUE DUP1 ISZERO PUSH2 0x10 JUMPI PUSH1 0x0 DUP1 REVERT JUMPDEST POP PUSH1 0x4 CALLDATASIZE LT PUSH2 0x1DA JUMPI PUSH1 0x0 CALLDATALOAD PUSH1 0xE0 SHR DUP1 PUSH4 0x8456CB59 GT PUSH2 0x104 JUMPI DUP1 PUSH4 0xB0B6D77B GT PUSH2 0xA2 JUMPI DUP1 PUSH4 0xDE330373 GT PUSH2 0x71 JUMPI DUP1 PUSH4 0xDE330373 EQ PUSH2 0x358 JUMPI DUP1 PUSH4 0xE4A1512A EQ PUSH2 0x4A2 JUMPI DUP1 PUSH4 0xF1C3753A EQ PUSH2 0x4AB JUMPI DUP1 PUSH4 0xF2FDE38B EQ PUSH2 0x4BE JUMPI PUSH1 0x0 DUP1 REVERT JUMPDEST DUP1 PUSH4 0xB0B6D77B EQ PUSH2 0x40F JUMPI DUP1 PUSH4 0xC060D0F7 EQ PUSH2 0x418 JUMPI DUP1 PUSH4 0xC178FBBC EQ PUSH2 0x438 JUMPI DUP1 PUSH4 0xD93C40EF EQ PUSH2 0x482 JUMPI PUSH1 0x0 DUP1 REVERT JUMPDEST DUP1 PUSH4 0x8F7D02AF GT PUSH2 0xDE JUMPI DUP1 PUSH4 0x8F7D02AF EQ PUSH2 0x3B3 JUMPI DUP1 PUSH4 0x8FF29CFE EQ PUSH2 0x3C6 JUMPI DUP1 PUSH4 0x9CC13AD5 EQ PUSH2 0x3E9 JUMPI DUP1 PUSH4 0x9D864DD3 EQ PUSH2 0x3FC JUMPI PUSH1 0x0 DUP1 REVERT JUMPDEST DUP1 PUSH4 0x8456CB59 EQ PUSH2 0x37D JUMPI DUP1 PUSH4 0x8C9B9FDC EQ PUSH2 0x385 JUMPI DUP1 PUSH4 0x8DA5CB5B EQ PUSH2 0x398 JUMPI PUSH1 0x0 DUP1 REVERT JUMPDEST DUP1 PUSH4 0x5C975ABB GT PUSH2 0x17C JUMPI DUP1 PUSH4 0x715018A6 GT PUSH2 0x14B JUMPI DUP1 PUSH4 0x715018A6 EQ PUSH2 0x350 JUMPI DUP1 PUSH4 0x72EF287F EQ PUSH2 0x358 JUMPI DUP1 PUSH4 0x7899460C EQ PUSH2 0x361 JUMPI DUP1 PUSH4 0x808AF005 EQ PUSH2 0x36A JUMPI PUSH1 0x0 DUP1 REVERT JUMPDEST DUP1 PUSH4 0x5C975ABB EQ PUSH2 0x30C JUMPI DUP1 PUSH4 0x603CDA09 EQ PUSH2 0x32A JUMPI DUP1 PUSH4 0x69FDC448 EQ PUSH2 0x33D JUMPI DUP1 PUSH4 0x6D124C1B EQ PUSH2 0x22C JUMPI PUSH1 0x0 DUP1 REVERT JUMPDEST DUP1 PUSH4 0x3F4BA83A GT PUSH2 0x1B8 JUMPI DUP1 PUSH4 0x3F4BA83A EQ PUSH2 0x27E JUMPI DUP1 PUSH4 0x40B89270 EQ PUSH2 0x288 JUMPI DUP1 PUSH4 0x49D5034D EQ PUSH2 0x290 JUMPI DUP1 PUSH4 0x59157A27 EQ PUSH2 0x2A3 JUMPI PUSH1 0x0 DUP1 REVERT JUMPDEST DUP1 PUSH4 0x8A54DB1 EQ PUSH2 0x1DF JUMPI DUP1 PUSH4 0x27FF6223 EQ PUSH2 0x22C JUMPI DUP1 PUSH4 0x2C27750A EQ PUSH2 0x243 JUMPI JUMPDEST PUSH1 0x0 DUP1 REVERT JUMPDEST PUSH2 0x1F2 PUSH2 0x1ED CALLDATASIZE PUSH1 0x4 PUSH2 0x141E JUMP JUMPDEST PUSH2 0x4D1 JUMP JUMPDEST PUSH1 0x40 DUP1 MLOAD SWAP8 DUP9 MSTORE PUSH1 0x20 DUP9 ADD SWAP7 SWAP1 SWAP7 MSTORE SWAP5 DUP7 ADD SWAP4 SWAP1 SWAP4 MSTORE PUSH1 0x60 DUP6 ADD SWAP2 SWAP1 SWAP2 MSTORE PUSH1 0x80 DUP5 ADD MSTORE PUSH1 0xA0 DUP4 ADD MSTORE PUSH1 0xC0 DUP3 ADD MSTORE PUSH1 0xE0 ADD JUMPDEST PUSH1 0x40 MLOAD DUP1 SWAP2 SUB SWAP1 RETURN JUMPDEST PUSH2 0x235 PUSH2 0x3E8 DUP2 JUMP JUMPDEST PUSH1 0x40 MLOAD SWAP1 DUP2 MSTORE PUSH1 0x20 ADD PUSH2 0x223 JUMP JUMPDEST PUSH2 0x256 PUSH2 0x251 CALLDATASIZE PUSH1 0x4 PUSH2 0x141E JUMP JUMPDEST PUSH2 0x5BF JUMP JUMPDEST PUSH1 0x40 DUP1 MLOAD SWAP6 DUP7 MSTORE PUSH1 0x20 DUP7 ADD SWAP5 SWAP1 SWAP5 MSTORE SWAP3 DUP5 ADD SWAP2 SWAP1 SWAP2 MSTORE PUSH1 0x60 DUP4 ADD MSTORE PUSH1 0x80 DUP3 ADD MSTORE PUSH1 0xA0 ADD PUSH2 0x223 JUMP JUMPDEST PUSH2 0x286 PUSH2 0x66A JUMP JUMPDEST STOP JUMPDEST PUSH2 0x235 PUSH1 0x64 DUP2 JUMP JUMPDEST PUSH2 0x286 PUSH2 0x29E CALLDATASIZE PUSH1 0x4 PUSH2 0x1439 JUMP JUMPDEST PUSH2 0x67C JUMP JUMPDEST PUSH2 0x2B6 PUSH2 0x2B1 CALLDATASIZE PUSH1 0x4 PUSH2 0x141E JUMP JUMPDEST PUSH2 0x6ED JUMP JUMPDEST PUSH1 0x40 MLOAD PUSH2 0x223 SWAP2 SWAP1 PUSH1 0x0 PUSH1 0xE0 DUP3 ADD SWAP1 POP DUP3 MLOAD DUP3 MSTORE PUSH1 0x20 DUP4 ADD MLOAD PUSH1 0x20 DUP4 ADD MSTORE PUSH1 0x40 DUP4 ADD MLOAD PUSH1 0x40 DUP4 ADD MSTORE PUSH1 0x60 DUP4 ADD MLOAD PUSH1 0x60 DUP4 ADD MSTORE PUSH1 0x80 DUP4 ADD MLOAD PUSH1 0x80 DUP4 ADD MSTORE PUSH1 0xA0 DUP4 ADD MLOAD PUSH1 0xA0 DUP4 ADD MSTORE PUSH1 0xC0 DUP4 ADD MLOAD PUSH1 0xC0 DUP4 ADD MSTORE SWAP3 SWAP2 POP POP JUMP JUMPDEST PUSH1 0x0 SLOAD PUSH1 0x1 PUSH1 0xA0 SHL SWAP1 DIV PUSH1 0xFF AND JUMPDEST PUSH1 0x40 MLOAD SWAP1 ISZERO ISZERO DUP2 MSTORE PUSH1 0x20 ADD PUSH2 0x223 JUMP JUMPDEST PUSH2 0x286 PUSH2 0x338 CALLDATASIZE PUSH1 0x4 PUSH2 0x141E JUMP JUMPDEST PUSH2 0x798 JUMP JUMPDEST PUSH2 0x286 PUSH2 0x34B CALLDATASIZE PUSH1 0x4 PUSH2 0x1439 JUMP JUMPDEST PUSH2 0x7E9 JUMP JUMPDEST PUSH2 0x286 PUSH2 0x89F JUMP JUMPDEST PUSH2 0x235 PUSH2 0x1F4 DUP2 JUMP JUMPDEST PUSH2 0x235 PUSH2 0xFA0 DUP2 JUMP JUMPDEST PUSH2 0x286 PUSH2 0x378 CALLDATASIZE PUSH1 0x4 PUSH2 0x1463 JUMP JUMPDEST PUSH2 0x8B1 JUMP JUMPDEST PUSH2 0x286 PUSH2 0xB46 JUMP JUMPDEST PUSH2 0x286 PUSH2 0x393 CALLDATASIZE PUSH1 0x4 PUSH2 0x141E JUMP JUMPDEST PUSH2 0xB56 JUMP JUMPDEST PUSH1 0x0 SLOAD PUSH1 0x40 MLOAD PUSH1 0x1 PUSH1 0x1 PUSH1 0xA0 SHL SUB SWAP1 SWAP2 AND DUP2 MSTORE PUSH1 0x20 ADD PUSH2 0x223 JUMP JUMPDEST PUSH2 0x31A PUSH2 0x3C1 CALLDATASIZE PUSH1 0x4 PUSH2 0x1439 JUMP JUMPDEST PUSH2 0xBF2 JUMP JUMPDEST PUSH2 0x31A PUSH2 0x3D4 CALLDATASIZE PUSH1 0x4 PUSH2 0x141E JUMP JUMPDEST PUSH1 0x2 PUSH1 0x20 MSTORE PUSH1 0x0 SWAP1 DUP2 MSTORE PUSH1 0x40 SWAP1 KECCAK256 SLOAD PUSH1 0xFF AND DUP2 JUMP JUMPDEST PUSH2 0x286 PUSH2 0x3F7 CALLDATASIZE PUSH1 0x4 PUSH2 0x14A6 JUMP JUMPDEST PUSH2 0xC09 JUMP JUMPDEST PUSH2 0x286 PUSH2 0x40A CALLDATASIZE PUSH1 0x4 PUSH2 0x151B JUMP JUMPDEST PUSH2 0xD65 JUMP JUMPDEST PUSH2 0x235 PUSH2 0x5DC DUP2 JUMP JUMPDEST PUSH2 0x235 PUSH2 0x426 CALLDATASIZE PUSH1 0x4 PUSH2 0x141E JUMP JUMPDEST PUSH1 0x3 PUSH1 0x20 MSTORE PUSH1 0x0 SWAP1 DUP2 MSTORE PUSH1 0x40 SWAP1 KECCAK256 SLOAD DUP2 JUMP JUMPDEST PUSH2 0x1F2 PUSH2 0x446 CALLDATASIZE PUSH1 0x4 PUSH2 0x141E JUMP JUMPDEST PUSH1 0x1 PUSH1 0x20 DUP2 SWAP1 MSTORE PUSH1 0x0 SWAP2 DUP3 MSTORE PUSH1 0x40 SWAP1 SWAP2 KECCAK256 DUP1 SLOAD SWAP2 DUP2 ADD SLOAD PUSH1 0x2 DUP3 ADD SLOAD PUSH1 0x3 DUP4 ADD SLOAD PUSH1 0x4 DUP5 ADD SLOAD PUSH1 0x5 DUP6 ADD SLOAD PUSH1 0x6 SWAP1 SWAP6 ADD SLOAD SWAP4 SWAP5 SWAP3 SWAP4 SWAP2 SWAP3 SWAP1 SWAP2 DUP8 JUMP JUMPDEST PUSH2 0x235 PUSH2 0x490 CALLDATASIZE PUSH1 0x4 PUSH2 0x141E JUMP JUMPDEST PUSH1 0x4 PUSH1 0x20 MSTORE PUSH1 0x0 SWAP1 DUP2 MSTORE PUSH1 0x40 SWAP1 KECCAK256 SLOAD DUP2 JUMP JUMPDEST PUSH2 0x235 PUSH2 0xBB8 DUP2 JUMP JUMPDEST PUSH2 0x235 PUSH2 0x4B9 CALLDATASIZE PUSH1 0x4 PUSH2 0x141E JUMP JUMPDEST PUSH2 0xE67 JUMP JUMPDEST PUSH2 0x286 PUSH2 0x4CC CALLDATASIZE PUSH1 0x4 PUSH2 0x141E JUMP JUMPDEST PUSH2 0xF60 JUMP JUMPDEST PUSH1 0x1 PUSH1 0x1 PUSH1 0xA0 SHL SUB DUP2 AND PUSH1 0x0 DUP2 DUP2 MSTORE PUSH1 0x1 PUSH1 0x20 DUP2 DUP2 MSTORE PUSH1 0x40 DUP1 DUP5 KECCAK256 DUP2 MLOAD PUSH1 0xE0 DUP2 ADD DUP4 MSTORE DUP2 SLOAD DUP2 MSTORE SWAP4 DUP2 ADD SLOAD DUP5 DUP5 ADD MSTORE PUSH1 0x2 DUP2 ADD SLOAD DUP5 DUP4 ADD MSTORE PUSH1 0x3 DUP1 DUP3 ADD SLOAD PUSH1 0x60 DUP7 ADD MSTORE PUSH1 0x4 DUP3 ADD SLOAD PUSH1 0x80 DUP7 ADD MSTORE PUSH1 0x5 DUP3 ADD SLOAD PUSH1 0xA0 DUP7 ADD MSTORE PUSH1 0x6 SWAP1 SWAP2 ADD SLOAD PUSH1 0xC0 DUP6 ADD MSTORE SWAP5 DUP5 MSTORE SWAP4 SWAP1 MSTORE SWAP2 DUP2 KECCAK256 SLOAD SWAP1 SWAP2 DUP3 SWAP2 DUP3 SWAP2 DUP3 SWAP2 DUP3 SWAP2 DUP3 SWAP2 DUP3 SWAP2 SWAP1 DUP3 SWAP1 PUSH2 0x559 JUMPI PUSH1 0x0 PUSH2 0x58B JUMP JUMPDEST PUSH1 0x1 PUSH1 0x1 PUSH1 0xA0 SHL SUB DUP11 AND PUSH1 0x0 SWAP1 DUP2 MSTORE PUSH1 0x3 PUSH1 0x20 MSTORE PUSH1 0x40 SWAP1 KECCAK256 SLOAD PUSH3 0x15180 SWAP1 PUSH2 0x581 SWAP1 TIMESTAMP PUSH2 0x157B JUMP JUMPDEST PUSH2 0x58B SWAP2 SWAP1 PUSH2 0x158E JUMP JUMPDEST DUP3 MLOAD PUSH1 0x20 DUP5 ADD MLOAD PUSH1 0x40 DUP6 ADD MLOAD PUSH1 0x80 DUP7 ADD MLOAD PUSH1 0x60 DUP8 ADD MLOAD PUSH1 0xA0 SWAP1 SWAP8 ADD MLOAD SWAP4 SWAP16 SWAP3 SWAP15 POP SWAP1 SWAP13 POP SWAP11 POP SWAP4 SWAP9 POP SWAP7 POP SWAP5 POP SWAP1 SWAP3 POP POP POP JUMP JUMPDEST PUSH1 0x1 PUSH1 0x1 PUSH1 0xA0 SHL SUB DUP2 AND PUSH1 0x0 SWAP1 DUP2 MSTORE PUSH1 0x1 PUSH1 0x20 DUP2 DUP2 MSTORE PUSH1 0x40 DUP1 DUP5 KECCAK256 DUP2 MLOAD PUSH1 0xE0 DUP2 ADD DUP4 MSTORE DUP2 SLOAD DUP2 MSTORE SWAP4 DUP2 ADD SLOAD SWAP3 DUP5 ADD SWAP3 SWAP1 SWAP3 MSTORE PUSH1 0x2 DUP3 ADD SLOAD SWAP1 DUP4 ADD MSTORE PUSH1 0x3 DUP2 ADD SLOAD PUSH1 0x60 DUP4 ADD MSTORE PUSH1 0x4 DUP2 ADD SLOAD PUSH1 0x80 DUP4 ADD MSTORE PUSH1 0x5 DUP2 ADD SLOAD PUSH1 0xA0 DUP4 ADD MSTORE PUSH1 0x6 ADD SLOAD PUSH1 0xC0 DUP3 ADD MSTORE DUP2 SWAP1 DUP2 SWAP1 DUP2 SWAP1 DUP2 SWAP1 PUSH2 0x632 DUP2 PUSH2 0xF9E JUMP JUMPDEST SWAP6 POP PUSH2 0x63D DUP2 PUSH2 0x102E JUMP JUMPDEST SWAP5 POP PUSH2 0x648 DUP8 PUSH2 0x1093 JUMP JUMPDEST SWAP4 POP PUSH2 0x653 DUP2 PUSH2 0x1131 JUMP JUMPDEST SWAP3 POP PUSH2 0x65E DUP8 PUSH2 0xE67 JUMP JUMPDEST SWAP2 POP POP SWAP2 SWAP4 SWAP6 SWAP1 SWAP3 SWAP5 POP JUMP JUMPDEST PUSH2 0x672 PUSH2 0x1194 JUMP JUMPDEST PUSH2 0x67A PUSH2 0x11C1 JUMP JUMPDEST JUMP JUMPDEST CALLER PUSH1 0x0 SWAP1 DUP2 MSTORE PUSH1 0x2 PUSH1 0x20 MSTORE PUSH1 0x40 SWAP1 KECCAK256 SLOAD PUSH1 0xFF AND PUSH2 0x6D1 JUMPI PUSH1 0x40 MLOAD PUSH3 0x461BCD PUSH1 0xE5 SHL DUP2 MSTORE PUSH1 0x20 PUSH1 0x4 DUP3 ADD MSTORE PUSH1 0xE PUSH1 0x24 DUP3 ADD MSTORE PUSH14 0x139BDD08185D5D1A1BDC9A5E9959 PUSH1 0x92 SHL PUSH1 0x44 DUP3 ADD MSTORE PUSH1 0x64 ADD JUMPDEST PUSH1 0x40 MLOAD DUP1 SWAP2 SUB SWAP1 REVERT JUMPDEST PUSH1 0x1 PUSH1 0x1 PUSH1 0xA0 SHL SUB SWAP1 SWAP2 AND PUSH1 0x0 SWAP1 DUP2 MSTORE PUSH1 0x4 PUSH1 0x20 MSTORE PUSH1 0x40 SWAP1 KECCAK256 SSTORE JUMP JUMPDEST PUSH2 0x72D PUSH1 0x40 MLOAD DUP1 PUSH1 0xE0 ADD PUSH1 0x40 MSTORE DUP1 PUSH1 0x0 DUP2 MSTORE PUSH1 0x20 ADD PUSH1 0x0 DUP2 MSTORE PUSH1 0x20 ADD PUSH1 0x0 DUP2 MSTORE PUSH1 0x20 ADD PUSH1 0x0 DUP2 MSTORE PUSH1 0x20 ADD PUSH1 0x0 DUP2 MSTORE PUSH1 0x20 ADD PUSH1 0x0 DUP2 MSTORE PUSH1 0x20 ADD PUSH1 0x0 DUP2 MSTORE POP SWAP1 JUMP JUMPDEST POP PUSH1 0x1 PUSH1 0x1 PUSH1 0xA0 SHL SUB AND PUSH1 0x0 SWAP1 DUP2 MSTORE PUSH1 0x1 PUSH1 0x20 DUP2 DUP2 MSTORE PUSH1 0x40 SWAP3 DUP4 SWAP1 KECCAK256 DUP4 MLOAD PUSH1 0xE0 DUP2 ADD DUP6 MSTORE DUP2 SLOAD DUP2 MSTORE SWAP3 DUP2 ADD SLOAD SWAP2 DUP4 ADD SWAP2 SWAP1 SWAP2 MSTORE PUSH1 0x2 DUP2 ADD SLOAD SWAP3 DUP3 ADD SWAP3 SWAP1 SWAP3 MSTORE PUSH1 0x3 DUP3 ADD SLOAD PUSH1 0x60 DUP3 ADD MSTORE PUSH1 0x4 DUP3 ADD SLOAD PUSH1 0x80 DUP3 ADD MSTORE PUSH1 0x5 DUP3 ADD SLOAD PUSH1 0xA0 DUP3 ADD MSTORE PUSH1 0x6 SWAP1 SWAP2 ADD SLOAD PUSH1 0xC0 DUP3 ADD MSTORE SWAP1 JUMP JUMPDEST PUSH2 0x7A0 PUSH2 0x1194 JUMP JUMPDEST PUSH1 0x1 PUSH1 0x1 PUSH1 0xA0 SHL SUB DUP2 AND PUSH1 0x0 DUP2 DUP2 MSTORE PUSH1 0x2 PUSH1 0x20 MSTORE PUSH1 0x40 DUP1 DUP3 KECCAK256 DUP1 SLOAD PUSH1 0xFF NOT AND SWAP1 SSTORE MLOAD PUSH32 0x50AE3647B181B6195683F16A0C98A3CD7DDC63732465548BC2E4CC18D44C629A SWAP2 SWAP1 LOG2 POP JUMP JUMPDEST PUSH2 0x7F1 PUSH2 0x1194 JUMP JUMPDEST PUSH1 0x64 DUP2 LT ISZERO DUP1 ISZERO PUSH2 0x804 JUMPI POP PUSH2 0x3E8 DUP2 GT ISZERO JUMPDEST PUSH2 0x840 JUMPI PUSH1 0x40 MLOAD PUSH3 0x461BCD PUSH1 0xE5 SHL DUP2 MSTORE PUSH1 0x20 PUSH1 0x4 DUP3 ADD MSTORE PUSH1 0xD PUSH1 0x24 DUP3 ADD MSTORE PUSH13 0x496E76616C69642073636F7265 PUSH1 0x98 SHL PUSH1 0x44 DUP3 ADD MSTORE PUSH1 0x64 ADD PUSH2 0x6C8 JUMP JUMPDEST PUSH1 0x1 PUSH1 0x1 PUSH1 0xA0 SHL SUB DUP3 AND PUSH1 0x0 DUP2 DUP2 MSTORE PUSH1 0x1 PUSH1 0x20 SWAP1 DUP2 MSTORE PUSH1 0x40 SWAP2 DUP3 SWAP1 KECCAK256 DUP1 SLOAD SWAP1 DUP6 SWAP1 SSTORE DUP3 MLOAD DUP2 DUP2 MSTORE SWAP2 DUP3 ADD DUP6 SWAP1 MSTORE SWAP3 SWAP2 PUSH32 0x4F43648F37BC26EE5BC39C60C1C1E2481A9FB9FEB9F86419C91B4645585FF3BC SWAP2 ADD PUSH1 0x40 MLOAD DUP1 SWAP2 SUB SWAP1 LOG2 POP POP POP JUMP JUMPDEST PUSH2 0x8A7 PUSH2 0x1194 JUMP JUMPDEST PUSH2 0x67A PUSH1 0x0 PUSH2 0x1216 JUMP JUMPDEST CALLER PUSH1 0x0 SWAP1 DUP2 MSTORE PUSH1 0x2 PUSH1 0x20 MSTORE PUSH1 0x40 SWAP1 KECCAK256 SLOAD PUSH1 0xFF AND PUSH2 0x901 JUMPI PUSH1 0x40 MLOAD PUSH3 0x461BCD PUSH1 0xE5 SHL DUP2 MSTORE PUSH1 0x20 PUSH1 0x4 DUP3 ADD MSTORE PUSH1 0xE PUSH1 0x24 DUP3 ADD MSTORE PUSH14 0x139BDD08185D5D1A1BDC9A5E9959 PUSH1 0x92 SHL PUSH1 0x44 DUP3 ADD MSTORE PUSH1 0x64 ADD PUSH2 0x6C8 JUMP JUMPDEST PUSH2 0x909 PUSH2 0x1266 JUMP JUMPDEST PUSH1 0x1 PUSH1 0x1 PUSH1 0xA0 SHL SUB DUP4 AND PUSH1 0x0 SWAP1 DUP2 MSTORE PUSH1 0x1 PUSH1 0x20 MSTORE PUSH1 0x40 DUP2 KECCAK256 PUSH1 0x6 DUP2 ADD SLOAD SWAP1 SWAP2 SUB PUSH2 0x94E JUMPI PUSH2 0x1F4 DUP2 SSTORE PUSH1 0x1 PUSH1 0x1 PUSH1 0xA0 SHL SUB DUP5 AND PUSH1 0x0 SWAP1 DUP2 MSTORE PUSH1 0x3 PUSH1 0x20 MSTORE PUSH1 0x40 SWAP1 KECCAK256 TIMESTAMP SWAP1 SSTORE JUMPDEST DUP1 SLOAD PUSH1 0x0 DUP5 PUSH1 0x4 DUP2 GT ISZERO PUSH2 0x964 JUMPI PUSH2 0x964 PUSH2 0x15B0 JUMP JUMPDEST SUB PUSH2 0x9AA JUMPI PUSH1 0x4 DUP3 ADD DUP1 SLOAD SWAP1 PUSH1 0x0 PUSH2 0x97B DUP4 PUSH2 0x15C6 JUMP JUMPDEST SWAP2 SWAP1 POP SSTORE POP DUP3 DUP3 PUSH1 0x2 ADD PUSH1 0x0 DUP3 DUP3 SLOAD PUSH2 0x994 SWAP2 SWAP1 PUSH2 0x15DF JUMP JUMPDEST SWAP1 SWAP2 SSTORE POP PUSH2 0x9A5 SWAP1 POP DUP3 PUSH1 0xA PUSH2 0x1291 JUMP JUMPDEST PUSH2 0xA9D JUMP JUMPDEST PUSH1 0x1 DUP5 PUSH1 0x4 DUP2 GT ISZERO PUSH2 0x9BE JUMPI PUSH2 0x9BE PUSH2 0x15B0 JUMP JUMPDEST SUB PUSH2 0x9E8 JUMPI DUP3 DUP3 PUSH1 0x2 ADD PUSH1 0x0 DUP3 DUP3 SLOAD PUSH2 0x9D7 SWAP2 SWAP1 PUSH2 0x15DF JUMP JUMPDEST SWAP1 SWAP2 SSTORE POP PUSH2 0x9A5 SWAP1 POP DUP3 PUSH1 0x14 PUSH2 0x12C3 JUMP JUMPDEST PUSH1 0x2 DUP5 PUSH1 0x4 DUP2 GT ISZERO PUSH2 0x9FC JUMPI PUSH2 0x9FC PUSH2 0x15B0 JUMP JUMPDEST SUB PUSH2 0xA23 JUMPI PUSH1 0x3 DUP3 ADD DUP1 SLOAD SWAP1 PUSH1 0x0 PUSH2 0xA13 DUP4 PUSH2 0x15C6 JUMP JUMPDEST SWAP2 SWAP1 POP SSTORE POP PUSH2 0x9A5 DUP3 PUSH1 0x64 PUSH2 0x12C3 JUMP JUMPDEST PUSH1 0x3 DUP5 PUSH1 0x4 DUP2 GT ISZERO PUSH2 0xA37 JUMPI PUSH2 0xA37 PUSH2 0x15B0 JUMP JUMPDEST SUB PUSH2 0xA60 JUMPI DUP3 DUP3 PUSH1 0x1 ADD PUSH1 0x0 DUP3 DUP3 SLOAD PUSH2 0xA50 SWAP2 SWAP1 PUSH2 0x15DF JUMP JUMPDEST SWAP1 SWAP2 SSTORE POP PUSH2 0x9A5 SWAP1 POP DUP6 DUP4 PUSH2 0x12DF JUMP JUMPDEST PUSH1 0x4 DUP5 PUSH1 0x4 DUP2 GT ISZERO PUSH2 0xA74 JUMPI PUSH2 0xA74 PUSH2 0x15B0 JUMP JUMPDEST SUB PUSH2 0xA9D JUMPI DUP3 DUP3 PUSH1 0x2 ADD PUSH1 0x0 DUP3 DUP3 SLOAD PUSH2 0xA8D SWAP2 SWAP1 PUSH2 0x15DF JUMP JUMPDEST SWAP1 SWAP2 SSTORE POP PUSH2 0xA9D SWAP1 POP DUP6 DUP4 PUSH2 0x12DF JUMP JUMPDEST NUMBER PUSH1 0x6 DUP4 ADD SSTORE PUSH2 0xAAC DUP6 PUSH2 0xE67 JUMP JUMPDEST DUP3 SSTORE PUSH1 0x40 MLOAD PUSH1 0x1 PUSH1 0x1 PUSH1 0xA0 SHL SUB DUP7 AND SWAP1 PUSH32 0x6AA5DE0462AA970FF64E4CB8E9721F32DA9CE24CC8B63DA73F915610B085C333 SWAP1 PUSH2 0xAEB SWAP1 DUP8 SWAP1 DUP8 SWAP1 PUSH2 0x15F2 JUMP JUMPDEST PUSH1 0x40 MLOAD DUP1 SWAP2 SUB SWAP1 LOG2 DUP2 SLOAD PUSH1 0x40 MLOAD PUSH1 0x1 PUSH1 0x1 PUSH1 0xA0 SHL SUB DUP8 AND SWAP2 PUSH32 0x4F43648F37BC26EE5BC39C60C1C1E2481A9FB9FEB9F86419C91B4645585FF3BC SWAP2 PUSH2 0xB37 SWAP2 DUP6 DUP3 MSTORE PUSH1 0x20 DUP3 ADD MSTORE PUSH1 0x40 ADD SWAP1 JUMP JUMPDEST PUSH1 0x40 MLOAD DUP1 SWAP2 SUB SWAP1 LOG2 POP POP POP POP POP JUMP JUMPDEST PUSH2 0xB4E PUSH2 0x1194 JUMP JUMPDEST PUSH2 0x67A PUSH2 0x1348 JUMP JUMPDEST PUSH2 0xB5E PUSH2 0x1194 JUMP JUMPDEST PUSH1 0x1 PUSH1 0x1 PUSH1 0xA0 SHL SUB DUP2 AND PUSH2 0xBA6 JUMPI PUSH1 0x40 MLOAD PUSH3 0x461BCD PUSH1 0xE5 SHL DUP2 MSTORE PUSH1 0x20 PUSH1 0x4 DUP3 ADD MSTORE PUSH1 0xF PUSH1 0x24 DUP3 ADD MSTORE PUSH15 0x496E76616C69642061646472657373 PUSH1 0x88 SHL PUSH1 0x44 DUP3 ADD MSTORE PUSH1 0x64 ADD PUSH2 0x6C8 JUMP JUMPDEST PUSH1 0x1 PUSH1 0x1 PUSH1 0xA0 SHL SUB DUP2 AND PUSH1 0x0 DUP2 DUP2 MSTORE PUSH1 0x2 PUSH1 0x20 MSTORE PUSH1 0x40 DUP1 DUP3 KECCAK256 DUP1 SLOAD PUSH1 0xFF NOT AND PUSH1 0x1 OR SWAP1 SSTORE MLOAD PUSH32 0x8A27C0070669C9F3E29362F9995ACCE0B920C672F3239BC925A45B5A92A851CA SWAP2 SWAP1 LOG2 POP JUMP JUMPDEST PUSH1 0x0 DUP2 PUSH2 0xBFE DUP5 PUSH2 0xE67 JUMP JUMPDEST LT ISZERO SWAP1 POP JUMPDEST SWAP3 SWAP2 POP POP JUMP JUMPDEST PUSH2 0xC11 PUSH2 0x1194 JUMP JUMPDEST PUSH1 0x0 JUMPDEST DUP2 DUP2 LT ISZERO PUSH2 0xD60 JUMPI PUSH1 0x0 PUSH1 0x1 PUSH1 0x0 DUP6 DUP6 DUP6 DUP2 DUP2 LT PUSH2 0xC34 JUMPI PUSH2 0xC34 PUSH2 0x161E JUMP JUMPDEST SWAP1 POP PUSH1 0x20 MUL ADD PUSH1 0x20 DUP2 ADD SWAP1 PUSH2 0xC49 SWAP2 SWAP1 PUSH2 0x141E JUMP JUMPDEST PUSH1 0x1 PUSH1 0x1 PUSH1 0xA0 SHL SUB AND DUP2 MSTORE PUSH1 0x20 DUP2 ADD SWAP2 SWAP1 SWAP2 MSTORE PUSH1 0x40 ADD PUSH1 0x0 SWAP1 DUP2 KECCAK256 SLOAD SWAP2 POP PUSH2 0xC91 DUP6 DUP6 DUP6 DUP2 DUP2 LT PUSH2 0xC7C JUMPI PUSH2 0xC7C PUSH2 0x161E JUMP JUMPDEST SWAP1 POP PUSH1 0x20 MUL ADD PUSH1 0x20 DUP2 ADD SWAP1 PUSH2 0x4B9 SWAP2 SWAP1 PUSH2 0x141E JUMP JUMPDEST SWAP1 POP DUP1 PUSH1 0x1 PUSH1 0x0 DUP8 DUP8 DUP8 DUP2 DUP2 LT PUSH2 0xCAA JUMPI PUSH2 0xCAA PUSH2 0x161E JUMP JUMPDEST SWAP1 POP PUSH1 0x20 MUL ADD PUSH1 0x20 DUP2 ADD SWAP1 PUSH2 0xCBF SWAP2 SWAP1 PUSH2 0x141E JUMP JUMPDEST PUSH1 0x1 PUSH1 0x1 PUSH1 0xA0 SHL SUB AND DUP2 MSTORE PUSH1 0x20 DUP2 ADD SWAP2 SWAP1 SWAP2 MSTORE PUSH1 0x40 ADD PUSH1 0x0 KECCAK256 SSTORE DUP5 DUP5 DUP5 DUP2 DUP2 LT PUSH2 0xCEB JUMPI PUSH2 0xCEB PUSH2 0x161E JUMP JUMPDEST SWAP1 POP PUSH1 0x20 MUL ADD PUSH1 0x20 DUP2 ADD SWAP1 PUSH2 0xD00 SWAP2 SWAP1 PUSH2 0x141E JUMP JUMPDEST PUSH1 0x1 PUSH1 0x1 PUSH1 0xA0 SHL SUB AND PUSH32 0x4F43648F37BC26EE5BC39C60C1C1E2481A9FB9FEB9F86419C91B4645585FF3BC DUP4 DUP4 PUSH1 0x40 MLOAD PUSH2 0xD43 SWAP3 SWAP2 SWAP1 SWAP2 DUP3 MSTORE PUSH1 0x20 DUP3 ADD MSTORE PUSH1 0x40 ADD SWAP1 JUMP JUMPDEST PUSH1 0x40 MLOAD DUP1 SWAP2 SUB SWAP1 LOG2 POP POP DUP1 DUP1 PUSH2 0xD58 SWAP1 PUSH2 0x15C6 JUMP JUMPDEST SWAP2 POP POP PUSH2 0xC14 JUMP JUMPDEST POP POP POP JUMP JUMPDEST PUSH2 0xD6D PUSH2 0x1194 JUMP JUMPDEST PUSH1 0x1 PUSH1 0x1 PUSH1 0xA0 SHL SUB DUP7 AND PUSH1 0x0 SWAP1 DUP2 MSTORE PUSH1 0x1 PUSH1 0x20 MSTORE PUSH1 0x40 SWAP1 KECCAK256 PUSH1 0x6 ADD SLOAD ISZERO PUSH2 0xDD6 JUMPI PUSH1 0x40 MLOAD PUSH3 0x461BCD PUSH1 0xE5 SHL DUP2 MSTORE PUSH1 0x20 PUSH1 0x4 DUP3 ADD MSTORE PUSH1 0x18 PUSH1 0x24 DUP3 ADD MSTORE PUSH32 0x5573657220616C726561647920696E697469616C697A65640000000000000000 PUSH1 0x44 DUP3 ADD MSTORE PUSH1 0x64 ADD PUSH2 0x6C8 JUMP JUMPDEST PUSH1 0x40 DUP1 MLOAD PUSH1 0xE0 DUP2 ADD DUP3 MSTORE SWAP6 DUP7 MSTORE PUSH1 0x20 DUP1 DUP8 ADD SWAP6 DUP7 MSTORE DUP7 DUP3 ADD SWAP5 DUP6 MSTORE PUSH1 0x60 DUP8 ADD SWAP3 DUP4 MSTORE PUSH1 0x80 DUP8 ADD SWAP4 DUP5 MSTORE PUSH1 0x0 PUSH1 0xA0 DUP9 ADD DUP2 DUP2 MSTORE NUMBER PUSH1 0xC0 DUP11 ADD SWAP1 DUP2 MSTORE PUSH1 0x1 PUSH1 0x1 PUSH1 0xA0 SHL SUB SWAP1 SWAP11 AND DUP3 MSTORE PUSH1 0x1 DUP1 DUP5 MSTORE DUP5 DUP4 KECCAK256 SWAP10 MLOAD DUP11 SSTORE SWAP8 MLOAD SWAP8 DUP10 ADD SWAP8 SWAP1 SWAP8 SSTORE SWAP5 MLOAD PUSH1 0x2 DUP9 ADD SSTORE SWAP2 MLOAD PUSH1 0x3 DUP1 DUP9 ADD SWAP2 SWAP1 SWAP2 SSTORE SWAP3 MLOAD PUSH1 0x4 DUP8 ADD SSTORE SWAP4 MLOAD PUSH1 0x5 DUP7 ADD SSTORE SWAP5 MLOAD PUSH1 0x6 SWAP1 SWAP5 ADD SWAP4 SWAP1 SWAP4 SSTORE SWAP2 SWAP1 SWAP3 MSTORE KECCAK256 TIMESTAMP SWAP1 SSTORE JUMP JUMPDEST PUSH1 0x1 PUSH1 0x1 PUSH1 0xA0 SHL SUB DUP2 AND PUSH1 0x0 SWAP1 DUP2 MSTORE PUSH1 0x1 PUSH1 0x20 DUP2 DUP2 MSTORE PUSH1 0x40 DUP1 DUP5 KECCAK256 DUP2 MLOAD PUSH1 0xE0 DUP2 ADD DUP4 MSTORE DUP2 SLOAD DUP2 MSTORE SWAP4 DUP2 ADD SLOAD SWAP3 DUP5 ADD SWAP3 SWAP1 SWAP3 MSTORE PUSH1 0x2 DUP3 ADD SLOAD SWAP1 DUP4 ADD MSTORE PUSH1 0x3 DUP2 ADD SLOAD PUSH1 0x60 DUP4 ADD MSTORE PUSH1 0x4 DUP2 ADD SLOAD PUSH1 0x80 DUP4 ADD MSTORE PUSH1 0x5 DUP2 ADD SLOAD PUSH1 0xA0 DUP4 ADD MSTORE PUSH1 0x6 ADD SLOAD PUSH1 0xC0 DUP3 ADD DUP2 SWAP1 MSTORE DUP3 SUB PUSH2 0xEDB JUMPI POP PUSH2 0x1F4 SWAP3 SWAP2 POP POP JUMP JUMPDEST PUSH1 0x0 PUSH2 0xEE6 DUP3 PUSH2 0xF9E JUMP JUMPDEST PUSH2 0xEF0 SWAP1 DUP3 PUSH2 0x15DF JUMP JUMPDEST SWAP1 POP PUSH2 0xEFB DUP3 PUSH2 0x102E JUMP JUMPDEST PUSH2 0xF05 SWAP1 DUP3 PUSH2 0x15DF JUMP JUMPDEST SWAP1 POP PUSH2 0xF10 DUP5 PUSH2 0x1093 JUMP JUMPDEST PUSH2 0xF1A SWAP1 DUP3 PUSH2 0x15DF JUMP JUMPDEST SWAP1 POP PUSH2 0xF25 DUP3 PUSH2 0x1131 JUMP JUMPDEST PUSH2 0xF2F SWAP1 DUP3 PUSH2 0x15DF JUMP JUMPDEST SWAP1 POP PUSH2 0xF3B DUP3 DUP3 PUSH2 0x138B JUMP JUMPDEST SWAP1 POP PUSH2 0x3E8 DUP2 GT ISZERO PUSH2 0xF4C JUMPI POP PUSH2 0x3E8 JUMPDEST PUSH1 0x64 DUP2 LT ISZERO PUSH2 0xF59 JUMPI POP PUSH1 0x64 JUMPDEST SWAP4 SWAP3 POP POP POP JUMP JUMPDEST PUSH2 0xF68 PUSH2 0x1194 JUMP JUMPDEST PUSH1 0x1 PUSH1 0x1 PUSH1 0xA0 SHL SUB DUP2 AND PUSH2 0xF92 JUMPI PUSH1 0x40 MLOAD PUSH4 0x1E4FBDF7 PUSH1 0xE0 SHL DUP2 MSTORE PUSH1 0x0 PUSH1 0x4 DUP3 ADD MSTORE PUSH1 0x24 ADD PUSH2 0x6C8 JUMP JUMPDEST PUSH2 0xF9B DUP2 PUSH2 0x1216 JUMP JUMPDEST POP JUMP JUMPDEST PUSH1 0x0 DUP2 PUSH1 0x60 ADD MLOAD DUP3 PUSH1 0x80 ADD MLOAD PUSH2 0xFB4 SWAP2 SWAP1 PUSH2 0x15DF JUMP JUMPDEST PUSH1 0x0 SUB PUSH2 0xFD6 JUMPI PUSH2 0x2710 PUSH2 0xFCC PUSH2 0xFA0 PUSH2 0x1F4 PUSH2 0x1634 JUMP JUMPDEST PUSH2 0xC03 SWAP2 SWAP1 PUSH2 0x158E JUMP JUMPDEST PUSH1 0x0 DUP3 PUSH1 0x60 ADD MLOAD DUP4 PUSH1 0x80 ADD MLOAD PUSH2 0xFEC SWAP2 SWAP1 PUSH2 0x15DF JUMP JUMPDEST SWAP1 POP PUSH1 0x0 DUP2 DUP5 PUSH1 0x80 ADD MLOAD PUSH1 0x64 PUSH2 0x1002 SWAP2 SWAP1 PUSH2 0x1634 JUMP JUMPDEST PUSH2 0x100C SWAP2 SWAP1 PUSH2 0x158E JUMP JUMPDEST SWAP1 POP PUSH1 0x64 PUSH2 0x101C PUSH2 0xFA0 DUP4 PUSH2 0x1634 JUMP JUMPDEST PUSH2 0x1026 SWAP2 SWAP1 PUSH2 0x158E JUMP JUMPDEST SWAP5 SWAP4 POP POP POP POP JUMP JUMPDEST PUSH1 0x0 PUSH1 0x1E DUP3 PUSH1 0xA0 ADD MLOAD GT PUSH2 0x1045 JUMPI POP PUSH2 0xBB8 SWAP2 SWAP1 POP JUMP JUMPDEST PUSH1 0x46 DUP3 PUSH1 0xA0 ADD MLOAD GT PUSH2 0x108B JUMPI PUSH1 0x0 PUSH1 0x28 PUSH2 0xBB8 PUSH1 0x1E DUP6 PUSH1 0xA0 ADD MLOAD PUSH2 0x1069 SWAP2 SWAP1 PUSH2 0x157B JUMP JUMPDEST PUSH2 0x1073 SWAP2 SWAP1 PUSH2 0x1634 JUMP JUMPDEST PUSH2 0x107D SWAP2 SWAP1 PUSH2 0x158E JUMP JUMPDEST SWAP1 POP PUSH2 0xF59 DUP2 PUSH2 0xBB8 PUSH2 0x157B JUMP JUMPDEST POP PUSH1 0x0 SWAP2 SWAP1 POP JUMP JUMPDEST PUSH1 0x1 PUSH1 0x1 PUSH1 0xA0 SHL SUB DUP2 AND PUSH1 0x0 SWAP1 DUP2 MSTORE PUSH1 0x3 PUSH1 0x20 MSTORE PUSH1 0x40 DUP2 KECCAK256 SLOAD DUP2 SUB PUSH2 0x10BA JUMPI POP PUSH1 0x0 SWAP2 SWAP1 POP JUMP JUMPDEST PUSH1 0x1 PUSH1 0x1 PUSH1 0xA0 SHL SUB DUP3 AND PUSH1 0x0 SWAP1 DUP2 MSTORE PUSH1 0x3 PUSH1 0x20 MSTORE PUSH1 0x40 DUP2 KECCAK256 SLOAD PUSH3 0x278D00 SWAP1 PUSH2 0x10E2 SWAP1 TIMESTAMP PUSH2 0x157B JUMP JUMPDEST PUSH2 0x10EC SWAP2 SWAP1 PUSH2 0x158E JUMP JUMPDEST SWAP1 POP DUP1 PUSH1 0x0 SUB PUSH2 0x10FF JUMPI POP PUSH1 0x0 SWAP3 SWAP2 POP POP JUMP JUMPDEST PUSH1 0x0 PUSH1 0x18 DUP3 GT PUSH2 0x1126 JUMPI PUSH1 0x18 PUSH2 0x1117 PUSH2 0x5DC DUP5 PUSH2 0x1634 JUMP JUMPDEST PUSH2 0x1121 SWAP2 SWAP1 PUSH2 0x158E JUMP JUMPDEST PUSH2 0x1026 JUMP JUMPDEST PUSH2 0x5DC SWAP5 SWAP4 POP POP POP POP JUMP JUMPDEST PUSH1 0x0 DUP2 PUSH1 0x20 ADD MLOAD PUSH1 0x0 SUB PUSH2 0x1147 JUMPI POP PUSH1 0x0 SWAP2 SWAP1 POP JUMP JUMPDEST PUSH1 0x0 PUSH10 0x152D02C7E14AF6800000 DUP4 PUSH1 0x20 ADD MLOAD GT PUSH2 0x118A JUMPI PUSH10 0x152D02C7E14AF6800000 PUSH2 0x3E8 DUP5 PUSH1 0x20 ADD MLOAD PUSH2 0x117B SWAP2 SWAP1 PUSH2 0x1634 JUMP JUMPDEST PUSH2 0x1185 SWAP2 SWAP1 PUSH2 0x158E JUMP JUMPDEST PUSH2 0xF59 JUMP JUMPDEST PUSH2 0x3E8 SWAP4 SWAP3 POP POP POP JUMP JUMPDEST PUSH1 0x0 SLOAD PUSH1 0x1 PUSH1 0x1 PUSH1 0xA0 SHL SUB AND CALLER EQ PUSH2 0x67A JUMPI PUSH1 0x40 MLOAD PUSH4 0x118CDAA7 PUSH1 0xE0 SHL DUP2 MSTORE CALLER PUSH1 0x4 DUP3 ADD MSTORE PUSH1 0x24 ADD PUSH2 0x6C8 JUMP JUMPDEST PUSH2 0x11C9 PUSH2 0x13D8 JUMP JUMPDEST PUSH1 0x0 DUP1 SLOAD PUSH1 0xFF PUSH1 0xA0 SHL NOT AND SWAP1 SSTORE PUSH32 0x5DB9EE0A495BF2E6FF9C91A7834C1BA4FDD244A5E8AA4E537BD38AEAE4B073AA CALLER JUMPDEST PUSH1 0x40 MLOAD PUSH1 0x1 PUSH1 0x1 PUSH1 0xA0 SHL SUB SWAP1 SWAP2 AND DUP2 MSTORE PUSH1 0x20 ADD PUSH1 0x40 MLOAD DUP1 SWAP2 SUB SWAP1 LOG1 JUMP JUMPDEST PUSH1 0x0 DUP1 SLOAD PUSH1 0x1 PUSH1 0x1 PUSH1 0xA0 SHL SUB DUP4 DUP2 AND PUSH1 0x1 PUSH1 0x1 PUSH1 0xA0 SHL SUB NOT DUP4 AND DUP2 OR DUP5 SSTORE PUSH1 0x40 MLOAD SWAP2 SWAP1 SWAP3 AND SWAP3 DUP4 SWAP2 PUSH32 0x8BE0079C531659141344CD1FD0A4F28419497F9722A3DAAFE3B4186F6B6457E0 SWAP2 SWAP1 LOG3 POP POP JUMP JUMPDEST PUSH1 0x0 SLOAD PUSH1 0x1 PUSH1 0xA0 SHL SWAP1 DIV PUSH1 0xFF AND ISZERO PUSH2 0x67A JUMPI PUSH1 0x40 MLOAD PUSH4 0xD93C0665 PUSH1 0xE0 SHL DUP2 MSTORE PUSH1 0x4 ADD PUSH1 0x40 MLOAD DUP1 SWAP2 SUB SWAP1 REVERT JUMPDEST DUP2 SLOAD PUSH2 0x3E8 SWAP1 PUSH2 0x12A2 SWAP1 DUP4 SWAP1 PUSH2 0x15DF JUMP JUMPDEST GT PUSH2 0x12B9 JUMPI DUP2 SLOAD PUSH2 0x12B4 SWAP1 DUP3 SWAP1 PUSH2 0x15DF JUMP JUMPDEST PUSH2 0x12BD JUMP JUMPDEST PUSH2 0x3E8 JUMPDEST SWAP1 SWAP2 SSTORE POP JUMP JUMPDEST DUP2 SLOAD DUP2 LT PUSH2 0x12D2 JUMPI PUSH1 0x64 PUSH2 0x12BD JUMP JUMPDEST DUP2 SLOAD PUSH2 0x12BD SWAP1 DUP3 SWAP1 PUSH2 0x157B JUMP JUMPDEST PUSH1 0x1 PUSH1 0x1 PUSH1 0xA0 SHL SUB DUP3 AND PUSH1 0x0 SWAP1 DUP2 MSTORE PUSH1 0x4 PUSH1 0x20 MSTORE PUSH1 0x40 DUP2 KECCAK256 SLOAD SWAP1 DUP2 SWAP1 SUB PUSH2 0x130C JUMPI POP PUSH1 0x0 PUSH1 0x5 SWAP1 SWAP2 ADD SSTORE POP JUMP JUMPDEST PUSH1 0x0 DUP3 PUSH1 0x2 ADD SLOAD DUP4 PUSH1 0x1 ADD SLOAD PUSH2 0x1322 SWAP2 SWAP1 PUSH2 0x157B JUMP JUMPDEST SWAP1 POP DUP2 PUSH2 0x1330 DUP3 PUSH1 0x64 PUSH2 0x1634 JUMP JUMPDEST PUSH2 0x133A SWAP2 SWAP1 PUSH2 0x158E JUMP JUMPDEST DUP4 PUSH1 0x5 ADD DUP2 SWAP1 SSTORE POP POP POP POP POP JUMP JUMPDEST PUSH2 0x1350 PUSH2 0x1266 JUMP JUMPDEST PUSH1 0x0 DUP1 SLOAD PUSH1 0xFF PUSH1 0xA0 SHL NOT AND PUSH1 0x1 PUSH1 0xA0 SHL OR SWAP1 SSTORE PUSH32 0x62E78CEA01BEE320CD4E420270B5EA74000D11B0C9F74754EBDBFC544B05A258 PUSH2 0x11F9 CALLER SWAP1 JUMP JUMPDEST PUSH1 0x0 DUP3 PUSH1 0x60 ADD MLOAD PUSH1 0x0 SUB PUSH2 0x13A0 JUMPI POP DUP1 PUSH2 0xC03 JUMP JUMPDEST PUSH1 0x0 PUSH2 0x13AF PUSH1 0xA PUSH2 0x1F4 PUSH2 0x158E JUMP JUMPDEST DUP5 PUSH1 0x60 ADD MLOAD PUSH2 0x13BE SWAP2 SWAP1 PUSH2 0x1634 JUMP JUMPDEST SWAP1 POP DUP1 DUP4 GT PUSH2 0x13CE JUMPI PUSH1 0x64 PUSH2 0x1026 JUMP JUMPDEST PUSH2 0x1026 DUP2 DUP5 PUSH2 0x157B JUMP JUMPDEST PUSH1 0x0 SLOAD PUSH1 0x1 PUSH1 0xA0 SHL SWAP1 DIV PUSH1 0xFF AND PUSH2 0x67A JUMPI PUSH1 0x40 MLOAD PUSH4 0x8DFC202B PUSH1 0xE0 SHL DUP2 MSTORE PUSH1 0x4 ADD PUSH1 0x40 MLOAD DUP1 SWAP2 SUB SWAP1 REVERT JUMPDEST DUP1 CALLDATALOAD PUSH1 0x1 PUSH1 0x1 PUSH1 0xA0 SHL SUB DUP2 AND DUP2 EQ PUSH2 0x1419 JUMPI PUSH1 0x0 DUP1 REVERT JUMPDEST SWAP2 SWAP1 POP JUMP JUMPDEST PUSH1 0x0 PUSH1 0x20 DUP3 DUP5 SUB SLT ISZERO PUSH2 0x1430 JUMPI PUSH1 0x0 DUP1 REVERT JUMPDEST PUSH2 0xF59 DUP3 PUSH2 0x1402 JUMP JUMPDEST PUSH1 0x0 DUP1 PUSH1 0x40 DUP4 DUP6 SUB SLT ISZERO PUSH2 0x144C JUMPI PUSH1 0x0 DUP1 REVERT JUMPDEST PUSH2 0x1455 DUP4 PUSH2 0x1402 JUMP JUMPDEST SWAP5 PUSH1 0x20 SWAP4 SWAP1 SWAP4 ADD CALLDATALOAD SWAP4 POP POP POP JUMP JUMPDEST PUSH1 0x0 DUP1 PUSH1 0x0 PUSH1 0x60 DUP5 DUP7 SUB SLT ISZERO PUSH2 0x1478 JUMPI PUSH1 0x0 DUP1 REVERT JUMPDEST PUSH2 0x1481 DUP5 PUSH2 0x1402 JUMP JUMPDEST SWAP3 POP PUSH1 0x20 DUP5 ADD CALLDATALOAD PUSH1 0x5 DUP2 LT PUSH2 0x1495 JUMPI PUSH1 0x0 DUP1 REVERT JUMPDEST SWAP3 SWAP6 SWAP3 SWAP5 POP POP POP PUSH1 0x40 SWAP2 SWAP1 SWAP2 ADD CALLDATALOAD SWAP1 JUMP JUMPDEST PUSH1 0x0 DUP1 PUSH1 0x20 DUP4 DUP6 SUB SLT ISZERO PUSH2 0x14B9 JUMPI PUSH1 0x0 DUP1 REVERT JUMPDEST DUP3 CALLDATALOAD PUSH8 0xFFFFFFFFFFFFFFFF DUP1 DUP3 GT ISZERO PUSH2 0x14D1 JUMPI PUSH1 0x0 DUP1 REVERT JUMPDEST DUP2 DUP6 ADD SWAP2 POP DUP6 PUSH1 0x1F DUP4 ADD SLT PUSH2 0x14E5 JUMPI PUSH1 0x0 DUP1 REVERT JUMPDEST DUP2 CALLDATALOAD DUP2 DUP2 GT ISZERO PUSH2 0x14F4 JUMPI PUSH1 0x0 DUP1 REVERT JUMPDEST DUP7 PUSH1 0x20 DUP3 PUSH1 0x5 SHL DUP6 ADD ADD GT ISZERO PUSH2 0x1509 JUMPI PUSH1 0x0 DUP1 REVERT JUMPDEST PUSH1 0x20 SWAP3 SWAP1 SWAP3 ADD SWAP7 SWAP2 SWAP6 POP SWAP1 SWAP4 POP POP POP POP JUMP JUMPDEST PUSH1 0x0 DUP1 PUSH1 0x0 DUP1 PUSH1 0x0 DUP1 PUSH1 0xC0 DUP8 DUP10 SUB SLT ISZERO PUSH2 0x1534 JUMPI PUSH1 0x0 DUP1 REVERT JUMPDEST PUSH2 0x153D DUP8 PUSH2 0x1402 JUMP JUMPDEST SWAP9 PUSH1 0x20 DUP9 ADD CALLDATALOAD SWAP9 POP PUSH1 0x40 DUP9 ADD CALLDATALOAD SWAP8 PUSH1 0x60 DUP2 ADD CALLDATALOAD SWAP8 POP PUSH1 0x80 DUP2 ADD CALLDATALOAD SWAP7 POP PUSH1 0xA0 ADD CALLDATALOAD SWAP5 POP SWAP3 POP POP POP JUMP JUMPDEST PUSH4 0x4E487B71 PUSH1 0xE0 SHL PUSH1 0x0 MSTORE PUSH1 0x11 PUSH1 0x4 MSTORE PUSH1 0x24 PUSH1 0x0 REVERT JUMPDEST DUP2 DUP2 SUB DUP2 DUP2 GT ISZERO PUSH2 0xC03 JUMPI PUSH2 0xC03 PUSH2 0x1565 JUMP JUMPDEST PUSH1 0x0 DUP3 PUSH2 0x15AB JUMPI PUSH4 0x4E487B71 PUSH1 0xE0 SHL PUSH1 0x0 MSTORE PUSH1 0x12 PUSH1 0x4 MSTORE PUSH1 0x24 PUSH1 0x0 REVERT JUMPDEST POP DIV SWAP1 JUMP JUMPDEST PUSH4 0x4E487B71 PUSH1 0xE0 SHL PUSH1 0x0 MSTORE PUSH1 0x21 PUSH1 0x4 MSTORE PUSH1 0x24 PUSH1 0x0 REVERT JUMPDEST PUSH1 0x0 PUSH1 0x1 DUP3 ADD PUSH2 0x15D8 JUMPI PUSH2 0x15D8 PUSH2 0x1565 JUMP JUMPDEST POP PUSH1 0x1 ADD SWAP1 JUMP JUMPDEST DUP1 DUP3 ADD DUP1 DUP3 GT ISZERO PUSH2 0xC03 JUMPI PUSH2 0xC03 PUSH2 0x1565 JUMP JUMPDEST PUSH1 0x40 DUP2 ADD PUSH1 0x5 DUP5 LT PUSH2 0x1614 JUMPI PUSH4 0x4E487B71 PUSH1 0xE0 SHL PUSH1 0x0 MSTORE PUSH1 0x21 PUSH1 0x4 MSTORE PUSH1 0x24 PUSH1 0x0 REVERT JUMPDEST SWAP3 DUP2 MSTORE PUSH1 0x20 ADD MSTORE SWAP1 JUMP JUMPDEST PUSH4 0x4E487B71 PUSH1 0xE0 SHL PUSH1 0x0 MSTORE PUSH1 0x32 PUSH1 0x4 MSTORE PUSH1 0x24 PUSH1 0x0 REVERT JUMPDEST DUP1 DUP3 MUL DUP2 ISZERO DUP3 DUP3 DIV DUP5 EQ OR PUSH2 0xC03 JUMPI PUSH2 0xC03 PUSH2 0x1565 JUMP INVALID LOG2 PUSH5 0x6970667358 0x22 SLT KECCAK256 DIV PUSH15 0x38A0B814A53683DB247CA47DEEFD20 0xB8 0xBB DUP1 0xE6 0xD0 0xAC 0xB8 PUSH0 LOG2 0xBF 0xCC 0x1E TIMESTAMP SGT 0xCF PUSH5 0x736F6C6343 STOP ADDMOD EQ STOP CALLER "},"methodIdentifiers":{"CREDIT_MIX_WEIGHT()":"6d124c1b","DEFAULT_PENALTY_WEIGHT()":"72ef287f","HISTORY_LENGTH_WEIGHT()":"b0b6d77b","INITIAL_SCORE()":"de330373","MAX_SCORE()":"27ff6223","MIN_SCORE()":"40b89270","PAYMENT_HISTORY_WEIGHT()":"7899460c","UTILIZATION_WEIGHT()":"e4a1512a","addAuthorizedUpdater(address)":"8c9b9fdc","authorizedUpdaters(address)":"8ff29cfe","batchUpdateScores(address[])":"9cc13ad5","calculateCreditScore(address)":"f1c3753a","creditHistory(address)":"c178fbbc","emergencyResetScore(address,uint256)":"69fdc448","getCreditData(address)":"59157a27","getScoreBreakdown(address)":"2c27750a","getUserCreditSummary(address)":"08a54db1","initializeUser(address,uint256,uint256,uint256,uint256,uint256)":"9d864dd3","isEligibleForCredit(address,uint256)":"8f7d02af","owner()":"8da5cb5b","pause()":"8456cb59","paused()":"5c975abb","removeAuthorizedUpdater(address)":"603cda09","renounceOwnership()":"715018a6","setCreditLimit(address,uint256)":"49d5034d","transferOwnership(address)":"f2fde38b","unpause()":"3f4ba83a","updateCreditMetrics(address,uint8,uint256)":"808af005","userFirstBorrowTime(address)":"c060d0f7","userTotalCreditLimit(address)":"d93c40ef"}},"storageLayout":{"storage":[{"astId":8,"contract":"contracts/CreditScoringOracle.sol:CreditScoringOracle","label":"_owner","offset":0,"slot":"0","type":"t_address"},{"astId":844,"contract":"contracts/CreditScoringOracle.sol:CreditScoringOracle","label":"_paused","offset":20,"slot":"0","type":"t_bool"},{"astId":2752,"contract":"contracts/CreditScoringOracle.sol:CreditScoringOracle","label":"creditHistory","offset":0,"slot":"1","type":"t_mapping(t_address,t_struct(CreditData)4063_storage)"},{"astId":2756,"contract":"contracts/CreditScoringOracle.sol:CreditScoringOracle","label":"authorizedUpdaters","offset":0,"slot":"2","type":"t_mapping(t_address,t_bool)"},{"astId":2760,"contract":"contracts/CreditScoringOracle.sol:CreditScoringOracle","label":"userFirstBorrowTime","offset":0,"slot":"3","type":"t_mapping(t_address,t_uint256)"},{"astId":2764,"contract":"contracts/CreditScoringOracle.sol:CreditScoringOracle","label":"userTotalCreditLimit","offset":0,"slot":"4","type":"t_mapping(t_address,t_uint256)"}],"types":{"t_address":{"encoding":"inplace","label":"address","numberOfBytes":"20"},"t_bool":{"encoding":"inplace","label":"bool","numberOfBytes":"1"},"t_mapping(t_address,t_bool)":{"encoding":"mapping","key":"t_address","label":"mapping(address => bool)","numberOfBytes":"32","value":"t_bool"},"t_mapping(t_address,t_struct(CreditData)4063_storage)":{"encoding":"mapping","key":"t_address","label":"mapping(address => struct ICreditScoringOracle.CreditData)","numberOfBytes":"32","value":"t_struct(CreditData)4063_storage"},"t_mapping(t_address,t_uint256)":{"encoding":"mapping","key":"t_address","label":"mapping(address => uint256)","numberOfBytes":"32","value":"t_uint256"},"t_struct(CreditData)4063_storage":{"encoding":"inplace","label":"struct ICreditScoringOracle.CreditData","members":[{"astId":4050,"contract":"contracts/CreditScoringOracle.sol:CreditScoringOracle","label":"score","offset":0,"slot":"0","type":"t_uint256"},{"astId":4052,"contract":"contracts/CreditScoringOracle.sol:CreditScoringOracle","label":"totalBorrowed","offset":0,"slot":"1","type":"t_uint256"},{"astId":4054,"contract":"contracts/CreditScoringOracle.sol:CreditScoringOracle","label":"totalRepaid","offset":0,"slot":"2","type":"t_uint256"},{"astId":4056,"contract":"contracts/CreditScoringOracle.sol:CreditScoringOracle","label":"defaultCount","offset":0,"slot":"3","type":"t_uint256"},{"astId":4058,"contract":"contracts/CreditScoringOracle.sol:CreditScoringOracle","label":"onTimePayments","offset":0,"slot":"4","type":"t_uint256"},{"astId":4060,"contract":"contracts/CreditScoringOracle.sol:CreditScoringOracle","label":"utilizationRate","offset":0,"slot":"5","type":"t_uint256"},{"astId":4062,"contract":"contracts/CreditScoringOracle.sol:CreditScoringOracle","label":"lastUpdateBlock","offset":0,"slot":"6","type":"t_uint256"}],"numberOfBytes":"224"},"t_uint256":{"encoding":"inplace","label":"uint256","numberOfBytes":"32"}}}}}}