{"contracts/CreditAggregator.sol":{"CreditAggregator":{"abi":[{"inputs":[{"internalType":"address","name":"_collateralManager","type":"address"},{"internalType":"address","name":"_creditScoringOracle","type":"address"},{"internalType":"address","name":"_riskManager","type":"address"},{"internalType":"address","name":"_owner","type":"address"}],"stateMutability":"nonpayable","type":"constructor"},{"inputs":[],"name":"EnforcedPause","type":"error"},{"inputs":[],"name":"ExpectedPause","type":"error"},{"inputs":[{"internalType":"address","name":"owner","type":"address"}],"name":"OwnableInvalidOwner","type":"error"},{"inputs":[{"internalType":"address","name":"account","type":"address"}],"name":"OwnableUnauthorizedAccount","type":"error"},{"inputs":[],"name":"ReentrancyGuardReentrantCall","type":"error"},{"anonymous":false,"inputs":[{"indexed":true,"internalType":"address","name":"contractAddress","type":"address"}],"name":"AuthorizedContractAdded","type":"event"},{"anonymous":false,"inputs":[{"indexed":true,"internalType":"address","name":"contractAddress","type":"address"}],"name":"AuthorizedContractRemoved","type":"event"},{"anonymous":false,"inputs":[{"indexed":true,"internalType":"uint256","name":"creditId","type":"uint256"},{"indexed":true,"internalType":"address","name":"liquidator","type":"address"}],"name":"CreditLiquidated","type":"event"},{"anonymous":false,"inputs":[{"indexed":true,"internalType":"uint256","name":"creditId","type":"uint256"},{"indexed":false,"internalType":"uint256","name":"amount","type":"uint256"}],"name":"CreditRepaid","type":"event"},{"anonymous":false,"inputs":[{"indexed":true,"internalType":"uint256","name":"creditId","type":"uint256"},{"indexed":true,"internalType":"address","name":"borrower","type":"address"},{"indexed":false,"internalType":"uint256","name":"amount","type":"uint256"}],"name":"CreditRequested","type":"event"},{"anonymous":false,"inputs":[{"indexed":true,"internalType":"address","name":"previousOwner","type":"address"},{"indexed":true,"internalType":"address","name":"newOwner","type":"address"}],"name":"OwnershipTransferred","type":"event"},{"anonymous":false,"inputs":[{"indexed":false,"internalType":"address","name":"account","type":"address"}],"name":"Paused","type":"event"},{"anonymous":false,"inputs":[{"indexed":false,"internalType":"address","name":"account","type":"address"}],"name":"Unpaused","type":"event"},{"inputs":[{"internalType":"address","name":"contractAddress","type":"address"}],"name":"addAuthorizedContract","outputs":[],"stateMutability":"nonpayable","type":"function"},{"inputs":[{"internalType":"address","name":"","type":"address"}],"name":"authorizedContracts","outputs":[{"internalType":"bool","name":"","type":"bool"}],"stateMutability":"view","type":"function"},{"inputs":[],"name":"collateralManager","outputs":[{"internalType":"contract ICollateralManager","name":"","type":"address"}],"stateMutability":"view","type":"function"},{"inputs":[{"internalType":"uint256","name":"","type":"uint256"}],"name":"creditPositions","outputs":[{"internalType":"address","name":"borrower","type":"address"},{"internalType":"uint256","name":"principal","type":"uint256"},{"internalType":"uint256","name":"interestRate","type":"uint256"},{"internalType":"uint256","name":"collateralAmount","type":"uint256"},{"internalType":"address","name":"collateralToken","type":"address"},{"internalType":"uint256","name":"startTime","type":"uint256"},{"internalType":"uint256","name":"duration","type":"uint256"},{"internalType":"enum CreditAggregator.CreditStatus","name":"status","type":"uint8"},{"internalType":"address","name":"lendingProtocol","type":"address"}],"stateMutability":"view","type":"function"},{"inputs":[],"name":"creditScoringOracle","outputs":[{"internalType":"contract ICreditScoringOracle","name":"","type":"address"}],"stateMutability":"view","type":"function"},{"inputs":[{"internalType":"uint256","name":"creditId","type":"uint256"}],"name":"getCreditPosition","outputs":[{"components":[{"internalType":"address","name":"borrower","type":"address"},{"internalType":"uint256","name":"principal","type":"uint256"},{"internalType":"uint256","name":"interestRate","type":"uint256"},{"internalType":"uint256","name":"collateralAmount","type":"uint256"},{"internalType":"address","name":"collateralToken","type":"address"},{"internalType":"uint256","name":"startTime","type":"uint256"},{"internalType":"uint256","name":"duration","type":"uint256"},{"internalType":"enum CreditAggregator.CreditStatus","name":"status","type":"uint8"},{"internalType":"address","name":"lendingProtocol","type":"address"}],"internalType":"struct CreditAggregator.CreditPosition","name":"","type":"tuple"}],"stateMutability":"view","type":"function"},{"inputs":[{"internalType":"address","name":"user","type":"address"}],"name":"getUserCredits","outputs":[{"internalType":"uint256[]","name":"","type":"uint256[]"}],"stateMutability":"view","type":"function"},{"inputs":[{"internalType":"address","name":"account","type":"address"}],"name":"isAuthorized","outputs":[{"internalType":"bool","name":"","type":"bool"}],"stateMutability":"view","type":"function"},{"inputs":[{"internalType":"uint256","name":"creditId","type":"uint256"}],"name":"liquidate","outputs":[],"stateMutability":"nonpayable","type":"function"},{"inputs":[],"name":"owner","outputs":[{"internalType":"address","name":"","type":"address"}],"stateMutability":"view","type":"function"},{"inputs":[],"name":"pause","outputs":[],"stateMutability":"nonpayable","type":"function"},{"inputs":[],"name":"paused","outputs":[{"internalType":"bool","name":"","type":"bool"}],"stateMutability":"view","type":"function"},{"inputs":[{"internalType":"address","name":"","type":"address"}],"name":"protocolWeights","outputs":[{"internalType":"uint256","name":"","type":"uint256"}],"stateMutability":"view","type":"function"},{"inputs":[{"internalType":"address","name":"contractAddress","type":"address"}],"name":"removeAuthorizedContract","outputs":[],"stateMutability":"nonpayable","type":"function"},{"inputs":[],"name":"renounceOwnership","outputs":[],"stateMutability":"nonpayable","type":"function"},{"inputs":[{"internalType":"uint256","name":"creditId","type":"uint256"},{"internalType":"uint256","name":"amount","type":"uint256"}],"name":"repayCredit","outputs":[],"stateMutability":"nonpayable","type":"function"},{"inputs":[{"internalType":"uint256","name":"amount","type":"uint256"},{"internalType":"address","name":"collateral","type":"address"},{"internalType":"uint256","name":"collateralAmount","type":"uint256"},{"internalType":"uint256","name":"duration","type":"uint256"}],"name":"requestCredit","outputs":[{"internalType":"uint256","name":"creditId","type":"uint256"}],"stateMutability":"nonpayable","type":"function"},{"inputs":[],"name":"riskManager","outputs":[{"internalType":"contract IRiskManager","name":"","type":"address"}],"stateMutability":"view","type":"function"},{"inputs":[{"internalType":"address","name":"protocol","type":"address"},{"internalType":"uint256","name":"weight","type":"uint256"}],"name":"setProtocolWeight","outputs":[],"stateMutability":"nonpayable","type":"function"},{"inputs":[{"internalType":"address","name":"newOwner","type":"address"}],"name":"transferOwnership","outputs":[],"stateMutability":"nonpayable","type":"function"},{"inputs":[],"name":"unpause","outputs":[],"stateMutability":"nonpayable","type":"function"},{"inputs":[{"internalType":"address","name":"_collateralManager","type":"address"}],"name":"updateCollateralManager","outputs":[],"stateMutability":"nonpayable","type":"function"},{"inputs":[{"internalType":"address","name":"_creditScoringOracle","type":"address"}],"name":"updateCreditScoringOracle","outputs":[],"stateMutability":"nonpayable","type":"function"},{"inputs":[{"internalType":"address","name":"_riskManager","type":"address"}],"name":"updateRiskManager","outputs":[],"stateMutability":"nonpayable","type":"function"},{"inputs":[{"internalType":"address","name":"","type":"address"},{"internalType":"uint256","name":"","type":"uint256"}],"name":"userCredits","outputs":[{"internalType":"uint256","name":"","type":"uint256"}],"stateMutability":"view","type":"function"}],"evm":{"bytecode":{"linkReferences":{},"object":"60806040523480156200001157600080fd5b50604051620019a6380380620019a6833981016040819052620000349162000127565b80806001600160a01b0381166200006557604051631e4fbdf760e01b81526000600482015260240160405180910390fd5b6200007081620000ba565b50506001805550600780546001600160a01b039485166001600160a01b03199182161790915560088054938516938216939093179092556009805491909316911617905562000184565b600080546001600160a01b038381166001600160a01b0319831681178455604051919092169283917f8be0079c531659141344cd1fd0a4f28419497f9722a3daafe3b4186f6b6457e09190a35050565b80516001600160a01b03811681146200012257600080fd5b919050565b600080600080608085870312156200013e57600080fd5b62000149856200010a565b935062000159602086016200010a565b925062000169604086016200010a565b915062000179606086016200010a565b905092959194509250565b61181280620001946000396000f3fe608060405234801561001057600080fd5b50600436106101735760003560e01c8063715018a6116100de5780638da5cb5b11610097578063d5b9221b11610071578063d5b9221b146103b0578063e6b165ed146103d3578063f2fde38b146103e6578063fe9fbb80146103f957600080fd5b80638da5cb5b1461037957806398eaa4a71461038a578063b378a4491461039d57600080fd5b8063715018a61461030357806376c1b82f1461030b5780637deb256f1461032b57806381b26dda1461033e57806383590a721461035e5780638456cb591461037157600080fd5b80634784266311610130578063478426631461021957806351d9f3ec1461022c57806359d20b4e1461023f5780635c975abb146102bf578063674fed27146102dd5780636b604332146102f057600080fd5b806317a483a31461017857806323be345c1461019e5780632fcbd1e8146101c95780633ab67ea3146101dc5780633f4ba83a146101fc578063415f124014610206575b600080fd5b61018b6101863660046114f1565b61040c565b6040519081526020015b60405180910390f35b6007546101b1906001600160a01b031681565b6040516001600160a01b039091168152602001610195565b61018b6101d736600461151b565b61043d565b61018b6101ea366004611556565b60056020526000908152604090205481565b610204610824565b005b610204610214366004611578565b610836565b6009546101b1906001600160a01b031681565b61020461023a366004611556565b610a3b565b6102aa61024d366004611578565b6003602081905260009182526040909120805460018201546002830154938301546004840154600585015460068601546007909601546001600160a01b03958616979496949593949284169391929160ff82169161010090041689565b604051610195999897969594939291906115bb565b600054600160a01b900460ff165b6040519015158152602001610195565b6102046102eb3660046114f1565b610a65565b6102046102fe366004611556565b610a89565b610204610ab3565b61031e610319366004611578565b610ac5565b604051610195919061161e565b6008546101b1906001600160a01b031681565b61035161034c366004611556565b610b8c565b604051610195919061169e565b61020461036c3660046116e2565b610bf8565b610204610e44565b6000546001600160a01b03166101b1565b610204610398366004611556565b610e54565b6102046103ab366004611556565b610ef0565b6102cd6103be366004611556565b60026020526000908152604090205460ff1681565b6102046103e1366004611556565b610f1a565b6102046103f4366004611556565b610f6b565b6102cd610407366004611556565b610fa6565b6004602052816000526040600020818154811061042857600080fd5b90600052602060002001600091509150505481565b6000610447610fe0565b61044f61100a565b600085116104955760405162461bcd60e51b815260206004820152600e60248201526d125b9d985b1a5908185b5bdd5b9d60921b60448201526064015b60405180910390fd5b600082116104d85760405162461bcd60e51b815260206004820152601060248201526f24b73b30b634b210323ab930ba34b7b760811b604482015260640161048c565b6008546040516378e1ba9d60e11b81523360048201526000916001600160a01b03169063f1c3753a90602401602060405180830381865afa158015610521573d6000803e3d6000fd5b505050506040513d601f19601f820116820180604052508101906105459190611704565b9050600960009054906101000a90046001600160a01b03166001600160a01b031663b7161fac6040518163ffffffff1660e01b8152600401602060405180830381865afa15801561059a573d6000803e3d6000fd5b505050506040513d601f19601f820116820180604052508101906105be9190611704565b81101561060d5760405162461bcd60e51b815260206004820152601960248201527f496e73756666696369656e74206372656469742073636f726500000000000000604482015260640161048c565b60075460405163ee82616160e01b81523360048201526001600160a01b038781166024830152604482018790529091169063ee82616190606401600060405180830381600087803b15801561066157600080fd5b505af1158015610675573d6000803e3d6000fd5b50600092508291506106849050565b90506000610693338985611035565b90506006600081546106a490611733565b9182905550604080516101208101825233815260208082018c8152828401868152606084018c81526001600160a01b038e8116608087019081524260a0880190815260c088018f8152600060e08a018181528e86166101008c01528c82526003998a90529a9020895181549086166001600160a01b031991821617825597516001808301919091559651600282015594518589015591516004850180549190941696169590951790915592516005820155915160068301559351600782018054969a509395919490939260ff199290921691849081111561078757610787611591565b0217905550610100918201516007919091018054610100600160a81b0319166001600160a01b0390921690920217905533600081815260046020908152604080832080546001810182559084529282902090920187905590518a815286917f6e2dc5c76238d5094ccf6f24932391fddf95acea0897c28ce1f5cf6976f97fd0910160405180910390a350505061081c60018055565b949350505050565b61082c611079565b6108346110a6565b565b61083e610fe0565b600081815260036020526040812090600782015460ff16600381111561086657610866611591565b146108a75760405162461bcd60e51b8152602060048201526011602482015270437265646974206e6f742061637469766560781b604482015260640161048c565b6108b0826110fb565b6108fc5760405162461bcd60e51b815260206004820152601960248201527f506f736974696f6e206e6f74206c6971756964617461626c6500000000000000604482015260640161048c565b6007810180546003919060ff1916600183021790555060075481546004808401546003850154604051631ddaa6bf60e11b81526001600160a01b039485169381019390935290831660248301526044820152336064820152911690633bb54d7e90608401600060405180830381600087803b15801561097a57600080fd5b505af115801561098e573d6000803e3d6000fd5b50506008548354600185015460405163808af00560e01b81526001600160a01b03938416955063808af00594506109cf93909216916002919060040161174c565b600060405180830381600087803b1580156109e957600080fd5b505af11580156109fd573d6000803e3d6000fd5b50506040513392508491507f1e97c7237b9dc1bd4c57b7984f3a69f14e6e7336c90cd66b6d3c09325cec5fe390600090a350610a3860018055565b50565b610a43611079565b600980546001600160a01b0319166001600160a01b0392909216919091179055565b610a6d611079565b6001600160a01b03909116600090815260056020526040902055565b610a91611079565b600880546001600160a01b0319166001600160a01b0392909216919091179055565b610abb611079565b610834600061128b565b610acd611466565b60008281526003602081815260409283902083516101208101855281546001600160a01b03908116825260018301549382019390935260028201549481019490945280830154606085015260048101549091166080840152600581015460a0840152600681015460c08401526007810154909160e084019160ff1690811115610b5857610b58611591565b6003811115610b6957610b69611591565b81526007919091015461010090046001600160a01b031660209091015292915050565b6001600160a01b038116600090815260046020908152604091829020805483518184028101840190945280845260609392830182828015610bec57602002820191906000526020600020905b815481526020019060010190808311610bd8575b50505050509050919050565b610c00610fe0565b600082815260036020526040902080546001600160a01b03163314610c565760405162461bcd60e51b815260206004820152600c60248201526b2737ba103137b93937bbb2b960a11b604482015260640161048c565b6000600782015460ff166003811115610c7157610c71611591565b14610cb25760405162461bcd60e51b8152602060048201526011602482015270437265646974206e6f742061637469766560781b604482015260640161048c565b6000610cbd846112db565b905080831015610d0f5760405162461bcd60e51b815260206004820152601d60248201527f496e73756666696369656e742072657061796d656e7420616d6f756e74000000604482015260640161048c565b6007828101805460ff1916600117905554600480840154600385015460405163fbd24bbb60e01b815233938101939093526001600160a01b03918216602484015260448301529091169063fbd24bbb90606401600060405180830381600087803b158015610d7c57600080fd5b505af1158015610d90573d6000803e3d6000fd5b505060085460405163808af00560e01b81526001600160a01b03909116925063808af0059150610dc9903390600090889060040161174c565b600060405180830381600087803b158015610de357600080fd5b505af1158015610df7573d6000803e3d6000fd5b50505050837f6c20cb77003cf585315d927a3f2307e389796834d5e6d79097209d0ad0fdabe784604051610e2d91815260200190565b60405180910390a25050610e4060018055565b5050565b610e4c611079565b6108346113f9565b610e5c611079565b6001600160a01b038116610ea45760405162461bcd60e51b815260206004820152600f60248201526e496e76616c6964206164647265737360881b604482015260640161048c565b6001600160a01b038116600081815260026020526040808220805460ff19166001179055517f351e40fe333cede9dd79a1ef4d16228b1702f272eb2c2166ec3c7ee6a9d4ce2c9190a250565b610ef8611079565b600780546001600160a01b0319166001600160a01b0392909216919091179055565b610f22611079565b6001600160a01b038116600081815260026020526040808220805460ff19169055517f98a35376356c1565159c1b44676fcfa951a2287e2a816e208cf92e7aeb585a4f9190a250565b610f73611079565b6001600160a01b038116610f9d57604051631e4fbdf760e01b81526000600482015260240161048c565b610a388161128b565b6001600160a01b03811660009081526002602052604081205460ff1680610fda57506000546001600160a01b038381169116145b92915050565b60026001540361100357604051633ee5aeb560e01b815260040160405180910390fd5b6002600155565b600054600160a01b900460ff16156108345760405163d93c066560e01b815260040160405180910390fd5b60006101f4816102bc841161106057611050846102bc61177d565b61105b90600a611790565b611063565b60005b905061106f81836117a7565b9695505050505050565b6000546001600160a01b031633146108345760405163118cdaa760e01b815233600482015260240161048c565b6110ae61143c565b6000805460ff60a01b191690557f5db9ee0a495bf2e6ff9c91a7834c1ba4fdd244a5e8aa4e537bd38aeae4b073aa335b6040516001600160a01b03909116815260200160405180910390a1565b600081815260036020818152604080842081516101208101835281546001600160a01b03908116825260018301549482019490945260028201549281019290925280840154606083015260048101549092166080820152600582015460a0820152600682015460c08201526007820154849391929160e084019160ff169081111561118857611188611591565b600381111561119957611199611591565b81526007919091015461010090046001600160a01b031660209091015260c081015160a08201519192506000916111d091906117a7565b6007548351604051634bc8272160e11b81526001600160a01b039182166004820152429390931193506000929116906397904e4290602401602060405180830381865afa158015611225573d6000803e3d6000fd5b505050506040513d601f19601f820116820180604052508101906112499190611704565b90506000611256866112db565b905060008161126784612710611790565b61127191906117ba565b905083806112805750612ee081105b979650505050505050565b600080546001600160a01b038381166001600160a01b0319831681178455604051919092169283917f8be0079c531659141344cd1fd0a4f28419497f9722a3daafe3b4186f6b6457e09190a35050565b600081815260036020818152604080842081516101208101835281546001600160a01b03908116825260018301549482019490945260028201549281019290925280840154606083015260048101549092166080820152600582015460a0820152600682015460c08201526007820154849391929160e084019160ff169081111561136857611368611591565b600381111561137957611379611591565b81526007919091015461010090046001600160a01b031660209091015260a08101519091506000906113ab904261177d565b9050600064496cebb80082846040015185602001516113ca9190611790565b6113d49190611790565b6113de91906117ba565b90508083602001516113f091906117a7565b95945050505050565b61140161100a565b6000805460ff60a01b1916600160a01b1790557f62e78cea01bee320cd4e420270b5ea74000d11b0c9f74754ebdbfc544b05a2586110de3390565b600054600160a01b900460ff1661083457604051638dfc202b60e01b815260040160405180910390fd5b60405180610120016040528060006001600160a01b0316815260200160008152602001600081526020016000815260200160006001600160a01b031681526020016000815260200160008152602001600060038111156114c8576114c8611591565b8152600060209091015290565b80356001600160a01b03811681146114ec57600080fd5b919050565b6000806040838503121561150457600080fd5b61150d836114d5565b946020939093013593505050565b6000806000806080858703121561153157600080fd5b84359350611541602086016114d5565b93969395505050506040820135916060013590565b60006020828403121561156857600080fd5b611571826114d5565b9392505050565b60006020828403121561158a57600080fd5b5035919050565b634e487b7160e01b600052602160045260246000fd5b600481106115b7576115b7611591565b9052565b6001600160a01b038a81168252602082018a90526040820189905260608201889052868116608083015260a0820186905260c0820185905261012082019061160660e08401866115a7565b808416610100840152509a9950505050505050505050565b60006101208201905060018060a01b038084511683526020840151602084015260408401516040840152606084015160608401528060808501511660808401525060a083015160a083015260c083015160c083015260e083015161168560e08401826115a7565b50610100928301516001600160a01b0316919092015290565b6020808252825182820181905260009190848201906040850190845b818110156116d6578351835292840192918401916001016116ba565b50909695505050505050565b600080604083850312156116f557600080fd5b50508035926020909101359150565b60006020828403121561171657600080fd5b5051919050565b634e487b7160e01b600052601160045260246000fd5b6000600182016117455761174561171d565b5060010190565b6001600160a01b0384168152606081016005841061176c5761176c611591565b602082019390935260400152919050565b81810381811115610fda57610fda61171d565b8082028115828204841417610fda57610fda61171d565b80820180821115610fda57610fda61171d565b6000826117d757634e487b7160e01b600052601260045260246000fd5b50049056fea264697066735822122027e91ce0db9b0cc2256f4a75f74cf7f78c94c9f315997520217629bd58b5e4b264736f6c63430008140033","opcodes":"PUSH1 0x80 PUSH1 0x40 MSTORE CALLVALUE DUP1 ISZERO PUSH3 0x11 JUMPI PUSH1 0x0 DUP1 REVERT JUMPDEST POP PUSH1 0x40 MLOAD PUSH3 0x19A6 CODESIZE SUB DUP1 PUSH3 0x19A6 DUP4 CODECOPY DUP2 ADD PUSH1 0x40 DUP2 SWAP1 MSTORE PUSH3 0x34 SWAP2 PUSH3 0x127 JUMP JUMPDEST DUP1 DUP1 PUSH1 0x1 PUSH1 0x1 PUSH1 0xA0 SHL SUB DUP2 AND PUSH3 0x65 JUMPI PUSH1 0x40 MLOAD PUSH4 0x1E4FBDF7 PUSH1 0xE0 SHL DUP2 MSTORE PUSH1 0x0 PUSH1 0x4 DUP3 ADD MSTORE PUSH1 0x24 ADD PUSH1 0x40 MLOAD DUP1 SWAP2 SUB SWAP1 REVERT JUMPDEST PUSH3 0x70 DUP2 PUSH3 0xBA JUMP JUMPDEST POP POP PUSH1 0x1 DUP1 SSTORE POP PUSH1 0x7 DUP1 SLOAD PUSH1 0x1 PUSH1 0x1 PUSH1 0xA0 SHL SUB SWAP5 DUP6 AND PUSH1 0x1 PUSH1 0x1 PUSH1 0xA0 SHL SUB NOT SWAP2 DUP3 AND OR SWAP1 SWAP2 SSTORE PUSH1 0x8 DUP1 SLOAD SWAP4 DUP6 AND SWAP4 DUP3 AND SWAP4 SWAP1 SWAP4 OR SWAP1 SWAP3 SSTORE PUSH1 0x9 DUP1 SLOAD SWAP2 SWAP1 SWAP4 AND SWAP2 AND OR SWAP1 SSTORE PUSH3 0x184 JUMP JUMPDEST PUSH1 0x0 DUP1 SLOAD PUSH1 0x1 PUSH1 0x1 PUSH1 0xA0 SHL SUB DUP4 DUP2 AND PUSH1 0x1 PUSH1 0x1 PUSH1 0xA0 SHL SUB NOT DUP4 AND DUP2 OR DUP5 SSTORE PUSH1 0x40 MLOAD SWAP2 SWAP1 SWAP3 AND SWAP3 DUP4 SWAP2 PUSH32 0x8BE0079C531659141344CD1FD0A4F28419497F9722A3DAAFE3B4186F6B6457E0 SWAP2 SWAP1 LOG3 POP POP JUMP JUMPDEST DUP1 MLOAD PUSH1 0x1 PUSH1 0x1 PUSH1 0xA0 SHL SUB DUP2 AND DUP2 EQ PUSH3 0x122 JUMPI PUSH1 0x0 DUP1 REVERT JUMPDEST SWAP2 SWAP1 POP JUMP JUMPDEST PUSH1 0x0 DUP1 PUSH1 0x0 DUP1 PUSH1 0x80 DUP6 DUP8 SUB SLT ISZERO PUSH3 0x13E JUMPI PUSH1 0x0 DUP1 REVERT JUMPDEST PUSH3 0x149 DUP6 PUSH3 0x10A JUMP JUMPDEST SWAP4 POP PUSH3 0x159 PUSH1 0x20 DUP7 ADD PUSH3 0x10A JUMP JUMPDEST SWAP3 POP PUSH3 0x169 PUSH1 0x40 DUP7 ADD PUSH3 0x10A JUMP JUMPDEST SWAP2 POP PUSH3 0x179 PUSH1 0x60 DUP7 ADD PUSH3 0x10A JUMP JUMPDEST SWAP1 POP SWAP3 SWAP6 SWAP2 SWAP5 POP SWAP3 POP JUMP JUMPDEST PUSH2 0x1812 DUP1 PUSH3 0x194 PUSH1 0x0 CODECOPY PUSH1 0x0 RETURN INVALID PUSH1 0x80 PUSH1 0x40 MSTORE CALLVALUE DUP1 ISZERO PUSH2 0x10 JUMPI PUSH1 0x0 DUP1 REVERT JUMPDEST POP PUSH1 0x4 CALLDATASIZE LT PUSH2 0x173 JUMPI PUSH1 0x0 CALLDATALOAD PUSH1 0xE0 SHR DUP1 PUSH4 0x715018A6 GT PUSH2 0xDE JUMPI DUP1 PUSH4 0x8DA5CB5B GT PUSH2 0x97 JUMPI DUP1 PUSH4 0xD5B9221B GT PUSH2 0x71 JUMPI DUP1 PUSH4 0xD5B9221B EQ PUSH2 0x3B0 JUMPI DUP1 PUSH4 0xE6B165ED EQ PUSH2 0x3D3 JUMPI DUP1 PUSH4 0xF2FDE38B EQ PUSH2 0x3E6 JUMPI DUP1 PUSH4 0xFE9FBB80 EQ PUSH2 0x3F9 JUMPI PUSH1 0x0 DUP1 REVERT JUMPDEST DUP1 PUSH4 0x8DA5CB5B EQ PUSH2 0x379 JUMPI DUP1 PUSH4 0x98EAA4A7 EQ PUSH2 0x38A JUMPI DUP1 PUSH4 0xB378A449 EQ PUSH2 0x39D JUMPI PUSH1 0x0 DUP1 REVERT JUMPDEST DUP1 PUSH4 0x715018A6 EQ PUSH2 0x303 JUMPI DUP1 PUSH4 0x76C1B82F EQ PUSH2 0x30B JUMPI DUP1 PUSH4 0x7DEB256F EQ PUSH2 0x32B JUMPI DUP1 PUSH4 0x81B26DDA EQ PUSH2 0x33E JUMPI DUP1 PUSH4 0x83590A72 EQ PUSH2 0x35E JUMPI DUP1 PUSH4 0x8456CB59 EQ PUSH2 0x371 JUMPI PUSH1 0x0 DUP1 REVERT JUMPDEST DUP1 PUSH4 0x47842663 GT PUSH2 0x130 JUMPI DUP1 PUSH4 0x47842663 EQ PUSH2 0x219 JUMPI DUP1 PUSH4 0x51D9F3EC EQ PUSH2 0x22C JUMPI DUP1 PUSH4 0x59D20B4E EQ PUSH2 0x23F JUMPI DUP1 PUSH4 0x5C975ABB EQ PUSH2 0x2BF JUMPI DUP1 PUSH4 0x674FED27 EQ PUSH2 0x2DD JUMPI DUP1 PUSH4 0x6B604332 EQ PUSH2 0x2F0 JUMPI PUSH1 0x0 DUP1 REVERT JUMPDEST DUP1 PUSH4 0x17A483A3 EQ PUSH2 0x178 JUMPI DUP1 PUSH4 0x23BE345C EQ PUSH2 0x19E JUMPI DUP1 PUSH4 0x2FCBD1E8 EQ PUSH2 0x1C9 JUMPI DUP1 PUSH4 0x3AB67EA3 EQ PUSH2 0x1DC JUMPI DUP1 PUSH4 0x3F4BA83A EQ PUSH2 0x1FC JUMPI DUP1 PUSH4 0x415F1240 EQ PUSH2 0x206 JUMPI JUMPDEST PUSH1 0x0 DUP1 REVERT JUMPDEST PUSH2 0x18B PUSH2 0x186 CALLDATASIZE PUSH1 0x4 PUSH2 0x14F1 JUMP JUMPDEST PUSH2 0x40C JUMP JUMPDEST PUSH1 0x40 MLOAD SWAP1 DUP2 MSTORE PUSH1 0x20 ADD JUMPDEST PUSH1 0x40 MLOAD DUP1 SWAP2 SUB SWAP1 RETURN JUMPDEST PUSH1 0x7 SLOAD PUSH2 0x1B1 SWAP1 PUSH1 0x1 PUSH1 0x1 PUSH1 0xA0 SHL SUB AND DUP2 JUMP JUMPDEST PUSH1 0x40 MLOAD PUSH1 0x1 PUSH1 0x1 PUSH1 0xA0 SHL SUB SWAP1 SWAP2 AND DUP2 MSTORE PUSH1 0x20 ADD PUSH2 0x195 JUMP JUMPDEST PUSH2 0x18B PUSH2 0x1D7 CALLDATASIZE PUSH1 0x4 PUSH2 0x151B JUMP JUMPDEST PUSH2 0x43D JUMP JUMPDEST PUSH2 0x18B PUSH2 0x1EA CALLDATASIZE PUSH1 0x4 PUSH2 0x1556 JUMP JUMPDEST PUSH1 0x5 PUSH1 0x20 MSTORE PUSH1 0x0 SWAP1 DUP2 MSTORE PUSH1 0x40 SWAP1 KECCAK256 SLOAD DUP2 JUMP JUMPDEST PUSH2 0x204 PUSH2 0x824 JUMP JUMPDEST STOP JUMPDEST PUSH2 0x204 PUSH2 0x214 CALLDATASIZE PUSH1 0x4 PUSH2 0x1578 JUMP JUMPDEST PUSH2 0x836 JUMP JUMPDEST PUSH1 0x9 SLOAD PUSH2 0x1B1 SWAP1 PUSH1 0x1 PUSH1 0x1 PUSH1 0xA0 SHL SUB AND DUP2 JUMP JUMPDEST PUSH2 0x204 PUSH2 0x23A CALLDATASIZE PUSH1 0x4 PUSH2 0x1556 JUMP JUMPDEST PUSH2 0xA3B JUMP JUMPDEST PUSH2 0x2AA PUSH2 0x24D CALLDATASIZE PUSH1 0x4 PUSH2 0x1578 JUMP JUMPDEST PUSH1 0x3 PUSH1 0x20 DUP2 SWAP1 MSTORE PUSH1 0x0 SWAP2 DUP3 MSTORE PUSH1 0x40 SWAP1 SWAP2 KECCAK256 DUP1 SLOAD PUSH1 0x1 DUP3 ADD SLOAD PUSH1 0x2 DUP4 ADD SLOAD SWAP4 DUP4 ADD SLOAD PUSH1 0x4 DUP5 ADD SLOAD PUSH1 0x5 DUP6 ADD SLOAD PUSH1 0x6 DUP7 ADD SLOAD PUSH1 0x7 SWAP1 SWAP7 ADD SLOAD PUSH1 0x1 PUSH1 0x1 PUSH1 0xA0 SHL SUB SWAP6 DUP7 AND SWAP8 SWAP5 SWAP7 SWAP5 SWAP6 SWAP4 SWAP5 SWAP3 DUP5 AND SWAP4 SWAP2 SWAP3 SWAP2 PUSH1 0xFF DUP3 AND SWAP2 PUSH2 0x100 SWAP1 DIV AND DUP10 JUMP JUMPDEST PUSH1 0x40 MLOAD PUSH2 0x195 SWAP10 SWAP9 SWAP8 SWAP7 SWAP6 SWAP5 SWAP4 SWAP3 SWAP2 SWAP1 PUSH2 0x15BB JUMP JUMPDEST PUSH1 0x0 SLOAD PUSH1 0x1 PUSH1 0xA0 SHL SWAP1 DIV PUSH1 0xFF AND JUMPDEST PUSH1 0x40 MLOAD SWAP1 ISZERO ISZERO DUP2 MSTORE PUSH1 0x20 ADD PUSH2 0x195 JUMP JUMPDEST PUSH2 0x204 PUSH2 0x2EB CALLDATASIZE PUSH1 0x4 PUSH2 0x14F1 JUMP JUMPDEST PUSH2 0xA65 JUMP JUMPDEST PUSH2 0x204 PUSH2 0x2FE CALLDATASIZE PUSH1 0x4 PUSH2 0x1556 JUMP JUMPDEST PUSH2 0xA89 JUMP JUMPDEST PUSH2 0x204 PUSH2 0xAB3 JUMP JUMPDEST PUSH2 0x31E PUSH2 0x319 CALLDATASIZE PUSH1 0x4 PUSH2 0x1578 JUMP JUMPDEST PUSH2 0xAC5 JUMP JUMPDEST PUSH1 0x40 MLOAD PUSH2 0x195 SWAP2 SWAP1 PUSH2 0x161E JUMP JUMPDEST PUSH1 0x8 SLOAD PUSH2 0x1B1 SWAP1 PUSH1 0x1 PUSH1 0x1 PUSH1 0xA0 SHL SUB AND DUP2 JUMP JUMPDEST PUSH2 0x351 PUSH2 0x34C CALLDATASIZE PUSH1 0x4 PUSH2 0x1556 JUMP JUMPDEST PUSH2 0xB8C JUMP JUMPDEST PUSH1 0x40 MLOAD PUSH2 0x195 SWAP2 SWAP1 PUSH2 0x169E JUMP JUMPDEST PUSH2 0x204 PUSH2 0x36C CALLDATASIZE PUSH1 0x4 PUSH2 0x16E2 JUMP JUMPDEST PUSH2 0xBF8 JUMP JUMPDEST PUSH2 0x204 PUSH2 0xE44 JUMP JUMPDEST PUSH1 0x0 SLOAD PUSH1 0x1 PUSH1 0x1 PUSH1 0xA0 SHL SUB AND PUSH2 0x1B1 JUMP JUMPDEST PUSH2 0x204 PUSH2 0x398 CALLDATASIZE PUSH1 0x4 PUSH2 0x1556 JUMP JUMPDEST PUSH2 0xE54 JUMP JUMPDEST PUSH2 0x204 PUSH2 0x3AB CALLDATASIZE PUSH1 0x4 PUSH2 0x1556 JUMP JUMPDEST PUSH2 0xEF0 JUMP JUMPDEST PUSH2 0x2CD PUSH2 0x3BE CALLDATASIZE PUSH1 0x4 PUSH2 0x1556 JUMP JUMPDEST PUSH1 0x2 PUSH1 0x20 MSTORE PUSH1 0x0 SWAP1 DUP2 MSTORE PUSH1 0x40 SWAP1 KECCAK256 SLOAD PUSH1 0xFF AND DUP2 JUMP JUMPDEST PUSH2 0x204 PUSH2 0x3E1 CALLDATASIZE PUSH1 0x4 PUSH2 0x1556 JUMP JUMPDEST PUSH2 0xF1A JUMP JUMPDEST PUSH2 0x204 PUSH2 0x3F4 CALLDATASIZE PUSH1 0x4 PUSH2 0x1556 JUMP JUMPDEST PUSH2 0xF6B JUMP JUMPDEST PUSH2 0x2CD PUSH2 0x407 CALLDATASIZE PUSH1 0x4 PUSH2 0x1556 JUMP JUMPDEST PUSH2 0xFA6 JUMP JUMPDEST PUSH1 0x4 PUSH1 0x20 MSTORE DUP2 PUSH1 0x0 MSTORE PUSH1 0x40 PUSH1 0x0 KECCAK256 DUP2 DUP2 SLOAD DUP2 LT PUSH2 0x428 JUMPI PUSH1 0x0 DUP1 REVERT JUMPDEST SWAP1 PUSH1 0x0 MSTORE PUSH1 0x20 PUSH1 0x0 KECCAK256 ADD PUSH1 0x0 SWAP2 POP SWAP2 POP POP SLOAD DUP2 JUMP JUMPDEST PUSH1 0x0 PUSH2 0x447 PUSH2 0xFE0 JUMP JUMPDEST PUSH2 0x44F PUSH2 0x100A JUMP JUMPDEST PUSH1 0x0 DUP6 GT PUSH2 0x495 JUMPI PUSH1 0x40 MLOAD PUSH3 0x461BCD PUSH1 0xE5 SHL DUP2 MSTORE PUSH1 0x20 PUSH1 0x4 DUP3 ADD MSTORE PUSH1 0xE PUSH1 0x24 DUP3 ADD MSTORE PUSH14 0x125B9D985B1A5908185B5BDD5B9D PUSH1 0x92 SHL PUSH1 0x44 DUP3 ADD MSTORE PUSH1 0x64 ADD JUMPDEST PUSH1 0x40 MLOAD DUP1 SWAP2 SUB SWAP1 REVERT JUMPDEST PUSH1 0x0 DUP3 GT PUSH2 0x4D8 JUMPI PUSH1 0x40 MLOAD PUSH3 0x461BCD PUSH1 0xE5 SHL DUP2 MSTORE PUSH1 0x20 PUSH1 0x4 DUP3 ADD MSTORE PUSH1 0x10 PUSH1 0x24 DUP3 ADD MSTORE PUSH16 0x24B73B30B634B210323AB930BA34B7B7 PUSH1 0x81 SHL PUSH1 0x44 DUP3 ADD MSTORE PUSH1 0x64 ADD PUSH2 0x48C JUMP JUMPDEST PUSH1 0x8 SLOAD PUSH1 0x40 MLOAD PUSH4 0x78E1BA9D PUSH1 0xE1 SHL DUP2 MSTORE CALLER PUSH1 0x4 DUP3 ADD MSTORE PUSH1 0x0 SWAP2 PUSH1 0x1 PUSH1 0x1 PUSH1 0xA0 SHL SUB AND SWAP1 PUSH4 0xF1C3753A SWAP1 PUSH1 0x24 ADD PUSH1 0x20 PUSH1 0x40 MLOAD DUP1 DUP4 SUB DUP2 DUP7 GAS STATICCALL ISZERO DUP1 ISZERO PUSH2 0x521 JUMPI RETURNDATASIZE PUSH1 0x0 DUP1 RETURNDATACOPY RETURNDATASIZE PUSH1 0x0 REVERT JUMPDEST POP POP POP POP PUSH1 0x40 MLOAD RETURNDATASIZE PUSH1 0x1F NOT PUSH1 0x1F DUP3 ADD AND DUP3 ADD DUP1 PUSH1 0x40 MSTORE POP DUP2 ADD SWAP1 PUSH2 0x545 SWAP2 SWAP1 PUSH2 0x1704 JUMP JUMPDEST SWAP1 POP PUSH1 0x9 PUSH1 0x0 SWAP1 SLOAD SWAP1 PUSH2 0x100 EXP SWAP1 DIV PUSH1 0x1 PUSH1 0x1 PUSH1 0xA0 SHL SUB AND PUSH1 0x1 PUSH1 0x1 PUSH1 0xA0 SHL SUB AND PUSH4 0xB7161FAC PUSH1 0x40 MLOAD DUP2 PUSH4 0xFFFFFFFF AND PUSH1 0xE0 SHL DUP2 MSTORE PUSH1 0x4 ADD PUSH1 0x20 PUSH1 0x40 MLOAD DUP1 DUP4 SUB DUP2 DUP7 GAS STATICCALL ISZERO DUP1 ISZERO PUSH2 0x59A JUMPI RETURNDATASIZE PUSH1 0x0 DUP1 RETURNDATACOPY RETURNDATASIZE PUSH1 0x0 REVERT JUMPDEST POP POP POP POP PUSH1 0x40 MLOAD RETURNDATASIZE PUSH1 0x1F NOT PUSH1 0x1F DUP3 ADD AND DUP3 ADD DUP1 PUSH1 0x40 MSTORE POP DUP2 ADD SWAP1 PUSH2 0x5BE SWAP2 SWAP1 PUSH2 0x1704 JUMP JUMPDEST DUP2 LT ISZERO PUSH2 0x60D JUMPI PUSH1 0x40 MLOAD PUSH3 0x461BCD PUSH1 0xE5 SHL DUP2 MSTORE PUSH1 0x20 PUSH1 0x4 DUP3 ADD MSTORE PUSH1 0x19 PUSH1 0x24 DUP3 ADD MSTORE PUSH32 0x496E73756666696369656E74206372656469742073636F726500000000000000 PUSH1 0x44 DUP3 ADD MSTORE PUSH1 0x64 ADD PUSH2 0x48C JUMP JUMPDEST PUSH1 0x7 SLOAD PUSH1 0x40 MLOAD PUSH4 0xEE826161 PUSH1 0xE0 SHL DUP2 MSTORE CALLER PUSH1 0x4 DUP3 ADD MSTORE PUSH1 0x1 PUSH1 0x1 PUSH1 0xA0 SHL SUB DUP8 DUP2 AND PUSH1 0x24 DUP4 ADD MSTORE PUSH1 0x44 DUP3 ADD DUP8 SWAP1 MSTORE SWAP1 SWAP2 AND SWAP1 PUSH4 0xEE826161 SWAP1 PUSH1 0x64 ADD PUSH1 0x0 PUSH1 0x40 MLOAD DUP1 DUP4 SUB DUP2 PUSH1 0x0 DUP8 DUP1 EXTCODESIZE ISZERO DUP1 ISZERO PUSH2 0x661 JUMPI PUSH1 0x0 DUP1 REVERT JUMPDEST POP GAS CALL ISZERO DUP1 ISZERO PUSH2 0x675 JUMPI RETURNDATASIZE PUSH1 0x0 DUP1 RETURNDATACOPY RETURNDATASIZE PUSH1 0x0 REVERT JUMPDEST POP PUSH1 0x0 SWAP3 POP DUP3 SWAP2 POP PUSH2 0x684 SWAP1 POP JUMP JUMPDEST SWAP1 POP PUSH1 0x0 PUSH2 0x693 CALLER DUP10 DUP6 PUSH2 0x1035 JUMP JUMPDEST SWAP1 POP PUSH1 0x6 PUSH1 0x0 DUP2 SLOAD PUSH2 0x6A4 SWAP1 PUSH2 0x1733 JUMP JUMPDEST SWAP2 DUP3 SWAP1 SSTORE POP PUSH1 0x40 DUP1 MLOAD PUSH2 0x120 DUP2 ADD DUP3 MSTORE CALLER DUP2 MSTORE PUSH1 0x20 DUP1 DUP3 ADD DUP13 DUP2 MSTORE DUP3 DUP5 ADD DUP7 DUP2 MSTORE PUSH1 0x60 DUP5 ADD DUP13 DUP2 MSTORE PUSH1 0x1 PUSH1 0x1 PUSH1 0xA0 SHL SUB DUP15 DUP2 AND PUSH1 0x80 DUP8 ADD SWAP1 DUP2 MSTORE TIMESTAMP PUSH1 0xA0 DUP9 ADD SWAP1 DUP2 MSTORE PUSH1 0xC0 DUP9 ADD DUP16 DUP2 MSTORE PUSH1 0x0 PUSH1 0xE0 DUP11 ADD DUP2 DUP2 MSTORE DUP15 DUP7 AND PUSH2 0x100 DUP13 ADD MSTORE DUP13 DUP3 MSTORE PUSH1 0x3 SWAP10 DUP11 SWAP1 MSTORE SWAP11 SWAP1 KECCAK256 DUP10 MLOAD DUP2 SLOAD SWAP1 DUP7 AND PUSH1 0x1 PUSH1 0x1 PUSH1 0xA0 SHL SUB NOT SWAP2 DUP3 AND OR DUP3 SSTORE SWAP8 MLOAD PUSH1 0x1 DUP1 DUP4 ADD SWAP2 SWAP1 SWAP2 SSTORE SWAP7 MLOAD PUSH1 0x2 DUP3 ADD SSTORE SWAP5 MLOAD DUP6 DUP10 ADD SSTORE SWAP2 MLOAD PUSH1 0x4 DUP6 ADD DUP1 SLOAD SWAP2 SWAP1 SWAP5 AND SWAP7 AND SWAP6 SWAP1 SWAP6 OR SWAP1 SWAP2 SSTORE SWAP3 MLOAD PUSH1 0x5 DUP3 ADD SSTORE SWAP2 MLOAD PUSH1 0x6 DUP4 ADD SSTORE SWAP4 MLOAD PUSH1 0x7 DUP3 ADD DUP1 SLOAD SWAP7 SWAP11 POP SWAP4 SWAP6 SWAP2 SWAP5 SWAP1 SWAP4 SWAP3 PUSH1 0xFF NOT SWAP3 SWAP1 SWAP3 AND SWAP2 DUP5 SWAP1 DUP2 GT ISZERO PUSH2 0x787 JUMPI PUSH2 0x787 PUSH2 0x1591 JUMP JUMPDEST MUL OR SWAP1 SSTORE POP PUSH2 0x100 SWAP2 DUP3 ADD MLOAD PUSH1 0x7 SWAP2 SWAP1 SWAP2 ADD DUP1 SLOAD PUSH2 0x100 PUSH1 0x1 PUSH1 0xA8 SHL SUB NOT AND PUSH1 0x1 PUSH1 0x1 PUSH1 0xA0 SHL SUB SWAP1 SWAP3 AND SWAP1 SWAP3 MUL OR SWAP1 SSTORE CALLER PUSH1 0x0 DUP2 DUP2 MSTORE PUSH1 0x4 PUSH1 0x20 SWAP1 DUP2 MSTORE PUSH1 0x40 DUP1 DUP4 KECCAK256 DUP1 SLOAD PUSH1 0x1 DUP2 ADD DUP3 SSTORE SWAP1 DUP5 MSTORE SWAP3 DUP3 SWAP1 KECCAK256 SWAP1 SWAP3 ADD DUP8 SWAP1 SSTORE SWAP1 MLOAD DUP11 DUP2 MSTORE DUP7 SWAP2 PUSH32 0x6E2DC5C76238D5094CCF6F24932391FDDF95ACEA0897C28CE1F5CF6976F97FD0 SWAP2 ADD PUSH1 0x40 MLOAD DUP1 SWAP2 SUB SWAP1 LOG3 POP POP POP PUSH2 0x81C PUSH1 0x1 DUP1 SSTORE JUMP JUMPDEST SWAP5 SWAP4 POP POP POP POP JUMP JUMPDEST PUSH2 0x82C PUSH2 0x1079 JUMP JUMPDEST PUSH2 0x834 PUSH2 0x10A6 JUMP JUMPDEST JUMP JUMPDEST PUSH2 0x83E PUSH2 0xFE0 JUMP JUMPDEST PUSH1 0x0 DUP2 DUP2 MSTORE PUSH1 0x3 PUSH1 0x20 MSTORE PUSH1 0x40 DUP2 KECCAK256 SWAP1 PUSH1 0x7 DUP3 ADD SLOAD PUSH1 0xFF AND PUSH1 0x3 DUP2 GT ISZERO PUSH2 0x866 JUMPI PUSH2 0x866 PUSH2 0x1591 JUMP JUMPDEST EQ PUSH2 0x8A7 JUMPI PUSH1 0x40 MLOAD PUSH3 0x461BCD PUSH1 0xE5 SHL DUP2 MSTORE PUSH1 0x20 PUSH1 0x4 DUP3 ADD MSTORE PUSH1 0x11 PUSH1 0x24 DUP3 ADD MSTORE PUSH17 0x437265646974206E6F7420616374697665 PUSH1 0x78 SHL PUSH1 0x44 DUP3 ADD MSTORE PUSH1 0x64 ADD PUSH2 0x48C JUMP JUMPDEST PUSH2 0x8B0 DUP3 PUSH2 0x10FB JUMP JUMPDEST PUSH2 0x8FC JUMPI PUSH1 0x40 MLOAD PUSH3 0x461BCD PUSH1 0xE5 SHL DUP2 MSTORE PUSH1 0x20 PUSH1 0x4 DUP3 ADD MSTORE PUSH1 0x19 PUSH1 0x24 DUP3 ADD MSTORE PUSH32 0x506F736974696F6E206E6F74206C6971756964617461626C6500000000000000 PUSH1 0x44 DUP3 ADD MSTORE PUSH1 0x64 ADD PUSH2 0x48C JUMP JUMPDEST PUSH1 0x7 DUP2 ADD DUP1 SLOAD PUSH1 0x3 SWAP2 SWAP1 PUSH1 0xFF NOT AND PUSH1 0x1 DUP4 MUL OR SWAP1 SSTORE POP PUSH1 0x7 SLOAD DUP2 SLOAD PUSH1 0x4 DUP1 DUP5 ADD SLOAD PUSH1 0x3 DUP6 ADD SLOAD PUSH1 0x40 MLOAD PUSH4 0x1DDAA6BF PUSH1 0xE1 SHL DUP2 MSTORE PUSH1 0x1 PUSH1 0x1 PUSH1 0xA0 SHL SUB SWAP5 DUP6 AND SWAP4 DUP2 ADD SWAP4 SWAP1 SWAP4 MSTORE SWAP1 DUP4 AND PUSH1 0x24 DUP4 ADD MSTORE PUSH1 0x44 DUP3 ADD MSTORE CALLER PUSH1 0x64 DUP3 ADD MSTORE SWAP2 AND SWAP1 PUSH4 0x3BB54D7E SWAP1 PUSH1 0x84 ADD PUSH1 0x0 PUSH1 0x40 MLOAD DUP1 DUP4 SUB DUP2 PUSH1 0x0 DUP8 DUP1 EXTCODESIZE ISZERO DUP1 ISZERO PUSH2 0x97A JUMPI PUSH1 0x0 DUP1 REVERT JUMPDEST POP GAS CALL ISZERO DUP1 ISZERO PUSH2 0x98E JUMPI RETURNDATASIZE PUSH1 0x0 DUP1 RETURNDATACOPY RETURNDATASIZE PUSH1 0x0 REVERT JUMPDEST POP POP PUSH1 0x8 SLOAD DUP4 SLOAD PUSH1 0x1 DUP6 ADD SLOAD PUSH1 0x40 MLOAD PUSH4 0x808AF005 PUSH1 0xE0 SHL DUP2 MSTORE PUSH1 0x1 PUSH1 0x1 PUSH1 0xA0 SHL SUB SWAP4 DUP5 AND SWAP6 POP PUSH4 0x808AF005 SWAP5 POP PUSH2 0x9CF SWAP4 SWAP1 SWAP3 AND SWAP2 PUSH1 0x2 SWAP2 SWAP1 PUSH1 0x4 ADD PUSH2 0x174C JUMP JUMPDEST PUSH1 0x0 PUSH1 0x40 MLOAD DUP1 DUP4 SUB DUP2 PUSH1 0x0 DUP8 DUP1 EXTCODESIZE ISZERO DUP1 ISZERO PUSH2 0x9E9 JUMPI PUSH1 0x0 DUP1 REVERT JUMPDEST POP GAS CALL ISZERO DUP1 ISZERO PUSH2 0x9FD JUMPI RETURNDATASIZE PUSH1 0x0 DUP1 RETURNDATACOPY RETURNDATASIZE PUSH1 0x0 REVERT JUMPDEST POP POP PUSH1 0x40 MLOAD CALLER SWAP3 POP DUP5 SWAP2 POP PUSH32 0x1E97C7237B9DC1BD4C57B7984F3A69F14E6E7336C90CD66B6D3C09325CEC5FE3 SWAP1 PUSH1 0x0 SWAP1 LOG3 POP PUSH2 0xA38 PUSH1 0x1 DUP1 SSTORE JUMP JUMPDEST POP JUMP JUMPDEST PUSH2 0xA43 PUSH2 0x1079 JUMP JUMPDEST PUSH1 0x9 DUP1 SLOAD PUSH1 0x1 PUSH1 0x1 PUSH1 0xA0 SHL SUB NOT AND PUSH1 0x1 PUSH1 0x1 PUSH1 0xA0 SHL SUB SWAP3 SWAP1 SWAP3 AND SWAP2 SWAP1 SWAP2 OR SWAP1 SSTORE JUMP JUMPDEST PUSH2 0xA6D PUSH2 0x1079 JUMP JUMPDEST PUSH1 0x1 PUSH1 0x1 PUSH1 0xA0 SHL SUB SWAP1 SWAP2 AND PUSH1 0x0 SWAP1 DUP2 MSTORE PUSH1 0x5 PUSH1 0x20 MSTORE PUSH1 0x40 SWAP1 KECCAK256 SSTORE JUMP JUMPDEST PUSH2 0xA91 PUSH2 0x1079 JUMP JUMPDEST PUSH1 0x8 DUP1 SLOAD PUSH1 0x1 PUSH1 0x1 PUSH1 0xA0 SHL SUB NOT AND PUSH1 0x1 PUSH1 0x1 PUSH1 0xA0 SHL SUB SWAP3 SWAP1 SWAP3 AND SWAP2 SWAP1 SWAP2 OR SWAP1 SSTORE JUMP JUMPDEST PUSH2 0xABB PUSH2 0x1079 JUMP JUMPDEST PUSH2 0x834 PUSH1 0x0 PUSH2 0x128B JUMP JUMPDEST PUSH2 0xACD PUSH2 0x1466 JUMP JUMPDEST PUSH1 0x0 DUP3 DUP2 MSTORE PUSH1 0x3 PUSH1 0x20 DUP2 DUP2 MSTORE PUSH1 0x40 SWAP3 DUP4 SWAP1 KECCAK256 DUP4 MLOAD PUSH2 0x120 DUP2 ADD DUP6 MSTORE DUP2 SLOAD PUSH1 0x1 PUSH1 0x1 PUSH1 0xA0 SHL SUB SWAP1 DUP2 AND DUP3 MSTORE PUSH1 0x1 DUP4 ADD SLOAD SWAP4 DUP3 ADD SWAP4 SWAP1 SWAP4 MSTORE PUSH1 0x2 DUP3 ADD SLOAD SWAP5 DUP2 ADD SWAP5 SWAP1 SWAP5 MSTORE DUP1 DUP4 ADD SLOAD PUSH1 0x60 DUP6 ADD MSTORE PUSH1 0x4 DUP2 ADD SLOAD SWAP1 SWAP2 AND PUSH1 0x80 DUP5 ADD MSTORE PUSH1 0x5 DUP2 ADD SLOAD PUSH1 0xA0 DUP5 ADD MSTORE PUSH1 0x6 DUP2 ADD SLOAD PUSH1 0xC0 DUP5 ADD MSTORE PUSH1 0x7 DUP2 ADD SLOAD SWAP1 SWAP2 PUSH1 0xE0 DUP5 ADD SWAP2 PUSH1 0xFF AND SWAP1 DUP2 GT ISZERO PUSH2 0xB58 JUMPI PUSH2 0xB58 PUSH2 0x1591 JUMP JUMPDEST PUSH1 0x3 DUP2 GT ISZERO PUSH2 0xB69 JUMPI PUSH2 0xB69 PUSH2 0x1591 JUMP JUMPDEST DUP2 MSTORE PUSH1 0x7 SWAP2 SWAP1 SWAP2 ADD SLOAD PUSH2 0x100 SWAP1 DIV PUSH1 0x1 PUSH1 0x1 PUSH1 0xA0 SHL SUB AND PUSH1 0x20 SWAP1 SWAP2 ADD MSTORE SWAP3 SWAP2 POP POP JUMP JUMPDEST PUSH1 0x1 PUSH1 0x1 PUSH1 0xA0 SHL SUB DUP2 AND PUSH1 0x0 SWAP1 DUP2 MSTORE PUSH1 0x4 PUSH1 0x20 SWAP1 DUP2 MSTORE PUSH1 0x40 SWAP2 DUP3 SWAP1 KECCAK256 DUP1 SLOAD DUP4 MLOAD DUP2 DUP5 MUL DUP2 ADD DUP5 ADD SWAP1 SWAP5 MSTORE DUP1 DUP5 MSTORE PUSH1 0x60 SWAP4 SWAP3 DUP4 ADD DUP3 DUP3 DUP1 ISZERO PUSH2 0xBEC JUMPI PUSH1 0x20 MUL DUP3 ADD SWAP2 SWAP1 PUSH1 0x0 MSTORE PUSH1 0x20 PUSH1 0x0 KECCAK256 SWAP1 JUMPDEST DUP2 SLOAD DUP2 MSTORE PUSH1 0x20 ADD SWAP1 PUSH1 0x1 ADD SWAP1 DUP1 DUP4 GT PUSH2 0xBD8 JUMPI JUMPDEST POP POP POP POP POP SWAP1 POP SWAP2 SWAP1 POP JUMP JUMPDEST PUSH2 0xC00 PUSH2 0xFE0 JUMP JUMPDEST PUSH1 0x0 DUP3 DUP2 MSTORE PUSH1 0x3 PUSH1 0x20 MSTORE PUSH1 0x40 SWAP1 KECCAK256 DUP1 SLOAD PUSH1 0x1 PUSH1 0x1 PUSH1 0xA0 SHL SUB AND CALLER EQ PUSH2 0xC56 JUMPI PUSH1 0x40 MLOAD PUSH3 0x461BCD PUSH1 0xE5 SHL DUP2 MSTORE PUSH1 0x20 PUSH1 0x4 DUP3 ADD MSTORE PUSH1 0xC PUSH1 0x24 DUP3 ADD MSTORE PUSH12 0x2737BA103137B93937BBB2B9 PUSH1 0xA1 SHL PUSH1 0x44 DUP3 ADD MSTORE PUSH1 0x64 ADD PUSH2 0x48C JUMP JUMPDEST PUSH1 0x0 PUSH1 0x7 DUP3 ADD SLOAD PUSH1 0xFF AND PUSH1 0x3 DUP2 GT ISZERO PUSH2 0xC71 JUMPI PUSH2 0xC71 PUSH2 0x1591 JUMP JUMPDEST EQ PUSH2 0xCB2 JUMPI PUSH1 0x40 MLOAD PUSH3 0x461BCD PUSH1 0xE5 SHL DUP2 MSTORE PUSH1 0x20 PUSH1 0x4 DUP3 ADD MSTORE PUSH1 0x11 PUSH1 0x24 DUP3 ADD MSTORE PUSH17 0x437265646974206E6F7420616374697665 PUSH1 0x78 SHL PUSH1 0x44 DUP3 ADD MSTORE PUSH1 0x64 ADD PUSH2 0x48C JUMP JUMPDEST PUSH1 0x0 PUSH2 0xCBD DUP5 PUSH2 0x12DB JUMP JUMPDEST SWAP1 POP DUP1 DUP4 LT ISZERO PUSH2 0xD0F JUMPI PUSH1 0x40 MLOAD PUSH3 0x461BCD PUSH1 0xE5 SHL DUP2 MSTORE PUSH1 0x20 PUSH1 0x4 DUP3 ADD MSTORE PUSH1 0x1D PUSH1 0x24 DUP3 ADD MSTORE PUSH32 0x496E73756666696369656E742072657061796D656E7420616D6F756E74000000 PUSH1 0x44 DUP3 ADD MSTORE PUSH1 0x64 ADD PUSH2 0x48C JUMP JUMPDEST PUSH1 0x7 DUP3 DUP2 ADD DUP1 SLOAD PUSH1 0xFF NOT AND PUSH1 0x1 OR SWAP1 SSTORE SLOAD PUSH1 0x4 DUP1 DUP5 ADD SLOAD PUSH1 0x3 DUP6 ADD SLOAD PUSH1 0x40 MLOAD PUSH4 0xFBD24BBB PUSH1 0xE0 SHL DUP2 MSTORE CALLER SWAP4 DUP2 ADD SWAP4 SWAP1 SWAP4 MSTORE PUSH1 0x1 PUSH1 0x1 PUSH1 0xA0 SHL SUB SWAP2 DUP3 AND PUSH1 0x24 DUP5 ADD MSTORE PUSH1 0x44 DUP4 ADD MSTORE SWAP1 SWAP2 AND SWAP1 PUSH4 0xFBD24BBB SWAP1 PUSH1 0x64 ADD PUSH1 0x0 PUSH1 0x40 MLOAD DUP1 DUP4 SUB DUP2 PUSH1 0x0 DUP8 DUP1 EXTCODESIZE ISZERO DUP1 ISZERO PUSH2 0xD7C JUMPI PUSH1 0x0 DUP1 REVERT JUMPDEST POP GAS CALL ISZERO DUP1 ISZERO PUSH2 0xD90 JUMPI RETURNDATASIZE PUSH1 0x0 DUP1 RETURNDATACOPY RETURNDATASIZE PUSH1 0x0 REVERT JUMPDEST POP POP PUSH1 0x8 SLOAD PUSH1 0x40 MLOAD PUSH4 0x808AF005 PUSH1 0xE0 SHL DUP2 MSTORE PUSH1 0x1 PUSH1 0x1 PUSH1 0xA0 SHL SUB SWAP1 SWAP2 AND SWAP3 POP PUSH4 0x808AF005 SWAP2 POP PUSH2 0xDC9 SWAP1 CALLER SWAP1 PUSH1 0x0 SWAP1 DUP9 SWAP1 PUSH1 0x4 ADD PUSH2 0x174C JUMP JUMPDEST PUSH1 0x0 PUSH1 0x40 MLOAD DUP1 DUP4 SUB DUP2 PUSH1 0x0 DUP8 DUP1 EXTCODESIZE ISZERO DUP1 ISZERO PUSH2 0xDE3 JUMPI PUSH1 0x0 DUP1 REVERT JUMPDEST POP GAS CALL ISZERO DUP1 ISZERO PUSH2 0xDF7 JUMPI RETURNDATASIZE PUSH1 0x0 DUP1 RETURNDATACOPY RETURNDATASIZE PUSH1 0x0 REVERT JUMPDEST POP POP POP POP DUP4 PUSH32 0x6C20CB77003CF585315D927A3F2307E389796834D5E6D79097209D0AD0FDABE7 DUP5 PUSH1 0x40 MLOAD PUSH2 0xE2D SWAP2 DUP2 MSTORE PUSH1 0x20 ADD SWAP1 JUMP JUMPDEST PUSH1 0x40 MLOAD DUP1 SWAP2 SUB SWAP1 LOG2 POP POP PUSH2 0xE40 PUSH1 0x1 DUP1 SSTORE JUMP JUMPDEST POP POP JUMP JUMPDEST PUSH2 0xE4C PUSH2 0x1079 JUMP JUMPDEST PUSH2 0x834 PUSH2 0x13F9 JUMP JUMPDEST PUSH2 0xE5C PUSH2 0x1079 JUMP JUMPDEST PUSH1 0x1 PUSH1 0x1 PUSH1 0xA0 SHL SUB DUP2 AND PUSH2 0xEA4 JUMPI PUSH1 0x40 MLOAD PUSH3 0x461BCD PUSH1 0xE5 SHL DUP2 MSTORE PUSH1 0x20 PUSH1 0x4 DUP3 ADD MSTORE PUSH1 0xF PUSH1 0x24 DUP3 ADD MSTORE PUSH15 0x496E76616C69642061646472657373 PUSH1 0x88 SHL PUSH1 0x44 DUP3 ADD MSTORE PUSH1 0x64 ADD PUSH2 0x48C JUMP JUMPDEST PUSH1 0x1 PUSH1 0x1 PUSH1 0xA0 SHL SUB DUP2 AND PUSH1 0x0 DUP2 DUP2 MSTORE PUSH1 0x2 PUSH1 0x20 MSTORE PUSH1 0x40 DUP1 DUP3 KECCAK256 DUP1 SLOAD PUSH1 0xFF NOT AND PUSH1 0x1 OR SWAP1 SSTORE MLOAD PUSH32 0x351E40FE333CEDE9DD79A1EF4D16228B1702F272EB2C2166EC3C7EE6A9D4CE2C SWAP2 SWAP1 LOG2 POP JUMP JUMPDEST PUSH2 0xEF8 PUSH2 0x1079 JUMP JUMPDEST PUSH1 0x7 DUP1 SLOAD PUSH1 0x1 PUSH1 0x1 PUSH1 0xA0 SHL SUB NOT AND PUSH1 0x1 PUSH1 0x1 PUSH1 0xA0 SHL SUB SWAP3 SWAP1 SWAP3 AND SWAP2 SWAP1 SWAP2 OR SWAP1 SSTORE JUMP JUMPDEST PUSH2 0xF22 PUSH2 0x1079 JUMP JUMPDEST PUSH1 0x1 PUSH1 0x1 PUSH1 0xA0 SHL SUB DUP2 AND PUSH1 0x0 DUP2 DUP2 MSTORE PUSH1 0x2 PUSH1 0x20 MSTORE PUSH1 0x40 DUP1 DUP3 KECCAK256 DUP1 SLOAD PUSH1 0xFF NOT AND SWAP1 SSTORE MLOAD PUSH32 0x98A35376356C1565159C1B44676FCFA951A2287E2A816E208CF92E7AEB585A4F SWAP2 SWAP1 LOG2 POP JUMP JUMPDEST PUSH2 0xF73 PUSH2 0x1079 JUMP JUMPDEST PUSH1 0x1 PUSH1 0x1 PUSH1 0xA0 SHL SUB DUP2 AND PUSH2 0xF9D JUMPI PUSH1 0x40 MLOAD PUSH4 0x1E4FBDF7 PUSH1 0xE0 SHL DUP2 MSTORE PUSH1 0x0 PUSH1 0x4 DUP3 ADD MSTORE PUSH1 0x24 ADD PUSH2 0x48C JUMP JUMPDEST PUSH2 0xA38 DUP2 PUSH2 0x128B JUMP JUMPDEST PUSH1 0x1 PUSH1 0x1 PUSH1 0xA0 SHL SUB DUP2 AND PUSH1 0x0 SWAP1 DUP2 MSTORE PUSH1 0x2 PUSH1 0x20 MSTORE PUSH1 0x40 DUP2 KECCAK256 SLOAD PUSH1 0xFF AND DUP1 PUSH2 0xFDA JUMPI POP PUSH1 0x0 SLOAD PUSH1 0x1 PUSH1 0x1 PUSH1 0xA0 SHL SUB DUP4 DUP2 AND SWAP2 AND EQ JUMPDEST SWAP3 SWAP2 POP POP JUMP JUMPDEST PUSH1 0x2 PUSH1 0x1 SLOAD SUB PUSH2 0x1003 JUMPI PUSH1 0x40 MLOAD PUSH4 0x3EE5AEB5 PUSH1 0xE0 SHL DUP2 MSTORE PUSH1 0x4 ADD PUSH1 0x40 MLOAD DUP1 SWAP2 SUB SWAP1 REVERT JUMPDEST PUSH1 0x2 PUSH1 0x1 SSTORE JUMP JUMPDEST PUSH1 0x0 SLOAD PUSH1 0x1 PUSH1 0xA0 SHL SWAP1 DIV PUSH1 0xFF AND ISZERO PUSH2 0x834 JUMPI PUSH1 0x40 MLOAD PUSH4 0xD93C0665 PUSH1 0xE0 SHL DUP2 MSTORE PUSH1 0x4 ADD PUSH1 0x40 MLOAD DUP1 SWAP2 SUB SWAP1 REVERT JUMPDEST PUSH1 0x0 PUSH2 0x1F4 DUP2 PUSH2 0x2BC DUP5 GT PUSH2 0x1060 JUMPI PUSH2 0x1050 DUP5 PUSH2 0x2BC PUSH2 0x177D JUMP JUMPDEST PUSH2 0x105B SWAP1 PUSH1 0xA PUSH2 0x1790 JUMP JUMPDEST PUSH2 0x1063 JUMP JUMPDEST PUSH1 0x0 JUMPDEST SWAP1 POP PUSH2 0x106F DUP2 DUP4 PUSH2 0x17A7 JUMP JUMPDEST SWAP7 SWAP6 POP POP POP POP POP POP JUMP JUMPDEST PUSH1 0x0 SLOAD PUSH1 0x1 PUSH1 0x1 PUSH1 0xA0 SHL SUB AND CALLER EQ PUSH2 0x834 JUMPI PUSH1 0x40 MLOAD PUSH4 0x118CDAA7 PUSH1 0xE0 SHL DUP2 MSTORE CALLER PUSH1 0x4 DUP3 ADD MSTORE PUSH1 0x24 ADD PUSH2 0x48C JUMP JUMPDEST PUSH2 0x10AE PUSH2 0x143C JUMP JUMPDEST PUSH1 0x0 DUP1 SLOAD PUSH1 0xFF PUSH1 0xA0 SHL NOT AND SWAP1 SSTORE PUSH32 0x5DB9EE0A495BF2E6FF9C91A7834C1BA4FDD244A5E8AA4E537BD38AEAE4B073AA CALLER JUMPDEST PUSH1 0x40 MLOAD PUSH1 0x1 PUSH1 0x1 PUSH1 0xA0 SHL SUB SWAP1 SWAP2 AND DUP2 MSTORE PUSH1 0x20 ADD PUSH1 0x40 MLOAD DUP1 SWAP2 SUB SWAP1 LOG1 JUMP JUMPDEST PUSH1 0x0 DUP2 DUP2 MSTORE PUSH1 0x3 PUSH1 0x20 DUP2 DUP2 MSTORE PUSH1 0x40 DUP1 DUP5 KECCAK256 DUP2 MLOAD PUSH2 0x120 DUP2 ADD DUP4 MSTORE DUP2 SLOAD PUSH1 0x1 PUSH1 0x1 PUSH1 0xA0 SHL SUB SWAP1 DUP2 AND DUP3 MSTORE PUSH1 0x1 DUP4 ADD SLOAD SWAP5 DUP3 ADD SWAP5 SWAP1 SWAP5 MSTORE PUSH1 0x2 DUP3 ADD SLOAD SWAP3 DUP2 ADD SWAP3 SWAP1 SWAP3 MSTORE DUP1 DUP5 ADD SLOAD PUSH1 0x60 DUP4 ADD MSTORE PUSH1 0x4 DUP2 ADD SLOAD SWAP1 SWAP3 AND PUSH1 0x80 DUP3 ADD MSTORE PUSH1 0x5 DUP3 ADD SLOAD PUSH1 0xA0 DUP3 ADD MSTORE PUSH1 0x6 DUP3 ADD SLOAD PUSH1 0xC0 DUP3 ADD MSTORE PUSH1 0x7 DUP3 ADD SLOAD DUP5 SWAP4 SWAP2 SWAP3 SWAP2 PUSH1 0xE0 DUP5 ADD SWAP2 PUSH1 0xFF AND SWAP1 DUP2 GT ISZERO PUSH2 0x1188 JUMPI PUSH2 0x1188 PUSH2 0x1591 JUMP JUMPDEST PUSH1 0x3 DUP2 GT ISZERO PUSH2 0x1199 JUMPI PUSH2 0x1199 PUSH2 0x1591 JUMP JUMPDEST DUP2 MSTORE PUSH1 0x7 SWAP2 SWAP1 SWAP2 ADD SLOAD PUSH2 0x100 SWAP1 DIV PUSH1 0x1 PUSH1 0x1 PUSH1 0xA0 SHL SUB AND PUSH1 0x20 SWAP1 SWAP2 ADD MSTORE PUSH1 0xC0 DUP2 ADD MLOAD PUSH1 0xA0 DUP3 ADD MLOAD SWAP2 SWAP3 POP PUSH1 0x0 SWAP2 PUSH2 0x11D0 SWAP2 SWAP1 PUSH2 0x17A7 JUMP JUMPDEST PUSH1 0x7 SLOAD DUP4 MLOAD PUSH1 0x40 MLOAD PUSH4 0x4BC82721 PUSH1 0xE1 SHL DUP2 MSTORE PUSH1 0x1 PUSH1 0x1 PUSH1 0xA0 SHL SUB SWAP2 DUP3 AND PUSH1 0x4 DUP3 ADD MSTORE TIMESTAMP SWAP4 SWAP1 SWAP4 GT SWAP4 POP PUSH1 0x0 SWAP3 SWAP2 AND SWAP1 PUSH4 0x97904E42 SWAP1 PUSH1 0x24 ADD PUSH1 0x20 PUSH1 0x40 MLOAD DUP1 DUP4 SUB DUP2 DUP7 GAS STATICCALL ISZERO DUP1 ISZERO PUSH2 0x1225 JUMPI RETURNDATASIZE PUSH1 0x0 DUP1 RETURNDATACOPY RETURNDATASIZE PUSH1 0x0 REVERT JUMPDEST POP POP POP POP PUSH1 0x40 MLOAD RETURNDATASIZE PUSH1 0x1F NOT PUSH1 0x1F DUP3 ADD AND DUP3 ADD DUP1 PUSH1 0x40 MSTORE POP DUP2 ADD SWAP1 PUSH2 0x1249 SWAP2 SWAP1 PUSH2 0x1704 JUMP JUMPDEST SWAP1 POP PUSH1 0x0 PUSH2 0x1256 DUP7 PUSH2 0x12DB JUMP JUMPDEST SWAP1 POP PUSH1 0x0 DUP2 PUSH2 0x1267 DUP5 PUSH2 0x2710 PUSH2 0x1790 JUMP JUMPDEST PUSH2 0x1271 SWAP2 SWAP1 PUSH2 0x17BA JUMP JUMPDEST SWAP1 POP DUP4 DUP1 PUSH2 0x1280 JUMPI POP PUSH2 0x2EE0 DUP2 LT JUMPDEST SWAP8 SWAP7 POP POP POP POP POP POP POP JUMP JUMPDEST PUSH1 0x0 DUP1 SLOAD PUSH1 0x1 PUSH1 0x1 PUSH1 0xA0 SHL SUB DUP4 DUP2 AND PUSH1 0x1 PUSH1 0x1 PUSH1 0xA0 SHL SUB NOT DUP4 AND DUP2 OR DUP5 SSTORE PUSH1 0x40 MLOAD SWAP2 SWAP1 SWAP3 AND SWAP3 DUP4 SWAP2 PUSH32 0x8BE0079C531659141344CD1FD0A4F28419497F9722A3DAAFE3B4186F6B6457E0 SWAP2 SWAP1 LOG3 POP POP JUMP JUMPDEST PUSH1 0x0 DUP2 DUP2 MSTORE PUSH1 0x3 PUSH1 0x20 DUP2 DUP2 MSTORE PUSH1 0x40 DUP1 DUP5 KECCAK256 DUP2 MLOAD PUSH2 0x120 DUP2 ADD DUP4 MSTORE DUP2 SLOAD PUSH1 0x1 PUSH1 0x1 PUSH1 0xA0 SHL SUB SWAP1 DUP2 AND DUP3 MSTORE PUSH1 0x1 DUP4 ADD SLOAD SWAP5 DUP3 ADD SWAP5 SWAP1 SWAP5 MSTORE PUSH1 0x2 DUP3 ADD SLOAD SWAP3 DUP2 ADD SWAP3 SWAP1 SWAP3 MSTORE DUP1 DUP5 ADD SLOAD PUSH1 0x60 DUP4 ADD MSTORE PUSH1 0x4 DUP2 ADD SLOAD SWAP1 SWAP3 AND PUSH1 0x80 DUP3 ADD MSTORE PUSH1 0x5 DUP3 ADD SLOAD PUSH1 0xA0 DUP3 ADD MSTORE PUSH1 0x6 DUP3 ADD SLOAD PUSH1 0xC0 DUP3 ADD MSTORE PUSH1 0x7 DUP3 ADD SLOAD DUP5 SWAP4 SWAP2 SWAP3 SWAP2 PUSH1 0xE0 DUP5 ADD SWAP2 PUSH1 0xFF AND SWAP1 DUP2 GT ISZERO PUSH2 0x1368 JUMPI PUSH2 0x1368 PUSH2 0x1591 JUMP JUMPDEST PUSH1 0x3 DUP2 GT ISZERO PUSH2 0x1379 JUMPI PUSH2 0x1379 PUSH2 0x1591 JUMP JUMPDEST DUP2 MSTORE PUSH1 0x7 SWAP2 SWAP1 SWAP2 ADD SLOAD PUSH2 0x100 SWAP1 DIV PUSH1 0x1 PUSH1 0x1 PUSH1 0xA0 SHL SUB AND PUSH1 0x20 SWAP1 SWAP2 ADD MSTORE PUSH1 0xA0 DUP2 ADD MLOAD SWAP1 SWAP2 POP PUSH1 0x0 SWAP1 PUSH2 0x13AB SWAP1 TIMESTAMP PUSH2 0x177D JUMP JUMPDEST SWAP1 POP PUSH1 0x0 PUSH5 0x496CEBB800 DUP3 DUP5 PUSH1 0x40 ADD MLOAD DUP6 PUSH1 0x20 ADD MLOAD PUSH2 0x13CA SWAP2 SWAP1 PUSH2 0x1790 JUMP JUMPDEST PUSH2 0x13D4 SWAP2 SWAP1 PUSH2 0x1790 JUMP JUMPDEST PUSH2 0x13DE SWAP2 SWAP1 PUSH2 0x17BA JUMP JUMPDEST SWAP1 POP DUP1 DUP4 PUSH1 0x20 ADD MLOAD PUSH2 0x13F0 SWAP2 SWAP1 PUSH2 0x17A7 JUMP JUMPDEST SWAP6 SWAP5 POP POP POP POP POP JUMP JUMPDEST PUSH2 0x1401 PUSH2 0x100A JUMP JUMPDEST PUSH1 0x0 DUP1 SLOAD PUSH1 0xFF PUSH1 0xA0 SHL NOT AND PUSH1 0x1 PUSH1 0xA0 SHL OR SWAP1 SSTORE PUSH32 0x62E78CEA01BEE320CD4E420270B5EA74000D11B0C9F74754EBDBFC544B05A258 PUSH2 0x10DE CALLER SWAP1 JUMP JUMPDEST PUSH1 0x0 SLOAD PUSH1 0x1 PUSH1 0xA0 SHL SWAP1 DIV PUSH1 0xFF AND PUSH2 0x834 JUMPI PUSH1 0x40 MLOAD PUSH4 0x8DFC202B PUSH1 0xE0 SHL DUP2 MSTORE PUSH1 0x4 ADD PUSH1 0x40 MLOAD DUP1 SWAP2 SUB SWAP1 REVERT JUMPDEST PUSH1 0x40 MLOAD DUP1 PUSH2 0x120 ADD PUSH1 0x40 MSTORE DUP1 PUSH1 0x0 PUSH1 0x1 PUSH1 0x1 PUSH1 0xA0 SHL SUB AND DUP2 MSTORE PUSH1 0x20 ADD PUSH1 0x0 DUP2 MSTORE PUSH1 0x20 ADD PUSH1 0x0 DUP2 MSTORE PUSH1 0x20 ADD PUSH1 0x0 DUP2 MSTORE PUSH1 0x20 ADD PUSH1 0x0 PUSH1 0x1 PUSH1 0x1 PUSH1 0xA0 SHL SUB AND DUP2 MSTORE PUSH1 0x20 ADD PUSH1 0x0 DUP2 MSTORE PUSH1 0x20 ADD PUSH1 0x0 DUP2 MSTORE PUSH1 0x20 ADD PUSH1 0x0 PUSH1 0x3 DUP2 GT ISZERO PUSH2 0x14C8 JUMPI PUSH2 0x14C8 PUSH2 0x1591 JUMP JUMPDEST DUP2 MSTORE PUSH1 0x0 PUSH1 0x20 SWAP1 SWAP2 ADD MSTORE SWAP1 JUMP JUMPDEST DUP1 CALLDATALOAD PUSH1 0x1 PUSH1 0x1 PUSH1 0xA0 SHL SUB DUP2 AND DUP2 EQ PUSH2 0x14EC JUMPI PUSH1 0x0 DUP1 REVERT JUMPDEST SWAP2 SWAP1 POP JUMP JUMPDEST PUSH1 0x0 DUP1 PUSH1 0x40 DUP4 DUP6 SUB SLT ISZERO PUSH2 0x1504 JUMPI PUSH1 0x0 DUP1 REVERT JUMPDEST PUSH2 0x150D DUP4 PUSH2 0x14D5 JUMP JUMPDEST SWAP5 PUSH1 0x20 SWAP4 SWAP1 SWAP4 ADD CALLDATALOAD SWAP4 POP POP POP JUMP JUMPDEST PUSH1 0x0 DUP1 PUSH1 0x0 DUP1 PUSH1 0x80 DUP6 DUP8 SUB SLT ISZERO PUSH2 0x1531 JUMPI PUSH1 0x0 DUP1 REVERT JUMPDEST DUP5 CALLDATALOAD SWAP4 POP PUSH2 0x1541 PUSH1 0x20 DUP7 ADD PUSH2 0x14D5 JUMP JUMPDEST SWAP4 SWAP7 SWAP4 SWAP6 POP POP POP POP PUSH1 0x40 DUP3 ADD CALLDATALOAD SWAP2 PUSH1 0x60 ADD CALLDATALOAD SWAP1 JUMP JUMPDEST PUSH1 0x0 PUSH1 0x20 DUP3 DUP5 SUB SLT ISZERO PUSH2 0x1568 JUMPI PUSH1 0x0 DUP1 REVERT JUMPDEST PUSH2 0x1571 DUP3 PUSH2 0x14D5 JUMP JUMPDEST SWAP4 SWAP3 POP POP POP JUMP JUMPDEST PUSH1 0x0 PUSH1 0x20 DUP3 DUP5 SUB SLT ISZERO PUSH2 0x158A JUMPI PUSH1 0x0 DUP1 REVERT JUMPDEST POP CALLDATALOAD SWAP2 SWAP1 POP JUMP JUMPDEST PUSH4 0x4E487B71 PUSH1 0xE0 SHL PUSH1 0x0 MSTORE PUSH1 0x21 PUSH1 0x4 MSTORE PUSH1 0x24 PUSH1 0x0 REVERT JUMPDEST PUSH1 0x4 DUP2 LT PUSH2 0x15B7 JUMPI PUSH2 0x15B7 PUSH2 0x1591 JUMP JUMPDEST SWAP1 MSTORE JUMP JUMPDEST PUSH1 0x1 PUSH1 0x1 PUSH1 0xA0 SHL SUB DUP11 DUP2 AND DUP3 MSTORE PUSH1 0x20 DUP3 ADD DUP11 SWAP1 MSTORE PUSH1 0x40 DUP3 ADD DUP10 SWAP1 MSTORE PUSH1 0x60 DUP3 ADD DUP9 SWAP1 MSTORE DUP7 DUP2 AND PUSH1 0x80 DUP4 ADD MSTORE PUSH1 0xA0 DUP3 ADD DUP7 SWAP1 MSTORE PUSH1 0xC0 DUP3 ADD DUP6 SWAP1 MSTORE PUSH2 0x120 DUP3 ADD SWAP1 PUSH2 0x1606 PUSH1 0xE0 DUP5 ADD DUP7 PUSH2 0x15A7 JUMP JUMPDEST DUP1 DUP5 AND PUSH2 0x100 DUP5 ADD MSTORE POP SWAP11 SWAP10 POP POP POP POP POP POP POP POP POP POP JUMP JUMPDEST PUSH1 0x0 PUSH2 0x120 DUP3 ADD SWAP1 POP PUSH1 0x1 DUP1 PUSH1 0xA0 SHL SUB DUP1 DUP5 MLOAD AND DUP4 MSTORE PUSH1 0x20 DUP5 ADD MLOAD PUSH1 0x20 DUP5 ADD MSTORE PUSH1 0x40 DUP5 ADD MLOAD PUSH1 0x40 DUP5 ADD MSTORE PUSH1 0x60 DUP5 ADD MLOAD PUSH1 0x60 DUP5 ADD MSTORE DUP1 PUSH1 0x80 DUP6 ADD MLOAD AND PUSH1 0x80 DUP5 ADD MSTORE POP PUSH1 0xA0 DUP4 ADD MLOAD PUSH1 0xA0 DUP4 ADD MSTORE PUSH1 0xC0 DUP4 ADD MLOAD PUSH1 0xC0 DUP4 ADD MSTORE PUSH1 0xE0 DUP4 ADD MLOAD PUSH2 0x1685 PUSH1 0xE0 DUP5 ADD DUP3 PUSH2 0x15A7 JUMP JUMPDEST POP PUSH2 0x100 SWAP3 DUP4 ADD MLOAD PUSH1 0x1 PUSH1 0x1 PUSH1 0xA0 SHL SUB AND SWAP2 SWAP1 SWAP3 ADD MSTORE SWAP1 JUMP JUMPDEST PUSH1 0x20 DUP1 DUP3 MSTORE DUP3 MLOAD DUP3 DUP3 ADD DUP2 SWAP1 MSTORE PUSH1 0x0 SWAP2 SWAP1 DUP5 DUP3 ADD SWAP1 PUSH1 0x40 DUP6 ADD SWAP1 DUP5 JUMPDEST DUP2 DUP2 LT ISZERO PUSH2 0x16D6 JUMPI DUP4 MLOAD DUP4 MSTORE SWAP3 DUP5 ADD SWAP3 SWAP2 DUP5 ADD SWAP2 PUSH1 0x1 ADD PUSH2 0x16BA JUMP JUMPDEST POP SWAP1 SWAP7 SWAP6 POP POP POP POP POP POP JUMP JUMPDEST PUSH1 0x0 DUP1 PUSH1 0x40 DUP4 DUP6 SUB SLT ISZERO PUSH2 0x16F5 JUMPI PUSH1 0x0 DUP1 REVERT JUMPDEST POP POP DUP1 CALLDATALOAD SWAP3 PUSH1 0x20 SWAP1 SWAP2 ADD CALLDATALOAD SWAP2 POP JUMP JUMPDEST PUSH1 0x0 PUSH1 0x20 DUP3 DUP5 SUB SLT ISZERO PUSH2 0x1716 JUMPI PUSH1 0x0 DUP1 REVERT JUMPDEST POP MLOAD SWAP2 SWAP1 POP JUMP JUMPDEST PUSH4 0x4E487B71 PUSH1 0xE0 SHL PUSH1 0x0 MSTORE PUSH1 0x11 PUSH1 0x4 MSTORE PUSH1 0x24 PUSH1 0x0 REVERT JUMPDEST PUSH1 0x0 PUSH1 0x1 DUP3 ADD PUSH2 0x1745 JUMPI PUSH2 0x1745 PUSH2 0x171D JUMP JUMPDEST POP PUSH1 0x1 ADD SWAP1 JUMP JUMPDEST PUSH1 0x1 PUSH1 0x1 PUSH1 0xA0 SHL SUB DUP5 AND DUP2 MSTORE PUSH1 0x60 DUP2 ADD PUSH1 0x5 DUP5 LT PUSH2 0x176C JUMPI PUSH2 0x176C PUSH2 0x1591 JUMP JUMPDEST PUSH1 0x20 DUP3 ADD SWAP4 SWAP1 SWAP4 MSTORE PUSH1 0x40 ADD MSTORE SWAP2 SWAP1 POP JUMP JUMPDEST DUP2 DUP2 SUB DUP2 DUP2 GT ISZERO PUSH2 0xFDA JUMPI PUSH2 0xFDA PUSH2 0x171D JUMP JUMPDEST DUP1 DUP3 MUL DUP2 ISZERO DUP3 DUP3 DIV DUP5 EQ OR PUSH2 0xFDA JUMPI PUSH2 0xFDA PUSH2 0x171D JUMP JUMPDEST DUP1 DUP3 ADD DUP1 DUP3 GT ISZERO PUSH2 0xFDA JUMPI PUSH2 0xFDA PUSH2 0x171D JUMP JUMPDEST PUSH1 0x0 DUP3 PUSH2 0x17D7 JUMPI PUSH4 0x4E487B71 PUSH1 0xE0 SHL PUSH1 0x0 MSTORE PUSH1 0x12 PUSH1 0x4 MSTORE PUSH1 0x24 PUSH1 0x0 REVERT JUMPDEST POP DIV SWAP1 JUMP INVALID LOG2 PUSH5 0x6970667358 0x22 SLT KECCAK256 0x27 0xE9 SHR 0xE0 0xDB SWAP12 0xC 0xC2 0x25 PUSH16 0x4A75F74CF7F78C94C9F3159975202176 0x29 0xBD PC 0xB5 0xE4 0xB2 PUSH5 0x736F6C6343 STOP ADDMOD EQ STOP CALLER "},"methodIdentifiers":{"addAuthorizedContract(address)":"98eaa4a7","authorizedContracts(address)":"d5b9221b","collateralManager()":"23be345c","creditPositions(uint256)":"59d20b4e","creditScoringOracle()":"7deb256f","getCreditPosition(uint256)":"76c1b82f","getUserCredits(address)":"81b26dda","isAuthorized(address)":"fe9fbb80","liquidate(uint256)":"415f1240","owner()":"8da5cb5b","pause()":"8456cb59","paused()":"5c975abb","protocolWeights(address)":"3ab67ea3","removeAuthorizedContract(address)":"e6b165ed","renounceOwnership()":"715018a6","repayCredit(uint256,uint256)":"83590a72","requestCredit(uint256,address,uint256,uint256)":"2fcbd1e8","riskManager()":"47842663","setProtocolWeight(address,uint256)":"674fed27","transferOwnership(address)":"f2fde38b","unpause()":"3f4ba83a","updateCollateralManager(address)":"b378a449","updateCreditScoringOracle(address)":"6b604332","updateRiskManager(address)":"51d9f3ec","userCredits(address,uint256)":"17a483a3"}},"storageLayout":{"storage":[{"astId":8,"contract":"contracts/CreditAggregator.sol:CreditAggregator","label":"_owner","offset":0,"slot":"0","type":"t_address"},{"astId":844,"contract":"contracts/CreditAggregator.sol:CreditAggregator","label":"_paused","offset":20,"slot":"0","type":"t_bool"},{"astId":954,"contract":"contracts/CreditAggregator.sol:CreditAggregator","label":"_status","offset":0,"slot":"1","type":"t_uint256"},{"astId":3832,"contract":"contracts/CreditAggregator.sol:CreditAggregator","label":"authorizedContracts","offset":0,"slot":"2","type":"t_mapping(t_address,t_bool)"},{"astId":2160,"contract":"contracts/CreditAggregator.sol:CreditAggregator","label":"creditPositions","offset":0,"slot":"3","type":"t_mapping(t_uint256,t_struct(CreditPosition)2150_storage)"},{"astId":2165,"contract":"contracts/CreditAggregator.sol:CreditAggregator","label":"userCredits","offset":0,"slot":"4","type":"t_mapping(t_address,t_array(t_uint256)dyn_storage)"},{"astId":2169,"contract":"contracts/CreditAggregator.sol:CreditAggregator","label":"protocolWeights","offset":0,"slot":"5","type":"t_mapping(t_address,t_uint256)"},{"astId":2171,"contract":"contracts/CreditAggregator.sol:CreditAggregator","label":"_creditIdCounter","offset":0,"slot":"6","type":"t_uint256"},{"astId":2174,"contract":"contracts/CreditAggregator.sol:CreditAggregator","label":"collateralManager","offset":0,"slot":"7","type":"t_contract(ICollateralManager)4008"},{"astId":2177,"contract":"contracts/CreditAggregator.sol:CreditAggregator","label":"creditScoringOracle","offset":0,"slot":"8","type":"t_contract(ICreditScoringOracle)4095"},{"astId":2180,"contract":"contracts/CreditAggregator.sol:CreditAggregator","label":"riskManager","offset":0,"slot":"9","type":"t_contract(IRiskManager)4151"}],"types":{"t_address":{"encoding":"inplace","label":"address","numberOfBytes":"20"},"t_array(t_uint256)dyn_storage":{"base":"t_uint256","encoding":"dynamic_array","label":"uint256[]","numberOfBytes":"32"},"t_bool":{"encoding":"inplace","label":"bool","numberOfBytes":"1"},"t_contract(ICollateralManager)4008":{"encoding":"inplace","label":"contract ICollateralManager","numberOfBytes":"20"},"t_contract(ICreditScoringOracle)4095":{"encoding":"inplace","label":"contract ICreditScoringOracle","numberOfBytes":"20"},"t_contract(IRiskManager)4151":{"encoding":"inplace","label":"contract IRiskManager","numberOfBytes":"20"},"t_enum(CreditStatus)2155":{"encoding":"inplace","label":"enum CreditAggregator.CreditStatus","numberOfBytes":"1"},"t_mapping(t_address,t_array(t_uint256)dyn_storage)":{"encoding":"mapping","key":"t_address","label":"mapping(address => uint256[])","numberOfBytes":"32","value":"t_array(t_uint256)dyn_storage"},"t_mapping(t_address,t_bool)":{"encoding":"mapping","key":"t_address","label":"mapping(address => bool)","numberOfBytes":"32","value":"t_bool"},"t_mapping(t_address,t_uint256)":{"encoding":"mapping","key":"t_address","label":"mapping(address => uint256)","numberOfBytes":"32","value":"t_uint256"},"t_mapping(t_uint256,t_struct(CreditPosition)2150_storage)":{"encoding":"mapping","key":"t_uint256","label":"mapping(uint256 => struct CreditAggregator.CreditPosition)","numberOfBytes":"32","value":"t_struct(CreditPosition)2150_storage"},"t_struct(CreditPosition)2150_storage":{"encoding":"inplace","label":"struct CreditAggregator.CreditPosition","members":[{"astId":2132,"contract":"contracts/CreditAggregator.sol:CreditAggregator","label":"borrower","offset":0,"slot":"0","type":"t_address"},{"astId":2134,"contract":"contracts/CreditAggregator.sol:CreditAggregator","label":"principal","offset":0,"slot":"1","type":"t_uint256"},{"astId":2136,"contract":"contracts/CreditAggregator.sol:CreditAggregator","label":"interestRate","offset":0,"slot":"2","type":"t_uint256"},{"astId":2138,"contract":"contracts/CreditAggregator.sol:CreditAggregator","label":"collateralAmount","offset":0,"slot":"3","type":"t_uint256"},{"astId":2140,"contract":"contracts/CreditAggregator.sol:CreditAggregator","label":"collateralToken","offset":0,"slot":"4","type":"t_address"},{"astId":2142,"contract":"contracts/CreditAggregator.sol:CreditAggregator","label":"startTime","offset":0,"slot":"5","type":"t_uint256"},{"astId":2144,"contract":"contracts/CreditAggregator.sol:CreditAggregator","label":"duration","offset":0,"slot":"6","type":"t_uint256"},{"astId":2147,"contract":"contracts/CreditAggregator.sol:CreditAggregator","label":"status","offset":0,"slot":"7","type":"t_enum(CreditStatus)2155"},{"astId":2149,"contract":"contracts/CreditAggregator.sol:CreditAggregator","label":"lendingProtocol","offset":1,"slot":"7","type":"t_address"}],"numberOfBytes":"256"},"t_uint256":{"encoding":"inplace","label":"uint256","numberOfBytes":"32"}}}}}}