{
  "_format": "hh-sol-artifact-1",
  "contractName": "CreditAggregator",
  "sourceName": "contracts/CreditAggregator.sol",
  "abi": [
    {
      "inputs": [
        {
          "internalType": "address",
          "name": "_collateralManager",
          "type": "address"
        },
        {
          "internalType": "address",
          "name": "_creditScoringOracle",
          "type": "address"
        },
        {
          "internalType": "address",
          "name": "_riskManager",
          "type": "address"
        },
        {
          "internalType": "address",
          "name": "_owner",
          "type": "address"
        }
      ],
      "stateMutability": "nonpayable",
      "type": "constructor"
    },
    {
      "inputs": [],
      "name": "EnforcedPause",
      "type": "error"
    },
    {
      "inputs": [],
      "name": "ExpectedPause",
      "type": "error"
    },
    {
      "inputs": [
        {
          "internalType": "address",
          "name": "owner",
          "type": "address"
        }
      ],
      "name": "OwnableInvalidOwner",
      "type": "error"
    },
    {
      "inputs": [
        {
          "internalType": "address",
          "name": "account",
          "type": "address"
        }
      ],
      "name": "OwnableUnauthorizedAccount",
      "type": "error"
    },
    {
      "inputs": [],
      "name": "ReentrancyGuardReentrantCall",
      "type": "error"
    },
    {
      "anonymous": false,
      "inputs": [
        {
          "indexed": true,
          "internalType": "address",
          "name": "contractAddress",
          "type": "address"
        }
      ],
      "name": "AuthorizedContractAdded",
      "type": "event"
    },
    {
      "anonymous": false,
      "inputs": [
        {
          "indexed": true,
          "internalType": "address",
          "name": "contractAddress",
          "type": "address"
        }
      ],
      "name": "AuthorizedContractRemoved",
      "type": "event"
    },
    {
      "anonymous": false,
      "inputs": [
        {
          "indexed": true,
          "internalType": "uint256",
          "name": "creditId",
          "type": "uint256"
        },
        {
          "indexed": true,
          "internalType": "address",
          "name": "liquidator",
          "type": "address"
        }
      ],
      "name": "CreditLiquidated",
      "type": "event"
    },
    {
      "anonymous": false,
      "inputs": [
        {
          "indexed": true,
          "internalType": "uint256",
          "name": "creditId",
          "type": "uint256"
        },
        {
          "indexed": false,
          "internalType": "uint256",
          "name": "amount",
          "type": "uint256"
        }
      ],
      "name": "CreditRepaid",
      "type": "event"
    },
    {
      "anonymous": false,
      "inputs": [
        {
          "indexed": true,
          "internalType": "uint256",
          "name": "creditId",
          "type": "uint256"
        },
        {
          "indexed": true,
          "internalType": "address",
          "name": "borrower",
          "type": "address"
        },
        {
          "indexed": false,
          "internalType": "uint256",
          "name": "amount",
          "type": "uint256"
        }
      ],
      "name": "CreditRequested",
      "type": "event"
    },
    {
      "anonymous": false,
      "inputs": [
        {
          "indexed": true,
          "internalType": "address",
          "name": "previousOwner",
          "type": "address"
        },
        {
          "indexed": true,
          "internalType": "address",
          "name": "newOwner",
          "type": "address"
        }
      ],
      "name": "OwnershipTransferred",
      "type": "event"
    },
    {
      "anonymous": false,
      "inputs": [
        {
          "indexed": false,
          "internalType": "address",
          "name": "account",
          "type": "address"
        }
      ],
      "name": "Paused",
      "type": "event"
    },
    {
      "anonymous": false,
      "inputs": [
        {
          "indexed": false,
          "internalType": "address",
          "name": "account",
          "type": "address"
        }
      ],
      "name": "Unpaused",
      "type": "event"
    },
    {
      "inputs": [
        {
          "internalType": "address",
          "name": "contractAddress",
          "type": "address"
        }
      ],
      "name": "addAuthorizedContract",
      "outputs": [],
      "stateMutability": "nonpayable",
      "type": "function"
    },
    {
      "inputs": [
        {
          "internalType": "address",
          "name": "",
          "type": "address"
        }
      ],
      "name": "authorizedContracts",
      "outputs": [
        {
          "internalType": "bool",
          "name": "",
          "type": "bool"
        }
      ],
      "stateMutability": "view",
      "type": "function"
    },
    {
      "inputs": [],
      "name": "collateralManager",
      "outputs": [
        {
          "internalType": "contract ICollateralManager",
          "name": "",
          "type": "address"
        }
      ],
      "stateMutability": "view",
      "type": "function"
    },
    {
      "inputs": [
        {
          "internalType": "uint256",
          "name": "",
          "type": "uint256"
        }
      ],
      "name": "creditPositions",
      "outputs": [
        {
          "internalType": "address",
          "name": "borrower",
          "type": "address"
        },
        {
          "internalType": "uint256",
          "name": "principal",
          "type": "uint256"
        },
        {
          "internalType": "uint256",
          "name": "interestRate",
          "type": "uint256"
        },
        {
          "internalType": "uint256",
          "name": "collateralAmount",
          "type": "uint256"
        },
        {
          "internalType": "address",
          "name": "collateralToken",
          "type": "address"
        },
        {
          "internalType": "uint256",
          "name": "startTime",
          "type": "uint256"
        },
        {
          "internalType": "uint256",
          "name": "duration",
          "type": "uint256"
        },
        {
          "internalType": "enum CreditAggregator.CreditStatus",
          "name": "status",
          "type": "uint8"
        },
        {
          "internalType": "address",
          "name": "lendingProtocol",
          "type": "address"
        }
      ],
      "stateMutability": "view",
      "type": "function"
    },
    {
      "inputs": [],
      "name": "creditScoringOracle",
      "outputs": [
        {
          "internalType": "contract ICreditScoringOracle",
          "name": "",
          "type": "address"
        }
      ],
      "stateMutability": "view",
      "type": "function"
    },
    {
      "inputs": [
        {
          "internalType": "uint256",
          "name": "creditId",
          "type": "uint256"
        }
      ],
      "name": "getCreditPosition",
      "outputs": [
        {
          "components": [
            {
              "internalType": "address",
              "name": "borrower",
              "type": "address"
            },
            {
              "internalType": "uint256",
              "name": "principal",
              "type": "uint256"
            },
            {
              "internalType": "uint256",
              "name": "interestRate",
              "type": "uint256"
            },
            {
              "internalType": "uint256",
              "name": "collateralAmount",
              "type": "uint256"
            },
            {
              "internalType": "address",
              "name": "collateralToken",
              "type": "address"
            },
            {
              "internalType": "uint256",
              "name": "startTime",
              "type": "uint256"
            },
            {
              "internalType": "uint256",
              "name": "duration",
              "type": "uint256"
            },
            {
              "internalType": "enum CreditAggregator.CreditStatus",
              "name": "status",
              "type": "uint8"
            },
            {
              "internalType": "address",
              "name": "lendingProtocol",
              "type": "address"
            }
          ],
          "internalType": "struct CreditAggregator.CreditPosition",
          "name": "",
          "type": "tuple"
        }
      ],
      "stateMutability": "view",
      "type": "function"
    },
    {
      "inputs": [
        {
          "internalType": "address",
          "name": "user",
          "type": "address"
        }
      ],
      "name": "getUserCredits",
      "outputs": [
        {
          "internalType": "uint256[]",
          "name": "",
          "type": "uint256[]"
        }
      ],
      "stateMutability": "view",
      "type": "function"
    },
    {
      "inputs": [
        {
          "internalType": "address",
          "name": "account",
          "type": "address"
        }
      ],
      "name": "isAuthorized",
      "outputs": [
        {
          "internalType": "bool",
          "name": "",
          "type": "bool"
        }
      ],
      "stateMutability": "view",
      "type": "function"
    },
    {
      "inputs": [
        {
          "internalType": "uint256",
          "name": "creditId",
          "type": "uint256"
        }
      ],
      "name": "liquidate",
      "outputs": [],
      "stateMutability": "nonpayable",
      "type": "function"
    },
    {
      "inputs": [],
      "name": "owner",
      "outputs": [
        {
          "internalType": "address",
          "name": "",
          "type": "address"
        }
      ],
      "stateMutability": "view",
      "type": "function"
    },
    {
      "inputs": [],
      "name": "pause",
      "outputs": [],
      "stateMutability": "nonpayable",
      "type": "function"
    },
    {
      "inputs": [],
      "name": "paused",
      "outputs": [
        {
          "internalType": "bool",
          "name": "",
          "type": "bool"
        }
      ],
      "stateMutability": "view",
      "type": "function"
    },
    {
      "inputs": [
        {
          "internalType": "address",
          "name": "",
          "type": "address"
        }
      ],
      "name": "protocolWeights",
      "outputs": [
        {
          "internalType": "uint256",
          "name": "",
          "type": "uint256"
        }
      ],
      "stateMutability": "view",
      "type": "function"
    },
    {
      "inputs": [
        {
          "internalType": "address",
          "name": "contractAddress",
          "type": "address"
        }
      ],
      "name": "removeAuthorizedContract",
      "outputs": [],
      "stateMutability": "nonpayable",
      "type": "function"
    },
    {
      "inputs": [],
      "name": "renounceOwnership",
      "outputs": [],
      "stateMutability": "nonpayable",
      "type": "function"
    },
    {
      "inputs": [
        {
          "internalType": "uint256",
          "name": "creditId",
          "type": "uint256"
        },
        {
          "internalType": "uint256",
          "name": "amount",
          "type": "uint256"
        }
      ],
      "name": "repayCredit",
      "outputs": [],
      "stateMutability": "nonpayable",
      "type": "function"
    },
    {
      "inputs": [
        {
          "internalType": "uint256",
          "name": "amount",
          "type": "uint256"
        },
        {
          "internalType": "address",
          "name": "collateral",
          "type": "address"
        },
        {
          "internalType": "uint256",
          "name": "collateralAmount",
          "type": "uint256"
        },
        {
          "internalType": "uint256",
          "name": "duration",
          "type": "uint256"
        }
      ],
      "name": "requestCredit",
      "outputs": [
        {
          "internalType": "uint256",
          "name": "creditId",
          "type": "uint256"
        }
      ],
      "stateMutability": "nonpayable",
      "type": "function"
    },
    {
      "inputs": [],
      "name": "riskManager",
      "outputs": [
        {
          "internalType": "contract IRiskManager",
          "name": "",
          "type": "address"
        }
      ],
      "stateMutability": "view",
      "type": "function"
    },
    {
      "inputs": [
        {
          "internalType": "address",
          "name": "protocol",
          "type": "address"
        },
        {
          "internalType": "uint256",
          "name": "weight",
          "type": "uint256"
        }
      ],
      "name": "setProtocolWeight",
      "outputs": [],
      "stateMutability": "nonpayable",
      "type": "function"
    },
    {
      "inputs": [
        {
          "internalType": "address",
          "name": "newOwner",
          "type": "address"
        }
      ],
      "name": "transferOwnership",
      "outputs": [],
      "stateMutability": "nonpayable",
      "type": "function"
    },
    {
      "inputs": [],
      "name": "unpause",
      "outputs": [],
      "stateMutability": "nonpayable",
      "type": "function"
    },
    {
      "inputs": [
        {
          "internalType": "address",
          "name": "_collateralManager",
          "type": "address"
        }
      ],
      "name": "updateCollateralManager",
      "outputs": [],
      "stateMutability": "nonpayable",
      "type": "function"
    },
    {
      "inputs": [
        {
          "internalType": "address",
          "name": "_creditScoringOracle",
          "type": "address"
        }
      ],
      "name": "updateCreditScoringOracle",
      "outputs": [],
      "stateMutability": "nonpayable",
      "type": "function"
    },
    {
      "inputs": [
        {
          "internalType": "address",
          "name": "_riskManager",
          "type": "address"
        }
      ],
      "name": "updateRiskManager",
      "outputs": [],
      "stateMutability": "nonpayable",
      "type": "function"
    },
    {
      "inputs": [
        {
          "internalType": "address",
          "name": "",
          "type": "address"
        },
        {
          "internalType": "uint256",
          "name": "",
          "type": "uint256"
        }
      ],
      "name": "userCredits",
      "outputs": [
        {
          "internalType": "uint256",
          "name": "",
          "type": "uint256"
        }
      ],
      "stateMutability": "view",
      "type": "function"
    }
  ],
  "bytecode": "0x60806040523480156200001157600080fd5b50604051620019a6380380620019a6833981016040819052620000349162000127565b80806001600160a01b0381166200006557604051631e4fbdf760e01b81526000600482015260240160405180910390fd5b6200007081620000ba565b50506001805550600780546001600160a01b039485166001600160a01b03199182161790915560088054938516938216939093179092556009805491909316911617905562000184565b600080546001600160a01b038381166001600160a01b0319831681178455604051919092169283917f8be0079c531659141344cd1fd0a4f28419497f9722a3daafe3b4186f6b6457e09190a35050565b80516001600160a01b03811681146200012257600080fd5b919050565b600080600080608085870312156200013e57600080fd5b62000149856200010a565b935062000159602086016200010a565b925062000169604086016200010a565b915062000179606086016200010a565b905092959194509250565b61181280620001946000396000f3fe608060405234801561001057600080fd5b50600436106101735760003560e01c8063715018a6116100de5780638da5cb5b11610097578063d5b9221b11610071578063d5b9221b146103b0578063e6b165ed146103d3578063f2fde38b146103e6578063fe9fbb80146103f957600080fd5b80638da5cb5b1461037957806398eaa4a71461038a578063b378a4491461039d57600080fd5b8063715018a61461030357806376c1b82f1461030b5780637deb256f1461032b57806381b26dda1461033e57806383590a721461035e5780638456cb591461037157600080fd5b80634784266311610130578063478426631461021957806351d9f3ec1461022c57806359d20b4e1461023f5780635c975abb146102bf578063674fed27146102dd5780636b604332146102f057600080fd5b806317a483a31461017857806323be345c1461019e5780632fcbd1e8146101c95780633ab67ea3146101dc5780633f4ba83a146101fc578063415f124014610206575b600080fd5b61018b6101863660046114f1565b61040c565b6040519081526020015b60405180910390f35b6007546101b1906001600160a01b031681565b6040516001600160a01b039091168152602001610195565b61018b6101d736600461151b565b61043d565b61018b6101ea366004611556565b60056020526000908152604090205481565b610204610824565b005b610204610214366004611578565b610836565b6009546101b1906001600160a01b031681565b61020461023a366004611556565b610a3b565b6102aa61024d366004611578565b6003602081905260009182526040909120805460018201546002830154938301546004840154600585015460068601546007909601546001600160a01b03958616979496949593949284169391929160ff82169161010090041689565b604051610195999897969594939291906115bb565b600054600160a01b900460ff165b6040519015158152602001610195565b6102046102eb3660046114f1565b610a65565b6102046102fe366004611556565b610a89565b610204610ab3565b61031e610319366004611578565b610ac5565b604051610195919061161e565b6008546101b1906001600160a01b031681565b61035161034c366004611556565b610b8c565b604051610195919061169e565b61020461036c3660046116e2565b610bf8565b610204610e44565b6000546001600160a01b03166101b1565b610204610398366004611556565b610e54565b6102046103ab366004611556565b610ef0565b6102cd6103be366004611556565b60026020526000908152604090205460ff1681565b6102046103e1366004611556565b610f1a565b6102046103f4366004611556565b610f6b565b6102cd610407366004611556565b610fa6565b6004602052816000526040600020818154811061042857600080fd5b90600052602060002001600091509150505481565b6000610447610fe0565b61044f61100a565b600085116104955760405162461bcd60e51b815260206004820152600e60248201526d125b9d985b1a5908185b5bdd5b9d60921b60448201526064015b60405180910390fd5b600082116104d85760405162461bcd60e51b815260206004820152601060248201526f24b73b30b634b210323ab930ba34b7b760811b604482015260640161048c565b6008546040516378e1ba9d60e11b81523360048201526000916001600160a01b03169063f1c3753a90602401602060405180830381865afa158015610521573d6000803e3d6000fd5b505050506040513d601f19601f820116820180604052508101906105459190611704565b9050600960009054906101000a90046001600160a01b03166001600160a01b031663b7161fac6040518163ffffffff1660e01b8152600401602060405180830381865afa15801561059a573d6000803e3d6000fd5b505050506040513d601f19601f820116820180604052508101906105be9190611704565b81101561060d5760405162461bcd60e51b815260206004820152601960248201527f496e73756666696369656e74206372656469742073636f726500000000000000604482015260640161048c565b60075460405163ee82616160e01b81523360048201526001600160a01b038781166024830152604482018790529091169063ee82616190606401600060405180830381600087803b15801561066157600080fd5b505af1158015610675573d6000803e3d6000fd5b50600092508291506106849050565b90506000610693338985611035565b90506006600081546106a490611733565b9182905550604080516101208101825233815260208082018c8152828401868152606084018c81526001600160a01b038e8116608087019081524260a0880190815260c088018f8152600060e08a018181528e86166101008c01528c82526003998a90529a9020895181549086166001600160a01b031991821617825597516001808301919091559651600282015594518589015591516004850180549190941696169590951790915592516005820155915160068301559351600782018054969a509395919490939260ff199290921691849081111561078757610787611591565b0217905550610100918201516007919091018054610100600160a81b0319166001600160a01b0390921690920217905533600081815260046020908152604080832080546001810182559084529282902090920187905590518a815286917f6e2dc5c76238d5094ccf6f24932391fddf95acea0897c28ce1f5cf6976f97fd0910160405180910390a350505061081c60018055565b949350505050565b61082c611079565b6108346110a6565b565b61083e610fe0565b600081815260036020526040812090600782015460ff16600381111561086657610866611591565b146108a75760405162461bcd60e51b8152602060048201526011602482015270437265646974206e6f742061637469766560781b604482015260640161048c565b6108b0826110fb565b6108fc5760405162461bcd60e51b815260206004820152601960248201527f506f736974696f6e206e6f74206c6971756964617461626c6500000000000000604482015260640161048c565b6007810180546003919060ff1916600183021790555060075481546004808401546003850154604051631ddaa6bf60e11b81526001600160a01b039485169381019390935290831660248301526044820152336064820152911690633bb54d7e90608401600060405180830381600087803b15801561097a57600080fd5b505af115801561098e573d6000803e3d6000fd5b50506008548354600185015460405163808af00560e01b81526001600160a01b03938416955063808af00594506109cf93909216916002919060040161174c565b600060405180830381600087803b1580156109e957600080fd5b505af11580156109fd573d6000803e3d6000fd5b50506040513392508491507f1e97c7237b9dc1bd4c57b7984f3a69f14e6e7336c90cd66b6d3c09325cec5fe390600090a350610a3860018055565b50565b610a43611079565b600980546001600160a01b0319166001600160a01b0392909216919091179055565b610a6d611079565b6001600160a01b03909116600090815260056020526040902055565b610a91611079565b600880546001600160a01b0319166001600160a01b0392909216919091179055565b610abb611079565b610834600061128b565b610acd611466565b60008281526003602081815260409283902083516101208101855281546001600160a01b03908116825260018301549382019390935260028201549481019490945280830154606085015260048101549091166080840152600581015460a0840152600681015460c08401526007810154909160e084019160ff1690811115610b5857610b58611591565b6003811115610b6957610b69611591565b81526007919091015461010090046001600160a01b031660209091015292915050565b6001600160a01b038116600090815260046020908152604091829020805483518184028101840190945280845260609392830182828015610bec57602002820191906000526020600020905b815481526020019060010190808311610bd8575b50505050509050919050565b610c00610fe0565b600082815260036020526040902080546001600160a01b03163314610c565760405162461bcd60e51b815260206004820152600c60248201526b2737ba103137b93937bbb2b960a11b604482015260640161048c565b6000600782015460ff166003811115610c7157610c71611591565b14610cb25760405162461bcd60e51b8152602060048201526011602482015270437265646974206e6f742061637469766560781b604482015260640161048c565b6000610cbd846112db565b905080831015610d0f5760405162461bcd60e51b815260206004820152601d60248201527f496e73756666696369656e742072657061796d656e7420616d6f756e74000000604482015260640161048c565b6007828101805460ff1916600117905554600480840154600385015460405163fbd24bbb60e01b815233938101939093526001600160a01b03918216602484015260448301529091169063fbd24bbb90606401600060405180830381600087803b158015610d7c57600080fd5b505af1158015610d90573d6000803e3d6000fd5b505060085460405163808af00560e01b81526001600160a01b03909116925063808af0059150610dc9903390600090889060040161174c565b600060405180830381600087803b158015610de357600080fd5b505af1158015610df7573d6000803e3d6000fd5b50505050837f6c20cb77003cf585315d927a3f2307e389796834d5e6d79097209d0ad0fdabe784604051610e2d91815260200190565b60405180910390a25050610e4060018055565b5050565b610e4c611079565b6108346113f9565b610e5c611079565b6001600160a01b038116610ea45760405162461bcd60e51b815260206004820152600f60248201526e496e76616c6964206164647265737360881b604482015260640161048c565b6001600160a01b038116600081815260026020526040808220805460ff19166001179055517f351e40fe333cede9dd79a1ef4d16228b1702f272eb2c2166ec3c7ee6a9d4ce2c9190a250565b610ef8611079565b600780546001600160a01b0319166001600160a01b0392909216919091179055565b610f22611079565b6001600160a01b038116600081815260026020526040808220805460ff19169055517f98a35376356c1565159c1b44676fcfa951a2287e2a816e208cf92e7aeb585a4f9190a250565b610f73611079565b6001600160a01b038116610f9d57604051631e4fbdf760e01b81526000600482015260240161048c565b610a388161128b565b6001600160a01b03811660009081526002602052604081205460ff1680610fda57506000546001600160a01b038381169116145b92915050565b60026001540361100357604051633ee5aeb560e01b815260040160405180910390fd5b6002600155565b600054600160a01b900460ff16156108345760405163d93c066560e01b815260040160405180910390fd5b60006101f4816102bc841161106057611050846102bc61177d565b61105b90600a611790565b611063565b60005b905061106f81836117a7565b9695505050505050565b6000546001600160a01b031633146108345760405163118cdaa760e01b815233600482015260240161048c565b6110ae61143c565b6000805460ff60a01b191690557f5db9ee0a495bf2e6ff9c91a7834c1ba4fdd244a5e8aa4e537bd38aeae4b073aa335b6040516001600160a01b03909116815260200160405180910390a1565b600081815260036020818152604080842081516101208101835281546001600160a01b03908116825260018301549482019490945260028201549281019290925280840154606083015260048101549092166080820152600582015460a0820152600682015460c08201526007820154849391929160e084019160ff169081111561118857611188611591565b600381111561119957611199611591565b81526007919091015461010090046001600160a01b031660209091015260c081015160a08201519192506000916111d091906117a7565b6007548351604051634bc8272160e11b81526001600160a01b039182166004820152429390931193506000929116906397904e4290602401602060405180830381865afa158015611225573d6000803e3d6000fd5b505050506040513d601f19601f820116820180604052508101906112499190611704565b90506000611256866112db565b905060008161126784612710611790565b61127191906117ba565b905083806112805750612ee081105b979650505050505050565b600080546001600160a01b038381166001600160a01b0319831681178455604051919092169283917f8be0079c531659141344cd1fd0a4f28419497f9722a3daafe3b4186f6b6457e09190a35050565b600081815260036020818152604080842081516101208101835281546001600160a01b03908116825260018301549482019490945260028201549281019290925280840154606083015260048101549092166080820152600582015460a0820152600682015460c08201526007820154849391929160e084019160ff169081111561136857611368611591565b600381111561137957611379611591565b81526007919091015461010090046001600160a01b031660209091015260a08101519091506000906113ab904261177d565b9050600064496cebb80082846040015185602001516113ca9190611790565b6113d49190611790565b6113de91906117ba565b90508083602001516113f091906117a7565b95945050505050565b61140161100a565b6000805460ff60a01b1916600160a01b1790557f62e78cea01bee320cd4e420270b5ea74000d11b0c9f74754ebdbfc544b05a2586110de3390565b600054600160a01b900460ff1661083457604051638dfc202b60e01b815260040160405180910390fd5b60405180610120016040528060006001600160a01b0316815260200160008152602001600081526020016000815260200160006001600160a01b031681526020016000815260200160008152602001600060038111156114c8576114c8611591565b8152600060209091015290565b80356001600160a01b03811681146114ec57600080fd5b919050565b6000806040838503121561150457600080fd5b61150d836114d5565b946020939093013593505050565b6000806000806080858703121561153157600080fd5b84359350611541602086016114d5565b93969395505050506040820135916060013590565b60006020828403121561156857600080fd5b611571826114d5565b9392505050565b60006020828403121561158a57600080fd5b5035919050565b634e487b7160e01b600052602160045260246000fd5b600481106115b7576115b7611591565b9052565b6001600160a01b038a81168252602082018a90526040820189905260608201889052868116608083015260a0820186905260c0820185905261012082019061160660e08401866115a7565b808416610100840152509a9950505050505050505050565b60006101208201905060018060a01b038084511683526020840151602084015260408401516040840152606084015160608401528060808501511660808401525060a083015160a083015260c083015160c083015260e083015161168560e08401826115a7565b50610100928301516001600160a01b0316919092015290565b6020808252825182820181905260009190848201906040850190845b818110156116d6578351835292840192918401916001016116ba565b50909695505050505050565b600080604083850312156116f557600080fd5b50508035926020909101359150565b60006020828403121561171657600080fd5b5051919050565b634e487b7160e01b600052601160045260246000fd5b6000600182016117455761174561171d565b5060010190565b6001600160a01b0384168152606081016005841061176c5761176c611591565b602082019390935260400152919050565b81810381811115610fda57610fda61171d565b8082028115828204841417610fda57610fda61171d565b80820180821115610fda57610fda61171d565b6000826117d757634e487b7160e01b600052601260045260246000fd5b50049056fea264697066735822122027e91ce0db9b0cc2256f4a75f74cf7f78c94c9f315997520217629bd58b5e4b264736f6c63430008140033",
  "linkReferences": {},
  "deployedLinkReferences": {}
}