{
  "_format": "hh-sol-artifact-1",
  "contractName": "CollateralManager",
  "sourceName": "contracts/CollateralManager.sol",
  "abi": [
    {
      "inputs": [
        {
          "internalType": "address",
          "name": "_priceFeed",
          "type": "address"
        },
        {
          "internalType": "address",
          "name": "_owner",
          "type": "address"
        }
      ],
      "stateMutability": "nonpayable",
      "type": "constructor"
    },
    {
      "inputs": [],
      "name": "EnforcedPause",
      "type": "error"
    },
    {
      "inputs": [],
      "name": "ExpectedPause",
      "type": "error"
    },
    {
      "inputs": [
        {
          "internalType": "address",
          "name": "owner",
          "type": "address"
        }
      ],
      "name": "OwnableInvalidOwner",
      "type": "error"
    },
    {
      "inputs": [
        {
          "internalType": "address",
          "name": "account",
          "type": "address"
        }
      ],
      "name": "OwnableUnauthorizedAccount",
      "type": "error"
    },
    {
      "inputs": [],
      "name": "ReentrancyGuardReentrantCall",
      "type": "error"
    },
    {
      "inputs": [
        {
          "internalType": "address",
          "name": "token",
          "type": "address"
        }
      ],
      "name": "SafeERC20FailedOperation",
      "type": "error"
    },
    {
      "anonymous": false,
      "inputs": [
        {
          "indexed": true,
          "internalType": "address",
          "name": "contractAddress",
          "type": "address"
        }
      ],
      "name": "AuthorizedContractAdded",
      "type": "event"
    },
    {
      "anonymous": false,
      "inputs": [
        {
          "indexed": true,
          "internalType": "address",
          "name": "contractAddress",
          "type": "address"
        }
      ],
      "name": "AuthorizedContractRemoved",
      "type": "event"
    },
    {
      "anonymous": false,
      "inputs": [
        {
          "indexed": true,
          "internalType": "address",
          "name": "user",
          "type": "address"
        },
        {
          "indexed": true,
          "internalType": "address",
          "name": "token",
          "type": "address"
        },
        {
          "indexed": false,
          "internalType": "uint256",
          "name": "amount",
          "type": "uint256"
        }
      ],
      "name": "CollateralDeposited",
      "type": "event"
    },
    {
      "anonymous": false,
      "inputs": [
        {
          "indexed": true,
          "internalType": "address",
          "name": "borrower",
          "type": "address"
        },
        {
          "indexed": true,
          "internalType": "address",
          "name": "token",
          "type": "address"
        },
        {
          "indexed": false,
          "internalType": "uint256",
          "name": "amount",
          "type": "uint256"
        },
        {
          "indexed": false,
          "internalType": "address",
          "name": "liquidator",
          "type": "address"
        }
      ],
      "name": "CollateralLiquidated",
      "type": "event"
    },
    {
      "anonymous": false,
      "inputs": [
        {
          "indexed": true,
          "internalType": "address",
          "name": "user",
          "type": "address"
        },
        {
          "indexed": true,
          "internalType": "address",
          "name": "token",
          "type": "address"
        },
        {
          "indexed": false,
          "internalType": "uint256",
          "name": "amount",
          "type": "uint256"
        }
      ],
      "name": "CollateralLocked",
      "type": "event"
    },
    {
      "anonymous": false,
      "inputs": [
        {
          "indexed": true,
          "internalType": "address",
          "name": "user",
          "type": "address"
        },
        {
          "indexed": true,
          "internalType": "address",
          "name": "token",
          "type": "address"
        },
        {
          "indexed": false,
          "internalType": "uint256",
          "name": "amount",
          "type": "uint256"
        }
      ],
      "name": "CollateralReleased",
      "type": "event"
    },
    {
      "anonymous": false,
      "inputs": [
        {
          "indexed": true,
          "internalType": "address",
          "name": "user",
          "type": "address"
        },
        {
          "indexed": false,
          "internalType": "address",
          "name": "fromToken",
          "type": "address"
        },
        {
          "indexed": false,
          "internalType": "address",
          "name": "toToken",
          "type": "address"
        },
        {
          "indexed": false,
          "internalType": "uint256",
          "name": "amountIn",
          "type": "uint256"
        },
        {
          "indexed": false,
          "internalType": "uint256",
          "name": "amountOut",
          "type": "uint256"
        }
      ],
      "name": "CollateralSwapped",
      "type": "event"
    },
    {
      "anonymous": false,
      "inputs": [
        {
          "indexed": true,
          "internalType": "address",
          "name": "user",
          "type": "address"
        },
        {
          "indexed": true,
          "internalType": "address",
          "name": "token",
          "type": "address"
        },
        {
          "indexed": false,
          "internalType": "uint256",
          "name": "amount",
          "type": "uint256"
        }
      ],
      "name": "CollateralWithdrawn",
      "type": "event"
    },
    {
      "anonymous": false,
      "inputs": [
        {
          "indexed": true,
          "internalType": "address",
          "name": "previousOwner",
          "type": "address"
        },
        {
          "indexed": true,
          "internalType": "address",
          "name": "newOwner",
          "type": "address"
        }
      ],
      "name": "OwnershipTransferred",
      "type": "event"
    },
    {
      "anonymous": false,
      "inputs": [
        {
          "indexed": false,
          "internalType": "address",
          "name": "account",
          "type": "address"
        }
      ],
      "name": "Paused",
      "type": "event"
    },
    {
      "anonymous": false,
      "inputs": [
        {
          "indexed": false,
          "internalType": "address",
          "name": "account",
          "type": "address"
        }
      ],
      "name": "Unpaused",
      "type": "event"
    },
    {
      "inputs": [],
      "name": "BASIS_POINTS",
      "outputs": [
        {
          "internalType": "uint256",
          "name": "",
          "type": "uint256"
        }
      ],
      "stateMutability": "view",
      "type": "function"
    },
    {
      "inputs": [],
      "name": "LIQUIDATION_BONUS",
      "outputs": [
        {
          "internalType": "uint256",
          "name": "",
          "type": "uint256"
        }
      ],
      "stateMutability": "view",
      "type": "function"
    },
    {
      "inputs": [
        {
          "internalType": "address",
          "name": "contractAddress",
          "type": "address"
        }
      ],
      "name": "addAuthorizedContract",
      "outputs": [],
      "stateMutability": "nonpayable",
      "type": "function"
    },
    {
      "inputs": [
        {
          "internalType": "address",
          "name": "token",
          "type": "address"
        },
        {
          "internalType": "uint256",
          "name": "collateralFactor",
          "type": "uint256"
        },
        {
          "internalType": "uint256",
          "name": "liquidationThreshold",
          "type": "uint256"
        }
      ],
      "name": "addSupportedCollateral",
      "outputs": [],
      "stateMutability": "nonpayable",
      "type": "function"
    },
    {
      "inputs": [
        {
          "internalType": "address",
          "name": "",
          "type": "address"
        }
      ],
      "name": "authorizedContracts",
      "outputs": [
        {
          "internalType": "bool",
          "name": "",
          "type": "bool"
        }
      ],
      "stateMutability": "view",
      "type": "function"
    },
    {
      "inputs": [
        {
          "internalType": "address",
          "name": "user",
          "type": "address"
        },
        {
          "internalType": "address",
          "name": "token",
          "type": "address"
        }
      ],
      "name": "calculateLiquidationValue",
      "outputs": [
        {
          "internalType": "uint256",
          "name": "",
          "type": "uint256"
        }
      ],
      "stateMutability": "view",
      "type": "function"
    },
    {
      "inputs": [
        {
          "internalType": "address",
          "name": "",
          "type": "address"
        }
      ],
      "name": "collateralFactors",
      "outputs": [
        {
          "internalType": "uint256",
          "name": "",
          "type": "uint256"
        }
      ],
      "stateMutability": "view",
      "type": "function"
    },
    {
      "inputs": [
        {
          "internalType": "address",
          "name": "token",
          "type": "address"
        },
        {
          "internalType": "uint256",
          "name": "amount",
          "type": "uint256"
        }
      ],
      "name": "depositCollateral",
      "outputs": [],
      "stateMutability": "nonpayable",
      "type": "function"
    },
    {
      "inputs": [
        {
          "internalType": "address",
          "name": "token",
          "type": "address"
        },
        {
          "internalType": "uint256",
          "name": "amount",
          "type": "uint256"
        }
      ],
      "name": "emergencyWithdraw",
      "outputs": [],
      "stateMutability": "nonpayable",
      "type": "function"
    },
    {
      "inputs": [
        {
          "internalType": "address",
          "name": "user",
          "type": "address"
        },
        {
          "internalType": "address",
          "name": "token",
          "type": "address"
        }
      ],
      "name": "getAvailableCollateral",
      "outputs": [
        {
          "internalType": "uint256",
          "name": "",
          "type": "uint256"
        }
      ],
      "stateMutability": "view",
      "type": "function"
    },
    {
      "inputs": [
        {
          "internalType": "address",
          "name": "user",
          "type": "address"
        },
        {
          "internalType": "address",
          "name": "token",
          "type": "address"
        }
      ],
      "name": "getCollateralInfo",
      "outputs": [
        {
          "components": [
            {
              "internalType": "address",
              "name": "token",
              "type": "address"
            },
            {
              "internalType": "uint256",
              "name": "amount",
              "type": "uint256"
            },
            {
              "internalType": "uint256",
              "name": "lockedAmount",
              "type": "uint256"
            },
            {
              "internalType": "uint256",
              "name": "lastUpdateTime",
              "type": "uint256"
            }
          ],
          "internalType": "struct CollateralManager.CollateralInfo",
          "name": "",
          "type": "tuple"
        }
      ],
      "stateMutability": "view",
      "type": "function"
    },
    {
      "inputs": [
        {
          "internalType": "address",
          "name": "user",
          "type": "address"
        }
      ],
      "name": "getCollateralValue",
      "outputs": [
        {
          "internalType": "uint256",
          "name": "totalValue",
          "type": "uint256"
        }
      ],
      "stateMutability": "view",
      "type": "function"
    },
    {
      "inputs": [
        {
          "internalType": "address",
          "name": "user",
          "type": "address"
        },
        {
          "internalType": "address",
          "name": "token",
          "type": "address"
        }
      ],
      "name": "getLockedCollateral",
      "outputs": [
        {
          "internalType": "uint256",
          "name": "",
          "type": "uint256"
        }
      ],
      "stateMutability": "view",
      "type": "function"
    },
    {
      "inputs": [],
      "name": "getSupportedTokens",
      "outputs": [
        {
          "internalType": "address[]",
          "name": "",
          "type": "address[]"
        }
      ],
      "stateMutability": "view",
      "type": "function"
    },
    {
      "inputs": [
        {
          "internalType": "address",
          "name": "account",
          "type": "address"
        }
      ],
      "name": "isAuthorized",
      "outputs": [
        {
          "internalType": "bool",
          "name": "",
          "type": "bool"
        }
      ],
      "stateMutability": "view",
      "type": "function"
    },
    {
      "inputs": [
        {
          "internalType": "address",
          "name": "borrower",
          "type": "address"
        },
        {
          "internalType": "address",
          "name": "token",
          "type": "address"
        },
        {
          "internalType": "uint256",
          "name": "amount",
          "type": "uint256"
        },
        {
          "internalType": "address",
          "name": "liquidator",
          "type": "address"
        }
      ],
      "name": "liquidateCollateral",
      "outputs": [],
      "stateMutability": "nonpayable",
      "type": "function"
    },
    {
      "inputs": [
        {
          "internalType": "address",
          "name": "",
          "type": "address"
        }
      ],
      "name": "liquidationThresholds",
      "outputs": [
        {
          "internalType": "uint256",
          "name": "",
          "type": "uint256"
        }
      ],
      "stateMutability": "view",
      "type": "function"
    },
    {
      "inputs": [
        {
          "internalType": "address",
          "name": "user",
          "type": "address"
        },
        {
          "internalType": "address",
          "name": "token",
          "type": "address"
        },
        {
          "internalType": "uint256",
          "name": "amount",
          "type": "uint256"
        }
      ],
      "name": "lockCollateral",
      "outputs": [],
      "stateMutability": "nonpayable",
      "type": "function"
    },
    {
      "inputs": [],
      "name": "owner",
      "outputs": [
        {
          "internalType": "address",
          "name": "",
          "type": "address"
        }
      ],
      "stateMutability": "view",
      "type": "function"
    },
    {
      "inputs": [],
      "name": "pause",
      "outputs": [],
      "stateMutability": "nonpayable",
      "type": "function"
    },
    {
      "inputs": [],
      "name": "paused",
      "outputs": [
        {
          "internalType": "bool",
          "name": "",
          "type": "bool"
        }
      ],
      "stateMutability": "view",
      "type": "function"
    },
    {
      "inputs": [],
      "name": "priceFeed",
      "outputs": [
        {
          "internalType": "contract IPriceFeedAggregator",
          "name": "",
          "type": "address"
        }
      ],
      "stateMutability": "view",
      "type": "function"
    },
    {
      "inputs": [
        {
          "internalType": "address",
          "name": "user",
          "type": "address"
        },
        {
          "internalType": "address",
          "name": "token",
          "type": "address"
        },
        {
          "internalType": "uint256",
          "name": "amount",
          "type": "uint256"
        }
      ],
      "name": "releaseCollateral",
      "outputs": [],
      "stateMutability": "nonpayable",
      "type": "function"
    },
    {
      "inputs": [
        {
          "internalType": "address",
          "name": "contractAddress",
          "type": "address"
        }
      ],
      "name": "removeAuthorizedContract",
      "outputs": [],
      "stateMutability": "nonpayable",
      "type": "function"
    },
    {
      "inputs": [
        {
          "internalType": "address",
          "name": "token",
          "type": "address"
        }
      ],
      "name": "removeSupportedCollateral",
      "outputs": [],
      "stateMutability": "nonpayable",
      "type": "function"
    },
    {
      "inputs": [],
      "name": "renounceOwnership",
      "outputs": [],
      "stateMutability": "nonpayable",
      "type": "function"
    },
    {
      "inputs": [
        {
          "internalType": "address",
          "name": "",
          "type": "address"
        }
      ],
      "name": "supportedCollateral",
      "outputs": [
        {
          "internalType": "bool",
          "name": "",
          "type": "bool"
        }
      ],
      "stateMutability": "view",
      "type": "function"
    },
    {
      "inputs": [
        {
          "internalType": "address",
          "name": "fromToken",
          "type": "address"
        },
        {
          "internalType": "address",
          "name": "toToken",
          "type": "address"
        },
        {
          "internalType": "uint256",
          "name": "amount",
          "type": "uint256"
        },
        {
          "internalType": "uint256",
          "name": "minAmountOut",
          "type": "uint256"
        }
      ],
      "name": "swapCollateral",
      "outputs": [],
      "stateMutability": "nonpayable",
      "type": "function"
    },
    {
      "inputs": [
        {
          "internalType": "address",
          "name": "newOwner",
          "type": "address"
        }
      ],
      "name": "transferOwnership",
      "outputs": [],
      "stateMutability": "nonpayable",
      "type": "function"
    },
    {
      "inputs": [],
      "name": "unpause",
      "outputs": [],
      "stateMutability": "nonpayable",
      "type": "function"
    },
    {
      "inputs": [
        {
          "internalType": "address",
          "name": "token",
          "type": "address"
        },
        {
          "internalType": "uint256",
          "name": "newFactor",
          "type": "uint256"
        }
      ],
      "name": "updateCollateralFactor",
      "outputs": [],
      "stateMutability": "nonpayable",
      "type": "function"
    },
    {
      "inputs": [
        {
          "internalType": "address",
          "name": "token",
          "type": "address"
        },
        {
          "internalType": "uint256",
          "name": "newThreshold",
          "type": "uint256"
        }
      ],
      "name": "updateLiquidationThreshold",
      "outputs": [],
      "stateMutability": "nonpayable",
      "type": "function"
    },
    {
      "inputs": [
        {
          "internalType": "address",
          "name": "_priceFeed",
          "type": "address"
        }
      ],
      "name": "updatePriceFeed",
      "outputs": [],
      "stateMutability": "nonpayable",
      "type": "function"
    },
    {
      "inputs": [
        {
          "internalType": "address",
          "name": "",
          "type": "address"
        },
        {
          "internalType": "address",
          "name": "",
          "type": "address"
        }
      ],
      "name": "userCollateral",
      "outputs": [
        {
          "internalType": "address",
          "name": "token",
          "type": "address"
        },
        {
          "internalType": "uint256",
          "name": "amount",
          "type": "uint256"
        },
        {
          "internalType": "uint256",
          "name": "lockedAmount",
          "type": "uint256"
        },
        {
          "internalType": "uint256",
          "name": "lastUpdateTime",
          "type": "uint256"
        }
      ],
      "stateMutability": "view",
      "type": "function"
    },
    {
      "inputs": [
        {
          "internalType": "address",
          "name": "token",
          "type": "address"
        },
        {
          "internalType": "uint256",
          "name": "amount",
          "type": "uint256"
        }
      ],
      "name": "withdrawCollateral",
      "outputs": [],
      "stateMutability": "nonpayable",
      "type": "function"
    }
  ],
  "bytecode": "0x60806040523480156200001157600080fd5b50604051620024213803806200242183398101604081905262000034916200010a565b80806001600160a01b0381166200006557604051631e4fbdf760e01b81526000600482015260240160405180910390fd5b62000070816200009d565b50506001805550600780546001600160a01b0319166001600160a01b039290921691909117905562000142565b600080546001600160a01b038381166001600160a01b0319831681178455604051919092169283917f8be0079c531659141344cd1fd0a4f28419497f9722a3daafe3b4186f6b6457e09190a35050565b80516001600160a01b03811681146200010557600080fd5b919050565b600080604083850312156200011e57600080fd5b6200012983620000ed565b91506200013960208401620000ed565b90509250929050565b6122cf80620001526000396000f3fe608060405234801561001057600080fd5b50600436106102115760003560e01c80638ffe8eaa11610125578063e470ce11116100ad578063ee8261611161007c578063ee82616114610519578063f2fde38b1461052c578063fa550eba1461053f578063fbd24bbb14610562578063fe9fbb801461057557600080fd5b8063e470ce11146104cd578063e5e0b280146104e0578063e6b165ed146104f3578063ebf350ee1461050657600080fd5b806398eaa4a7116100f457806398eaa4a714610466578063a5d5db0c14610479578063d3c7c2c71461048c578063d5b9221b146104a1578063e1f1c4a7146104c457600080fd5b80638ffe8eaa1461041a57806395877f781461042d57806395ccea671461044057806397904e421461045357600080fd5b8063572d9888116101a8578063715018a611610177578063715018a6146103ae578063741bef1a146103b657806378327438146103e15780638456cb59146104015780638da5cb5b1461040957600080fd5b8063572d98881461030e5780635b1ae19f1461032e5780635c975abb146103415780635d242b971461035f57600080fd5b80633bb54d7e116101e45780633bb54d7e146102cd5780633f4ba83a146102e057806340f895ea146102e8578063509814d3146102fb57600080fd5b80631800d79f146102165780632b92a07d1461022b578063350c35e9146102a35780633574d4c4146102b6575b600080fd5b610229610224366004611e9a565b610588565b005b610274610239366004611ebc565b6003602081815260009384526040808520909152918352912080546001820154600283015492909301546001600160a01b0390911692919084565b604080516001600160a01b03909516855260208501939093529183015260608201526080015b60405180910390f35b6102296102b1366004611eef565b610711565b6102bf6101f481565b60405190815260200161029a565b6102296102db366004611f19565b610860565b610229610a2c565b6102bf6102f6366004611ebc565b610a3e565b6102bf610309366004611ebc565b610a6e565b6102bf61031c366004611e9a565b60056020526000908152604090205481565b61022961033c366004611eef565b610bfd565b600054600160a01b900460ff165b604051901515815260200161029a565b61037261036d366004611ebc565b610c9c565b60405161029a919081516001600160a01b0316815260208083015190820152604080830151908201526060918201519181019190915260800190565b610229610d2a565b6007546103c9906001600160a01b031681565b6040516001600160a01b03909116815260200161029a565b6102bf6103ef366004611e9a565b60066020526000908152604090205481565b610229610d3c565b6000546001600160a01b03166103c9565b6102bf610428366004611ebc565b610d4c565b61022961043b366004611e9a565b610db5565b61022961044e366004611eef565b610ddf565b6102bf610461366004611e9a565b610e0d565b610229610474366004611e9a565b610fc7565b610229610487366004611eef565b611063565b6104946111bb565b60405161029a9190611f66565b61034f6104af366004611e9a565b60026020526000908152604090205460ff1681565b6102bf61271081565b6102296104db366004611fb3565b61121d565b6102296104ee366004611ff5565b61142f565b610229610501366004611e9a565b6115b9565b610229610514366004611eef565b61160a565b610229610527366004612028565b6116ac565b61022961053a366004611e9a565b6117e1565b61034f61054d366004611e9a565b60046020526000908152604090205460ff1681565b610229610570366004612028565b61181f565b61034f610583366004611e9a565b611934565b61059061196b565b6001600160a01b03811660009081526004602052604090205460ff166105d15760405162461bcd60e51b81526004016105c890612064565b60405180910390fd5b6001600160a01b0381166000908152600460209081526040808320805460ff1916905560058252808320839055600690915281208190555b60085481101561070d57816001600160a01b0316600882815481106106305761063061208b565b6000918252602090912001546001600160a01b0316036106fb576008805461065a906001906120b7565b8154811061066a5761066a61208b565b600091825260209091200154600880546001600160a01b0390921691839081106106965761069661208b565b9060005260206000200160006101000a8154816001600160a01b0302191690836001600160a01b0316021790555060088054806106d5576106d56120ca565b600082815260209020810160001990810180546001600160a01b03191690550190555050565b80610705816120e0565b915050610609565b5050565b610719611998565b6107216119c2565b3360009081526003602090815260408083206001600160a01b03861684529091529020600181015482111561078f5760405162461bcd60e51b8152602060048201526014602482015273496e73756666696369656e742062616c616e636560601b60448201526064016105c8565b81816002015482600101546107a491906120b7565b10156107e25760405162461bcd60e51b815260206004820152600d60248201526c105b5bdd5b9d081b1bd8dad959609a1b60448201526064016105c8565b818160010160008282546107f691906120b7565b90915550504260038201556108156001600160a01b03841633846119ed565b6040518281526001600160a01b0384169033907f45892a46e6cef329bb642da6d69846d324db43d19008edc141ed82382eda1bee906020015b60405180910390a35061070d60018055565b3360009081526002602052604090205460ff168061088857506000546001600160a01b031633145b6108a45760405162461bcd60e51b81526004016105c8906120f9565b6001600160a01b038085166000908152600360209081526040808320938716835292905220600281015483111561091d5760405162461bcd60e51b815260206004820152601e60248201527f496e73756666696369656e74206c6f636b656420636f6c6c61746572616c000060448201526064016105c8565b8281600101600082825461093191906120b7565b925050819055508281600201600082825461094c91906120b7565b909155505042600382015560006127106109686101f486612121565b6109729190612138565b90506000610980828661215a565b9050818360010154106109ac57818360010160008282546109a191906120b7565b909155506109c59050565b60018301546109bb908661215a565b6000600185015590505b6109d96001600160a01b03871685836119ed565b604080518681526001600160a01b03868116602083015280891692908a16917f76cc391e49692524b48f56038df490540322d53c500050831bec196983bf3fe6910160405180910390a350505050505050565b610a3461196b565b610a3c611a51565b565b6001600160a01b038083166000908152600360209081526040808320938516835292905220600201545b92915050565b6001600160a01b038281166000908152600360208181526040808420868616808652908352818520825160808101845281548816815260018201549481019490945260028101548484015290930154606083015260075490516341976e0960e01b815260048101939093529293909284929116906341976e0990602401602060405180830381865afa158015610b08573d6000803e3d6000fd5b505050506040513d601f19601f82011682018060405250810190610b2c919061216d565b90506000846001600160a01b031663313ce5676040518163ffffffff1660e01b8152600401602060405180830381865afa158015610b6e573d6000803e3d6000fd5b505050506040513d601f19601f82011682018060405250810190610b929190612186565b60ff1690506000610ba482600a61228d565b838560400151610bb49190612121565b610bbe9190612138565b6001600160a01b038716600090815260066020526040902054909150612710610be78284612121565b610bf19190612138565b98975050505050505050565b610c0561196b565b6001600160a01b03821660009081526004602052604090205460ff16610c3d5760405162461bcd60e51b81526004016105c890612064565b612710811115610c805760405162461bcd60e51b815260206004820152600e60248201526d24b73b30b634b2103330b1ba37b960911b60448201526064016105c8565b6001600160a01b03909116600090815260056020526040902055565b610cd0604051806080016040528060006001600160a01b031681526020016000815260200160008152602001600081525090565b506001600160a01b0391821660009081526003602081815260408084209486168452938152918390208351608081018552815490951685526001810154928501929092526002820154928401929092520154606082015290565b610d3261196b565b610a3c6000611aa6565b610d4461196b565b610a3c611af6565b6001600160a01b0380831660009081526003602081815260408084208686168552825280842081516080810183528154909616865260018101549286018390526002810154918601829052909201546060850152919291610dad91906120b7565b949350505050565b610dbd61196b565b600780546001600160a01b0319166001600160a01b0392909216919091179055565b610de761196b565b61070d610dfc6000546001600160a01b031690565b6001600160a01b03841690836119ed565b6000805b600854811015610fc157600060088281548110610e3057610e3061208b565b60009182526020808320909101546001600160a01b0387811684526003808452604080862093831680875293855294859020855160808101875281549093168352600181015494830185905260028101549583019590955293909301546060840152925015610fac576007546040516341976e0960e01b81526001600160a01b03848116600483015260009216906341976e0990602401602060405180830381865afa158015610ee4573d6000803e3d6000fd5b505050506040513d601f19601f82011682018060405250810190610f08919061216d565b90506000836001600160a01b031663313ce5676040518163ffffffff1660e01b8152600401602060405180830381865afa158015610f4a573d6000803e3d6000fd5b505050506040513d601f19601f82011682018060405250810190610f6e9190612186565b60ff1690506000610f8082600a61228d565b838560200151610f909190612121565b610f9a9190612138565b9050610fa6818861215a565b96505050505b50508080610fb9906120e0565b915050610e11565b50919050565b610fcf61196b565b6001600160a01b0381166110175760405162461bcd60e51b815260206004820152600f60248201526e496e76616c6964206164647265737360881b60448201526064016105c8565b6001600160a01b038116600081815260026020526040808220805460ff19166001179055517f351e40fe333cede9dd79a1ef4d16228b1702f272eb2c2166ec3c7ee6a9d4ce2c9190a250565b61106b611998565b6110736119c2565b6001600160a01b03821660009081526004602052604090205460ff166110d45760405162461bcd60e51b8152602060048201526016602482015275155b9cdd5c1c1bdc9d19590818dbdb1b185d195c985b60521b60448201526064016105c8565b600081116111155760405162461bcd60e51b815260206004820152600e60248201526d125b9d985b1a5908185b5bdd5b9d60921b60448201526064016105c8565b61112a6001600160a01b038316333084611b39565b3360009081526003602090815260408083206001600160a01b0386168085529252822080546001600160a01b03191690911781556001810180549192849261117390849061215a565b90915550504260038201556040518281526001600160a01b0384169033907ff1c0dd7e9b98bbff859029005ef89b127af049cd18df1a8d79f0b7e019911e569060200161084e565b6060600880548060200260200160405190810160405280929190818152602001828054801561121357602002820191906000526020600020905b81546001600160a01b031681526001909101906020018083116111f5575b5050505050905090565b611225611998565b61122d6119c2565b6001600160a01b03841660009081526004602052604090205460ff16801561126d57506001600160a01b03831660009081526004602052604090205460ff165b6112ae5760405162461bcd60e51b8152602060048201526012602482015271556e737570706f7274656420746f6b656e7360701b60448201526064016105c8565b3360009081526003602090815260408083206001600160a01b038816845290915290206002810154600182015484916112e6916120b7565b101561133e5760405162461bcd60e51b815260206004820152602160248201527f496e73756666696369656e7420617661696c61626c6520636f6c6c61746572616044820152601b60fa1b60648201526084016105c8565b600061134c86868686611b72565b90508382600101600082825461136291906120b7565b90915550503360009081526003602090815260408083206001600160a01b03891684529091528120600101805483929061139d90849061215a565b9091555050426003838101829055336000818152602083815260408083206001600160a01b038c811680865291845293829020909501959095558451918b168252810192909252918101869052606081018390527fb37f2db68d9aceaafae8ed54facb127a5ff88946b2d6b663d68dfc2e823746f99060800160405180910390a2505061142960018055565b50505050565b61143761196b565b6001600160a01b03831660009081526004602052604090205460ff16156114945760405162461bcd60e51b8152602060048201526011602482015270105b1c9958591e481cdd5c1c1bdc9d1959607a1b60448201526064016105c8565b6127108211156114e65760405162461bcd60e51b815260206004820152601960248201527f496e76616c696420636f6c6c61746572616c20666163746f720000000000000060448201526064016105c8565b6127108111156115385760405162461bcd60e51b815260206004820152601d60248201527f496e76616c6964206c69717569646174696f6e207468726573686f6c6400000060448201526064016105c8565b6001600160a01b039092166000818152600460209081526040808320805460ff19166001908117909155600583528184209590955560069091528120939093556008805492830181559092527ff3f7a9fe364faab93b216da50a3214154f22a0a2b415b23a84c8169e8b636ee30180546001600160a01b0319169091179055565b6115c161196b565b6001600160a01b038116600081815260026020526040808220805460ff19169055517f98a35376356c1565159c1b44676fcfa951a2287e2a816e208cf92e7aeb585a4f9190a250565b61161261196b565b6001600160a01b03821660009081526004602052604090205460ff1661164a5760405162461bcd60e51b81526004016105c890612064565b6127108111156116905760405162461bcd60e51b8152602060048201526011602482015270125b9d985b1a59081d1a1c995cda1bdb19607a1b60448201526064016105c8565b6001600160a01b03909116600090815260066020526040902055565b3360009081526002602052604090205460ff16806116d457506000546001600160a01b031633145b6116f05760405162461bcd60e51b81526004016105c8906120f9565b6001600160a01b038084166000908152600360209081526040808320938616835292905220600281015461172590839061215a565b816001015410156117785760405162461bcd60e51b815260206004820152601760248201527f496e73756666696369656e7420636f6c6c61746572616c00000000000000000060448201526064016105c8565b8181600201600082825461178c919061215a565b90915550504260038201556040518281526001600160a01b0384811691908616907f9d952b9056b1ad31790d622a7f5ecf49004b370b41add0e429ac1e9f4b8a3335906020015b60405180910390a350505050565b6117e961196b565b6001600160a01b03811661181357604051631e4fbdf760e01b8152600060048201526024016105c8565b61181c81611aa6565b50565b3360009081526002602052604090205460ff168061184757506000546001600160a01b031633145b6118635760405162461bcd60e51b81526004016105c8906120f9565b6001600160a01b03808416600090815260036020908152604080832093861683529290522060028101548211156118d55760405162461bcd60e51b8152602060048201526016602482015275125b9d985b1a59081c995b19585cd948185b5bdd5b9d60521b60448201526064016105c8565b818160020160008282546118e991906120b7565b90915550504260038201556040518281526001600160a01b0384811691908616907f61934a17c11b5044643161fe4f0b02bec50109892c048066a3b19507bdc59bb9906020016117d3565b6001600160a01b03811660009081526002602052604081205460ff1680610a685750506000546001600160a01b0391821691161490565b6000546001600160a01b03163314610a3c5760405163118cdaa760e01b81523360048201526024016105c8565b6002600154036119bb57604051633ee5aeb560e01b815260040160405180910390fd5b6002600155565b600054600160a01b900460ff1615610a3c5760405163d93c066560e01b815260040160405180910390fd5b6040516001600160a01b03838116602483015260448201839052611a4c91859182169063a9059cbb906064015b604051602081830303815290604052915060e01b6020820180516001600160e01b038381831617835250505050611de3565b505050565b611a59611e54565b6000805460ff60a01b191690557f5db9ee0a495bf2e6ff9c91a7834c1ba4fdd244a5e8aa4e537bd38aeae4b073aa335b6040516001600160a01b03909116815260200160405180910390a1565b600080546001600160a01b038381166001600160a01b0319831681178455604051919092169283917f8be0079c531659141344cd1fd0a4f28419497f9722a3daafe3b4186f6b6457e09190a35050565b611afe6119c2565b6000805460ff60a01b1916600160a01b1790557f62e78cea01bee320cd4e420270b5ea74000d11b0c9f74754ebdbfc544b05a258611a893390565b6040516001600160a01b0384811660248301528381166044830152606482018390526114299186918216906323b872dd90608401611a1a565b6007546040516341976e0960e01b81526001600160a01b03868116600483015260009283929116906341976e0990602401602060405180830381865afa158015611bc0573d6000803e3d6000fd5b505050506040513d601f19601f82011682018060405250810190611be4919061216d565b6007546040516341976e0960e01b81526001600160a01b038881166004830152929350600092909116906341976e0990602401602060405180830381865afa158015611c34573d6000803e3d6000fd5b505050506040513d601f19601f82011682018060405250810190611c58919061216d565b90506000876001600160a01b031663313ce5676040518163ffffffff1660e01b8152600401602060405180830381865afa158015611c9a573d6000803e3d6000fd5b505050506040513d601f19601f82011682018060405250810190611cbe9190612186565b60ff1690506000876001600160a01b031663313ce5676040518163ffffffff1660e01b8152600401602060405180830381865afa158015611d03573d6000803e3d6000fd5b505050506040513d601f19601f82011682018060405250810190611d279190612186565b60ff169050611d3782600a61228d565b611d419084612121565b611d4c82600a61228d565b611d56868a612121565b611d609190612121565b611d6a9190612138565b9450612710611d7b866126f2612121565b611d859190612138565b945085851015611dd75760405162461bcd60e51b815260206004820152601a60248201527f496e73756666696369656e74206f757470757420616d6f756e7400000000000060448201526064016105c8565b50505050949350505050565b600080602060008451602086016000885af180611e06576040513d6000823e3d81fd5b50506000513d91508115611e1e578060011415611e2b565b6001600160a01b0384163b155b1561142957604051635274afe760e01b81526001600160a01b03851660048201526024016105c8565b600054600160a01b900460ff16610a3c57604051638dfc202b60e01b815260040160405180910390fd5b80356001600160a01b0381168114611e9557600080fd5b919050565b600060208284031215611eac57600080fd5b611eb582611e7e565b9392505050565b60008060408385031215611ecf57600080fd5b611ed883611e7e565b9150611ee660208401611e7e565b90509250929050565b60008060408385031215611f0257600080fd5b611f0b83611e7e565b946020939093013593505050565b60008060008060808587031215611f2f57600080fd5b611f3885611e7e565b9350611f4660208601611e7e565b925060408501359150611f5b60608601611e7e565b905092959194509250565b6020808252825182820181905260009190848201906040850190845b81811015611fa75783516001600160a01b031683529284019291840191600101611f82565b50909695505050505050565b60008060008060808587031215611fc957600080fd5b611fd285611e7e565b9350611fe060208601611e7e565b93969395505050506040820135916060013590565b60008060006060848603121561200a57600080fd5b61201384611e7e565b95602085013595506040909401359392505050565b60008060006060848603121561203d57600080fd5b61204684611e7e565b925061205460208501611e7e565b9150604084013590509250925092565b6020808252600d908201526c139bdd081cdd5c1c1bdc9d1959609a1b604082015260600190565b634e487b7160e01b600052603260045260246000fd5b634e487b7160e01b600052601160045260246000fd5b81810381811115610a6857610a686120a1565b634e487b7160e01b600052603160045260246000fd5b6000600182016120f2576120f26120a1565b5060010190565b6020808252600e908201526d139bdd08185d5d1a1bdc9a5e995960921b604082015260600190565b8082028115828204841417610a6857610a686120a1565b60008261215557634e487b7160e01b600052601260045260246000fd5b500490565b80820180821115610a6857610a686120a1565b60006020828403121561217f57600080fd5b5051919050565b60006020828403121561219857600080fd5b815160ff81168114611eb557600080fd5b600181815b808511156121e45781600019048211156121ca576121ca6120a1565b808516156121d757918102915b93841c93908002906121ae565b509250929050565b6000826121fb57506001610a68565b8161220857506000610a68565b816001811461221e576002811461222857612244565b6001915050610a68565b60ff841115612239576122396120a1565b50506001821b610a68565b5060208310610133831016604e8410600b8410161715612267575081810a610a68565b61227183836121a9565b8060001904821115612285576122856120a1565b029392505050565b6000611eb583836121ec56fea2646970667358221220ead3c83233a54431be238086895cc5b00dcc636232c61dd9e8899f82310441f064736f6c63430008140033",
  "linkReferences": {},
  "deployedLinkReferences": {}
}